{
	"tipjar.sol": {
		"tips": {
			"abi": [
				{
					"inputs": [],
					"stateMutability": "nonpayable",
					"type": "constructor"
				},
				{
					"inputs": [
						{
							"internalType": "address payable",
							"name": "walletAddress",
							"type": "address"
						},
						{
							"internalType": "string",
							"name": "name",
							"type": "string"
						},
						{
							"internalType": "uint256",
							"name": "percent",
							"type": "uint256"
						}
					],
					"name": "addWaitress",
					"outputs": [],
					"stateMutability": "nonpayable",
					"type": "function"
				},
				{
					"inputs": [],
					"name": "addtips",
					"outputs": [],
					"stateMutability": "payable",
					"type": "function"
				},
				{
					"inputs": [],
					"name": "distributeBalance",
					"outputs": [],
					"stateMutability": "nonpayable",
					"type": "function"
				},
				{
					"inputs": [],
					"name": "getTotalPercent",
					"outputs": [
						{
							"internalType": "uint256",
							"name": "",
							"type": "uint256"
						}
					],
					"stateMutability": "view",
					"type": "function"
				},
				{
					"inputs": [
						{
							"internalType": "address",
							"name": "walletAddress",
							"type": "address"
						}
					],
					"name": "removeWaitress",
					"outputs": [],
					"stateMutability": "nonpayable",
					"type": "function"
				},
				{
					"inputs": [],
					"name": "viewWaitress",
					"outputs": [
						{
							"components": [
								{
									"internalType": "address payable",
									"name": "walletAddress",
									"type": "address"
								},
								{
									"internalType": "string",
									"name": "name",
									"type": "string"
								},
								{
									"internalType": "uint256",
									"name": "percent",
									"type": "uint256"
								}
							],
							"internalType": "struct tips.Waitress[]",
							"name": "",
							"type": "tuple[]"
						}
					],
					"stateMutability": "view",
					"type": "function"
				},
				{
					"inputs": [],
					"name": "viewtips",
					"outputs": [
						{
							"internalType": "uint256",
							"name": "",
							"type": "uint256"
						}
					],
					"stateMutability": "view",
					"type": "function"
				}
			],
			"devdoc": {
				"kind": "dev",
				"methods": {},
				"version": 1
			},
			"evm": {
				"assembly": "    /* \"tipjar.sol\":60:2842  contract tips {... */\n  mstore(0x40, 0x80)\n    /* \"tipjar.sol\":103:154  constructor() {... */\n  callvalue\n  dup1\n  iszero\n  tag_1\n  jumpi\n  revert(0x00, 0x00)\ntag_1:\n  pop\n    /* \"tipjar.sol\":136:146  msg.sender */\n  caller\n    /* \"tipjar.sol\":128:133  owner */\n  0x00\n  0x00\n    /* \"tipjar.sol\":128:146  owner = msg.sender */\n  0x0100\n  exp\n  dup2\n  sload\n  dup2\n  0xffffffffffffffffffffffffffffffffffffffff\n  mul\n  not\n  and\n  swap1\n  dup4\n  0xffffffffffffffffffffffffffffffffffffffff\n  and\n  mul\n  or\n  swap1\n  sstore\n  pop\n    /* \"tipjar.sol\":60:2842  contract tips {... */\n  dataSize(sub_0)\n  dup1\n  dataOffset(sub_0)\n  0x00\n  codecopy\n  0x00\n  return\nstop\n\nsub_0: assembly {\n        /* \"tipjar.sol\":60:2842  contract tips {... */\n      mstore(0x40, 0x80)\n      jumpi(tag_1, lt(calldatasize, 0x04))\n      shr(0xe0, calldataload(0x00))\n      dup1\n      0x6e7301fd\n      gt\n      tag_9\n      jumpi\n      dup1\n      0x6e7301fd\n      eq\n      tag_5\n      jumpi\n      dup1\n      0x7943da69\n      eq\n      tag_6\n      jumpi\n      dup1\n      0xb499b79a\n      eq\n      tag_7\n      jumpi\n      dup1\n      0xe83a1b00\n      eq\n      tag_8\n      jumpi\n      jump(tag_1)\n    tag_9:\n      dup1\n      0x2a08deda\n      eq\n      tag_2\n      jumpi\n      dup1\n      0x369a489d\n      eq\n      tag_3\n      jumpi\n      dup1\n      0x3c8e3b52\n      eq\n      tag_4\n      jumpi\n    tag_1:\n      revert(0x00, 0x00)\n        /* \"tipjar.sol\":268:361  function viewtips() public view returns(uint) {... */\n    tag_2:\n      callvalue\n      dup1\n      iszero\n      tag_10\n      jumpi\n      revert(0x00, 0x00)\n    tag_10:\n      pop\n      tag_11\n      tag_12\n      jump\t// in\n    tag_11:\n      mload(0x40)\n      tag_13\n      swap2\n      swap1\n      tag_14\n      jump\t// in\n    tag_13:\n      mload(0x40)\n      dup1\n      swap2\n      sub\n      swap1\n      return\n        /* \"tipjar.sol\":1530:2057  function removeWaitress(address walletAddress) public onlyOwner {... */\n    tag_3:\n      callvalue\n      dup1\n      iszero\n      tag_15\n      jumpi\n      revert(0x00, 0x00)\n    tag_15:\n      pop\n      tag_16\n      0x04\n      dup1\n      calldatasize\n      sub\n      dup2\n      add\n      swap1\n      tag_17\n      swap2\n      swap1\n      tag_18\n      jump\t// in\n    tag_17:\n      tag_19\n      jump\t// in\n    tag_16:\n      stop\n        /* \"tipjar.sol\":2621:2839  function getTotalPercent() public view returns (uint) {... */\n    tag_4:\n      callvalue\n      dup1\n      iszero\n      tag_20\n      jumpi\n      revert(0x00, 0x00)\n    tag_20:\n      pop\n      tag_21\n      tag_22\n      jump\t// in\n    tag_21:\n      mload(0x40)\n      tag_23\n      swap2\n      swap1\n      tag_14\n      jump\t// in\n    tag_23:\n      mload(0x40)\n      dup1\n      swap2\n      sub\n      swap1\n      return\n        /* \"tipjar.sol\":200:236  function addtips() payable public {} */\n    tag_5:\n      tag_24\n      tag_25\n      jump\t// in\n    tag_24:\n      stop\n        /* \"tipjar.sol\":1026:1522  function distributeBalance() public {... */\n    tag_6:\n      callvalue\n      dup1\n      iszero\n      tag_26\n      jumpi\n      revert(0x00, 0x00)\n    tag_26:\n      pop\n      tag_27\n      tag_28\n      jump\t// in\n    tag_27:\n      stop\n        /* \"tipjar.sol\":2065:2613  function addWaitress(... */\n    tag_7:\n      callvalue\n      dup1\n      iszero\n      tag_29\n      jumpi\n      revert(0x00, 0x00)\n    tag_29:\n      pop\n      tag_30\n      0x04\n      dup1\n      calldatasize\n      sub\n      dup2\n      add\n      swap1\n      tag_31\n      swap2\n      swap1\n      tag_32\n      jump\t// in\n    tag_31:\n      tag_33\n      jump\t// in\n    tag_30:\n      stop\n        /* \"tipjar.sol\":602:699  function viewWaitress() public view returns(Waitress[] memory) {... */\n    tag_8:\n      callvalue\n      dup1\n      iszero\n      tag_34\n      jumpi\n      revert(0x00, 0x00)\n    tag_34:\n      pop\n      tag_35\n      tag_36\n      jump\t// in\n    tag_35:\n      mload(0x40)\n      tag_37\n      swap2\n      swap1\n      tag_38\n      jump\t// in\n    tag_37:\n      mload(0x40)\n      dup1\n      swap2\n      sub\n      swap1\n      return\n        /* \"tipjar.sol\":268:361  function viewtips() public view returns(uint) {... */\n    tag_12:\n        /* \"tipjar.sol\":308:312  uint */\n      0x00\n        /* \"tipjar.sol\":332:353  address(this).balance */\n      selfbalance\n        /* \"tipjar.sol\":325:353  return address(this).balance */\n      swap1\n      pop\n        /* \"tipjar.sol\":268:361  function viewtips() public view returns(uint) {... */\n      swap1\n      jump\t// out\n        /* \"tipjar.sol\":1530:2057  function removeWaitress(address walletAddress) public onlyOwner {... */\n    tag_19:\n        /* \"tipjar.sol\":761:766  owner */\n      0x00\n      0x00\n      swap1\n      sload\n      swap1\n      0x0100\n      exp\n      swap1\n      div\n      0xffffffffffffffffffffffffffffffffffffffff\n      and\n        /* \"tipjar.sol\":747:766  msg.sender == owner */\n      0xffffffffffffffffffffffffffffffffffffffff\n      and\n        /* \"tipjar.sol\":747:757  msg.sender */\n      caller\n        /* \"tipjar.sol\":747:766  msg.sender == owner */\n      0xffffffffffffffffffffffffffffffffffffffff\n      and\n      eq\n        /* \"tipjar.sol\":739:790  require(msg.sender == owner, \"Only owner can call\") */\n      tag_41\n      jumpi\n      mload(0x40)\n      0x08c379a000000000000000000000000000000000000000000000000000000000\n      dup2\n      mstore\n      0x04\n      add\n      tag_42\n      swap1\n      tag_43\n      jump\t// in\n    tag_42:\n      mload(0x40)\n      dup1\n      swap2\n      sub\n      swap1\n      revert\n    tag_41:\n        /* \"tipjar.sol\":1627:1628  1 */\n      0x01\n        /* \"tipjar.sol\":1608:1616  waitress */\n      dup1\n        /* \"tipjar.sol\":1608:1623  waitress.length */\n      dup1\n      sload\n      swap1\n      pop\n        /* \"tipjar.sol\":1608:1628  waitress.length >= 1 */\n      lt\n        /* \"tipjar.sol\":1605:2050  if(waitress.length >= 1){... */\n      tag_45\n      jumpi\n        /* \"tipjar.sol\":1648:1654  uint i */\n      0x00\n        /* \"tipjar.sol\":1655:1656  0 */\n      0x00\n        /* \"tipjar.sol\":1648:1656  uint i=0 */\n      swap1\n      pop\n        /* \"tipjar.sol\":1644:2039  for(uint i=0; i<waitress.length; i++){... */\n    tag_46:\n        /* \"tipjar.sol\":1660:1668  waitress */\n      0x01\n        /* \"tipjar.sol\":1660:1675  waitress.length */\n      dup1\n      sload\n      swap1\n      pop\n        /* \"tipjar.sol\":1658:1659  i */\n      dup2\n        /* \"tipjar.sol\":1658:1675  i<waitress.length */\n      lt\n        /* \"tipjar.sol\":1644:2039  for(uint i=0; i<waitress.length; i++){... */\n      iszero\n      tag_47\n      jumpi\n        /* \"tipjar.sol\":1732:1745  walletAddress */\n      dup2\n        /* \"tipjar.sol\":1703:1745  waitress[i].walletAddress == walletAddress */\n      0xffffffffffffffffffffffffffffffffffffffff\n      and\n        /* \"tipjar.sol\":1703:1711  waitress */\n      0x01\n        /* \"tipjar.sol\":1712:1713  i */\n      dup3\n        /* \"tipjar.sol\":1703:1714  waitress[i] */\n      dup2\n      sload\n      dup2\n      lt\n      tag_49\n      jumpi\n      tag_50\n      tag_51\n      jump\t// in\n    tag_50:\n    tag_49:\n      swap1\n      0x00\n      mstore\n      keccak256(0x00, 0x20)\n      swap1\n      0x03\n      mul\n      add\n        /* \"tipjar.sol\":1703:1728  waitress[i].walletAddress */\n      0x00\n      add\n      0x00\n      swap1\n      sload\n      swap1\n      0x0100\n      exp\n      swap1\n      div\n      0xffffffffffffffffffffffffffffffffffffffff\n      and\n        /* \"tipjar.sol\":1703:1745  waitress[i].walletAddress == walletAddress */\n      0xffffffffffffffffffffffffffffffffffffffff\n      and\n      sub\n        /* \"tipjar.sol\":1700:2024  if(waitress[i].walletAddress == walletAddress){... */\n      tag_53\n      jumpi\n        /* \"tipjar.sol\":1818:1824  uint j */\n      0x00\n        /* \"tipjar.sol\":1827:1828  i */\n      dup2\n        /* \"tipjar.sol\":1818:1828  uint j = i */\n      swap1\n      pop\n        /* \"tipjar.sol\":1813:1940  for (uint j = i; j < waitress.length - 1; j++) {... */\n    tag_54:\n        /* \"tipjar.sol\":1852:1853  1 */\n      0x01\n        /* \"tipjar.sol\":1834:1842  waitress */\n      dup1\n        /* \"tipjar.sol\":1834:1849  waitress.length */\n      dup1\n      sload\n      swap1\n      pop\n        /* \"tipjar.sol\":1834:1853  waitress.length - 1 */\n      tag_57\n      swap2\n      swap1\n      tag_58\n      jump\t// in\n    tag_57:\n        /* \"tipjar.sol\":1830:1831  j */\n      dup2\n        /* \"tipjar.sol\":1830:1853  j < waitress.length - 1 */\n      lt\n        /* \"tipjar.sol\":1813:1940  for (uint j = i; j < waitress.length - 1; j++) {... */\n      iszero\n      tag_55\n      jumpi\n        /* \"tipjar.sol\":1901:1909  waitress */\n      0x01\n        /* \"tipjar.sol\":1914:1915  1 */\n      dup1\n        /* \"tipjar.sol\":1910:1911  j */\n      dup3\n        /* \"tipjar.sol\":1910:1915  j + 1 */\n      tag_59\n      swap2\n      swap1\n      tag_60\n      jump\t// in\n    tag_59:\n        /* \"tipjar.sol\":1901:1916  waitress[j + 1] */\n      dup2\n      sload\n      dup2\n      lt\n      tag_61\n      jumpi\n      tag_62\n      tag_51\n      jump\t// in\n    tag_62:\n    tag_61:\n      swap1\n      0x00\n      mstore\n      keccak256(0x00, 0x20)\n      swap1\n      0x03\n      mul\n      add\n        /* \"tipjar.sol\":1887:1895  waitress */\n      0x01\n        /* \"tipjar.sol\":1896:1897  j */\n      dup3\n        /* \"tipjar.sol\":1887:1898  waitress[j] */\n      dup2\n      sload\n      dup2\n      lt\n      tag_64\n      jumpi\n      tag_65\n      tag_51\n      jump\t// in\n    tag_65:\n    tag_64:\n      swap1\n      0x00\n      mstore\n      keccak256(0x00, 0x20)\n      swap1\n      0x03\n      mul\n      add\n        /* \"tipjar.sol\":1887:1916  waitress[j] = waitress[j + 1] */\n      0x00\n      dup3\n      add\n      0x00\n      swap1\n      sload\n      swap1\n      0x0100\n      exp\n      swap1\n      div\n      0xffffffffffffffffffffffffffffffffffffffff\n      and\n      dup2\n      0x00\n      add\n      exp(0x0100, 0x00)\n      dup2\n      sload\n      dup2\n      0xffffffffffffffffffffffffffffffffffffffff\n      mul\n      not\n      and\n      swap1\n      dup4\n      0xffffffffffffffffffffffffffffffffffffffff\n      and\n      mul\n      or\n      swap1\n      sstore\n      pop\n      0x01\n      dup3\n      add\n      dup2\n      0x01\n      add\n      swap1\n      dup2\n      tag_67\n      swap2\n      swap1\n      tag_68\n      jump\t// in\n    tag_67:\n      pop\n      0x02\n      dup3\n      add\n      sload\n      dup2\n      0x02\n      add\n      sstore\n      swap1\n      pop\n      pop\n        /* \"tipjar.sol\":1855:1858  j++ */\n      dup1\n      dup1\n      0x01\n      add\n      swap2\n      pop\n      pop\n        /* \"tipjar.sol\":1813:1940  for (uint j = i; j < waitress.length - 1; j++) {... */\n      jump(tag_54)\n    tag_55:\n      pop\n        /* \"tipjar.sol\":1962:1970  waitress */\n      0x01\n        /* \"tipjar.sol\":1962:1976  waitress.pop() */\n      dup1\n      sload\n      dup1\n      tag_69\n      jumpi\n      tag_70\n      tag_71\n      jump\t// in\n    tag_70:\n    tag_69:\n      0x01\n      swap1\n      sub\n      dup2\n      dup2\n      swap1\n      0x00\n      mstore\n      keccak256(0x00, 0x20)\n      swap1\n      0x03\n      mul\n      add\n      0x00\n      0x00\n      dup3\n      add\n      exp(0x0100, 0x00)\n      dup2\n      sload\n      swap1\n      0xffffffffffffffffffffffffffffffffffffffff\n      mul\n      not\n      and\n      swap1\n      sstore\n      0x01\n      dup3\n      add\n      0x00\n      tag_73\n      swap2\n      swap1\n      tag_74\n      jump\t// in\n    tag_73:\n      0x02\n      dup3\n      add\n      0x00\n      swap1\n      sstore\n      pop\n      pop\n      swap1\n      sstore\n        /* \"tipjar.sol\":1999:2004  break */\n      jump(tag_47)\n        /* \"tipjar.sol\":1700:2024  if(waitress[i].walletAddress == walletAddress){... */\n    tag_53:\n        /* \"tipjar.sol\":1677:1680  i++ */\n      dup1\n      dup1\n      0x01\n      add\n      swap2\n      pop\n      pop\n        /* \"tipjar.sol\":1644:2039  for(uint i=0; i<waitress.length; i++){... */\n      jump(tag_46)\n    tag_47:\n      pop\n        /* \"tipjar.sol\":1605:2050  if(waitress.length >= 1){... */\n    tag_45:\n        /* \"tipjar.sol\":1530:2057  function removeWaitress(address walletAddress) public onlyOwner {... */\n      pop\n      jump\t// out\n        /* \"tipjar.sol\":2621:2839  function getTotalPercent() public view returns (uint) {... */\n    tag_22:\n        /* \"tipjar.sol\":2669:2673  uint */\n      0x00\n        /* \"tipjar.sol\":2686:2696  uint total */\n      0x00\n        /* \"tipjar.sol\":2699:2700  0 */\n      0x00\n        /* \"tipjar.sol\":2686:2700  uint total = 0 */\n      swap1\n      pop\n        /* \"tipjar.sol\":2716:2722  uint i */\n      0x00\n        /* \"tipjar.sol\":2725:2726  0 */\n      0x00\n        /* \"tipjar.sol\":2716:2726  uint i = 0 */\n      swap1\n      pop\n        /* \"tipjar.sol\":2711:2809  for (uint i = 0; i < waitress.length; i++) {... */\n    tag_76:\n        /* \"tipjar.sol\":2732:2740  waitress */\n      0x01\n        /* \"tipjar.sol\":2732:2747  waitress.length */\n      dup1\n      sload\n      swap1\n      pop\n        /* \"tipjar.sol\":2728:2729  i */\n      dup2\n        /* \"tipjar.sol\":2728:2747  i < waitress.length */\n      lt\n        /* \"tipjar.sol\":2711:2809  for (uint i = 0; i < waitress.length; i++) {... */\n      iszero\n      tag_77\n      jumpi\n        /* \"tipjar.sol\":2778:2786  waitress */\n      0x01\n        /* \"tipjar.sol\":2787:2788  i */\n      dup2\n        /* \"tipjar.sol\":2778:2789  waitress[i] */\n      dup2\n      sload\n      dup2\n      lt\n      tag_79\n      jumpi\n      tag_80\n      tag_51\n      jump\t// in\n    tag_80:\n    tag_79:\n      swap1\n      0x00\n      mstore\n      keccak256(0x00, 0x20)\n      swap1\n      0x03\n      mul\n      add\n        /* \"tipjar.sol\":2778:2797  waitress[i].percent */\n      0x02\n      add\n      sload\n        /* \"tipjar.sol\":2769:2797  total += waitress[i].percent */\n      dup3\n      tag_82\n      swap2\n      swap1\n      tag_60\n      jump\t// in\n    tag_82:\n      swap2\n      pop\n        /* \"tipjar.sol\":2749:2752  i++ */\n      dup1\n      dup1\n      0x01\n      add\n      swap2\n      pop\n      pop\n        /* \"tipjar.sol\":2711:2809  for (uint i = 0; i < waitress.length; i++) {... */\n      jump(tag_76)\n    tag_77:\n      pop\n        /* \"tipjar.sol\":2826:2831  total */\n      dup1\n        /* \"tipjar.sol\":2819:2831  return total */\n      swap2\n      pop\n      pop\n        /* \"tipjar.sol\":2621:2839  function getTotalPercent() public view returns (uint) {... */\n      swap1\n      jump\t// out\n        /* \"tipjar.sol\":200:236  function addtips() payable public {} */\n    tag_25:\n      jump\t// out\n        /* \"tipjar.sol\":1026:1522  function distributeBalance() public {... */\n    tag_28:\n        /* \"tipjar.sol\":1105:1106  0 */\n      0x00\n        /* \"tipjar.sol\":1081:1102  address(this).balance */\n      selfbalance\n        /* \"tipjar.sol\":1081:1106  address(this).balance > 0 */\n      gt\n        /* \"tipjar.sol\":1073:1119  require(address(this).balance > 0, \"No Money\") */\n      tag_85\n      jumpi\n      mload(0x40)\n      0x08c379a000000000000000000000000000000000000000000000000000000000\n      dup2\n      mstore\n      0x04\n      add\n      tag_86\n      swap1\n      tag_87\n      jump\t// in\n    tag_86:\n      mload(0x40)\n      dup1\n      swap2\n      sub\n      swap1\n      revert\n    tag_85:\n        /* \"tipjar.sol\":1152:1153  1 */\n      0x01\n        /* \"tipjar.sol\":1133:1141  waitress */\n      dup1\n        /* \"tipjar.sol\":1133:1148  waitress.length */\n      dup1\n      sload\n      swap1\n      pop\n        /* \"tipjar.sol\":1133:1153  waitress.length >= 1 */\n      lt\n        /* \"tipjar.sol\":1130:1515  if(waitress.length >= 1){... */\n      tag_88\n      jumpi\n        /* \"tipjar.sol\":1169:1185  uint totalamount */\n      0x00\n        /* \"tipjar.sol\":1188:1209  address(this).balance */\n      selfbalance\n        /* \"tipjar.sol\":1169:1209  uint totalamount = address(this).balance */\n      swap1\n      pop\n        /* \"tipjar.sol\":1228:1234  uint j */\n      0x00\n        /* \"tipjar.sol\":1235:1236  0 */\n      0x00\n        /* \"tipjar.sol\":1228:1236  uint j=0 */\n      swap1\n      pop\n        /* \"tipjar.sol\":1224:1504  for(uint j=0; j<waitress.length; j++){... */\n    tag_89:\n        /* \"tipjar.sol\":1240:1248  waitress */\n      0x01\n        /* \"tipjar.sol\":1240:1255  waitress.length */\n      dup1\n      sload\n      swap1\n      pop\n        /* \"tipjar.sol\":1238:1239  j */\n      dup2\n        /* \"tipjar.sol\":1238:1255  j<waitress.length */\n      lt\n        /* \"tipjar.sol\":1224:1504  for(uint j=0; j<waitress.length; j++){... */\n      iszero\n      tag_90\n      jumpi\n        /* \"tipjar.sol\":1316:1337  uint distributeAmount */\n      0x00\n        /* \"tipjar.sol\":1376:1379  100 */\n      0x64\n        /* \"tipjar.sol\":1354:1362  waitress */\n      0x01\n        /* \"tipjar.sol\":1363:1364  j */\n      dup4\n        /* \"tipjar.sol\":1354:1365  waitress[j] */\n      dup2\n      sload\n      dup2\n      lt\n      tag_92\n      jumpi\n      tag_93\n      tag_51\n      jump\t// in\n    tag_93:\n    tag_92:\n      swap1\n      0x00\n      mstore\n      keccak256(0x00, 0x20)\n      swap1\n      0x03\n      mul\n      add\n        /* \"tipjar.sol\":1354:1373  waitress[j].percent */\n      0x02\n      add\n      sload\n        /* \"tipjar.sol\":1340:1351  totalamount */\n      dup5\n        /* \"tipjar.sol\":1340:1373  totalamount * waitress[j].percent */\n      tag_95\n      swap2\n      swap1\n      tag_96\n      jump\t// in\n    tag_95:\n        /* \"tipjar.sol\":1340:1379  totalamount * waitress[j].percent / 100 */\n      tag_97\n      swap2\n      swap1\n      tag_98\n      jump\t// in\n    tag_97:\n        /* \"tipjar.sol\":1316:1379  uint distributeAmount = totalamount * waitress[j].percent / 100 */\n      swap1\n      pop\n        /* \"tipjar.sol\":1429:1488  _transferFunds(waitress[j].walletAddress, distributeAmount) */\n      tag_99\n        /* \"tipjar.sol\":1444:1452  waitress */\n      0x01\n        /* \"tipjar.sol\":1453:1454  j */\n      dup4\n        /* \"tipjar.sol\":1444:1455  waitress[j] */\n      dup2\n      sload\n      dup2\n      lt\n      tag_100\n      jumpi\n      tag_101\n      tag_51\n      jump\t// in\n    tag_101:\n    tag_100:\n      swap1\n      0x00\n      mstore\n      keccak256(0x00, 0x20)\n      swap1\n      0x03\n      mul\n      add\n        /* \"tipjar.sol\":1444:1469  waitress[j].walletAddress */\n      0x00\n      add\n      0x00\n      swap1\n      sload\n      swap1\n      0x0100\n      exp\n      swap1\n      div\n      0xffffffffffffffffffffffffffffffffffffffff\n      and\n        /* \"tipjar.sol\":1471:1487  distributeAmount */\n      dup3\n        /* \"tipjar.sol\":1429:1443  _transferFunds */\n      tag_103\n        /* \"tipjar.sol\":1429:1488  _transferFunds(waitress[j].walletAddress, distributeAmount) */\n      jump\t// in\n    tag_99:\n        /* \"tipjar.sol\":1261:1504  {... */\n      pop\n        /* \"tipjar.sol\":1257:1260  j++ */\n      dup1\n      dup1\n      0x01\n      add\n      swap2\n      pop\n      pop\n        /* \"tipjar.sol\":1224:1504  for(uint j=0; j<waitress.length; j++){... */\n      jump(tag_89)\n    tag_90:\n      pop\n        /* \"tipjar.sol\":1154:1515  {... */\n      pop\n        /* \"tipjar.sol\":1130:1515  if(waitress.length >= 1){... */\n    tag_88:\n        /* \"tipjar.sol\":1026:1522  function distributeBalance() public {... */\n      jump\t// out\n        /* \"tipjar.sol\":2065:2613  function addWaitress(... */\n    tag_33:\n        /* \"tipjar.sol\":761:766  owner */\n      0x00\n      0x00\n      swap1\n      sload\n      swap1\n      0x0100\n      exp\n      swap1\n      div\n      0xffffffffffffffffffffffffffffffffffffffff\n      and\n        /* \"tipjar.sol\":747:766  msg.sender == owner */\n      0xffffffffffffffffffffffffffffffffffffffff\n      and\n        /* \"tipjar.sol\":747:757  msg.sender */\n      caller\n        /* \"tipjar.sol\":747:766  msg.sender == owner */\n      0xffffffffffffffffffffffffffffffffffffffff\n      and\n      eq\n        /* \"tipjar.sol\":739:790  require(msg.sender == owner, \"Only owner can call\") */\n      tag_105\n      jumpi\n      mload(0x40)\n      0x08c379a000000000000000000000000000000000000000000000000000000000\n      dup2\n      mstore\n      0x04\n      add\n      tag_106\n      swap1\n      tag_43\n      jump\t// in\n    tag_106:\n      mload(0x40)\n      dup1\n      swap2\n      sub\n      swap1\n      revert\n    tag_105:\n        /* \"tipjar.sol\":2233:2234  0 */\n      0x00\n        /* \"tipjar.sol\":2223:2230  percent */\n      dup2\n        /* \"tipjar.sol\":2223:2234  percent > 0 */\n      gt\n        /* \"tipjar.sol\":2223:2252  percent > 0 && percent <= 100 */\n      dup1\n      iszero\n      tag_108\n      jumpi\n      pop\n        /* \"tipjar.sol\":2249:2252  100 */\n      0x64\n        /* \"tipjar.sol\":2238:2245  percent */\n      dup2\n        /* \"tipjar.sol\":2238:2252  percent <= 100 */\n      gt\n      iszero\n        /* \"tipjar.sol\":2223:2252  percent > 0 && percent <= 100 */\n    tag_108:\n        /* \"tipjar.sol\":2215:2299  require(percent > 0 && percent <= 100,... */\n      tag_109\n      jumpi\n      mload(0x40)\n      0x08c379a000000000000000000000000000000000000000000000000000000000\n      dup2\n      mstore\n      0x04\n      add\n      tag_110\n      swap1\n      tag_111\n      jump\t// in\n    tag_110:\n      mload(0x40)\n      dup1\n      swap2\n      sub\n      swap1\n      revert\n    tag_109:\n        /* \"tipjar.sol\":2477:2480  100 */\n      0x64\n        /* \"tipjar.sol\":2466:2473  percent */\n      dup2\n        /* \"tipjar.sol\":2446:2463  getTotalPercent() */\n      tag_112\n        /* \"tipjar.sol\":2446:2461  getTotalPercent */\n      tag_22\n        /* \"tipjar.sol\":2446:2463  getTotalPercent() */\n      jump\t// in\n    tag_112:\n        /* \"tipjar.sol\":2446:2473  getTotalPercent() + percent */\n      tag_113\n      swap2\n      swap1\n      tag_60\n      jump\t// in\n    tag_113:\n        /* \"tipjar.sol\":2446:2480  getTotalPercent() + percent <= 100 */\n      gt\n      iszero\n        /* \"tipjar.sol\":2424:2539  require(... */\n      tag_114\n      jumpi\n      mload(0x40)\n      0x08c379a000000000000000000000000000000000000000000000000000000000\n      dup2\n      mstore\n      0x04\n      add\n      tag_115\n      swap1\n      tag_116\n      jump\t// in\n    tag_115:\n      mload(0x40)\n      dup1\n      swap2\n      sub\n      swap1\n      revert\n    tag_114:\n        /* \"tipjar.sol\":2552:2560  waitress */\n      0x01\n        /* \"tipjar.sol\":2566:2604  Waitress(walletAddress, name, percent) */\n      mload(0x40)\n      dup1\n      0x60\n      add\n      0x40\n      mstore\n      dup1\n        /* \"tipjar.sol\":2575:2588  walletAddress */\n      dup6\n        /* \"tipjar.sol\":2566:2604  Waitress(walletAddress, name, percent) */\n      0xffffffffffffffffffffffffffffffffffffffff\n      and\n      dup2\n      mstore\n      0x20\n      add\n        /* \"tipjar.sol\":2590:2594  name */\n      dup5\n        /* \"tipjar.sol\":2566:2604  Waitress(walletAddress, name, percent) */\n      dup2\n      mstore\n      0x20\n      add\n        /* \"tipjar.sol\":2596:2603  percent */\n      dup4\n        /* \"tipjar.sol\":2566:2604  Waitress(walletAddress, name, percent) */\n      dup2\n      mstore\n      pop\n        /* \"tipjar.sol\":2552:2605  waitress.push(Waitress(walletAddress, name, percent)) */\n      swap1\n      dup1\n      0x01\n      dup2\n      sload\n      add\n      dup1\n      dup3\n      sstore\n      dup1\n      swap2\n      pop\n      pop\n      0x01\n      swap1\n      sub\n      swap1\n      0x00\n      mstore\n      keccak256(0x00, 0x20)\n      swap1\n      0x03\n      mul\n      add\n      0x00\n      swap1\n      swap2\n      swap1\n      swap2\n      swap1\n      swap2\n      pop\n      0x00\n      dup3\n      add\n      mload\n      dup2\n      0x00\n      add\n      exp(0x0100, 0x00)\n      dup2\n      sload\n      dup2\n      0xffffffffffffffffffffffffffffffffffffffff\n      mul\n      not\n      and\n      swap1\n      dup4\n      0xffffffffffffffffffffffffffffffffffffffff\n      and\n      mul\n      or\n      swap1\n      sstore\n      pop\n      0x20\n      dup3\n      add\n      mload\n      dup2\n      0x01\n      add\n      swap1\n      dup2\n      tag_118\n      swap2\n      swap1\n      tag_119\n      jump\t// in\n    tag_118:\n      pop\n      0x40\n      dup3\n      add\n      mload\n      dup2\n      0x02\n      add\n      sstore\n      pop\n      pop\n        /* \"tipjar.sol\":2065:2613  function addWaitress(... */\n      pop\n      pop\n      pop\n      jump\t// out\n        /* \"tipjar.sol\":602:699  function viewWaitress() public view returns(Waitress[] memory) {... */\n    tag_36:\n        /* \"tipjar.sol\":646:663  Waitress[] memory */\n      0x60\n        /* \"tipjar.sol\":683:691  waitress */\n      0x01\n        /* \"tipjar.sol\":676:691  return waitress */\n      dup1\n      sload\n      dup1\n      0x20\n      mul\n      0x20\n      add\n      mload(0x40)\n      swap1\n      dup2\n      add\n      0x40\n      mstore\n      dup1\n      swap3\n      swap2\n      swap1\n      dup2\n      dup2\n      mstore\n      0x20\n      add\n      0x00\n      swap1\n    tag_121:\n      dup3\n      dup3\n      lt\n      iszero\n      tag_122\n      jumpi\n      dup4\n      dup3\n      swap1\n      0x00\n      mstore\n      keccak256(0x00, 0x20)\n      swap1\n      0x03\n      mul\n      add\n      mload(0x40)\n      dup1\n      0x60\n      add\n      0x40\n      mstore\n      swap1\n      dup2\n      0x00\n      dup3\n      add\n      0x00\n      swap1\n      sload\n      swap1\n      0x0100\n      exp\n      swap1\n      div\n      0xffffffffffffffffffffffffffffffffffffffff\n      and\n      0xffffffffffffffffffffffffffffffffffffffff\n      and\n      0xffffffffffffffffffffffffffffffffffffffff\n      and\n      dup2\n      mstore\n      0x20\n      add\n      0x01\n      dup3\n      add\n      dup1\n      sload\n      tag_124\n      swap1\n      tag_125\n      jump\t// in\n    tag_124:\n      dup1\n      0x1f\n      add\n      0x20\n      dup1\n      swap2\n      div\n      mul\n      0x20\n      add\n      mload(0x40)\n      swap1\n      dup2\n      add\n      0x40\n      mstore\n      dup1\n      swap3\n      swap2\n      swap1\n      dup2\n      dup2\n      mstore\n      0x20\n      add\n      dup3\n      dup1\n      sload\n      tag_126\n      swap1\n      tag_125\n      jump\t// in\n    tag_126:\n      dup1\n      iszero\n      tag_127\n      jumpi\n      dup1\n      0x1f\n      lt\n      tag_128\n      jumpi\n      0x0100\n      dup1\n      dup4\n      sload\n      div\n      mul\n      dup4\n      mstore\n      swap2\n      0x20\n      add\n      swap2\n      jump(tag_127)\n    tag_128:\n      dup3\n      add\n      swap2\n      swap1\n      0x00\n      mstore\n      keccak256(0x00, 0x20)\n      swap1\n    tag_129:\n      dup2\n      sload\n      dup2\n      mstore\n      swap1\n      0x01\n      add\n      swap1\n      0x20\n      add\n      dup1\n      dup4\n      gt\n      tag_129\n      jumpi\n      dup3\n      swap1\n      sub\n      0x1f\n      and\n      dup3\n      add\n      swap2\n    tag_127:\n      pop\n      pop\n      pop\n      pop\n      pop\n      dup2\n      mstore\n      0x20\n      add\n      0x02\n      dup3\n      add\n      sload\n      dup2\n      mstore\n      pop\n      pop\n      dup2\n      mstore\n      0x20\n      add\n      swap1\n      0x01\n      add\n      swap1\n      jump(tag_121)\n    tag_122:\n      pop\n      pop\n      pop\n      pop\n      swap1\n      pop\n        /* \"tipjar.sol\":602:699  function viewWaitress() public view returns(Waitress[] memory) {... */\n      swap1\n      jump\t// out\n        /* \"tipjar.sol\":818:1018  function _transferFunds(address payable recipient, uint amount) internal {... */\n    tag_103:\n        /* \"tipjar.sol\":903:915  bool success */\n      0x00\n        /* \"tipjar.sol\":929:938  recipient */\n      dup3\n        /* \"tipjar.sol\":921:944  payable(recipient).call */\n      0xffffffffffffffffffffffffffffffffffffffff\n      and\n        /* \"tipjar.sol\":952:958  amount */\n      dup3\n        /* \"tipjar.sol\":921:963  payable(recipient).call{value: amount}(\"\") */\n      mload(0x40)\n      tag_131\n      swap1\n      tag_132\n      jump\t// in\n    tag_131:\n      0x00\n      mload(0x40)\n      dup1\n      dup4\n      sub\n      dup2\n      dup6\n      dup8\n      gas\n      call\n      swap3\n      pop\n      pop\n      pop\n      returndatasize\n      dup1\n      0x00\n      dup2\n      eq\n      tag_135\n      jumpi\n      mload(0x40)\n      swap2\n      pop\n      and(add(returndatasize, 0x3f), not(0x1f))\n      dup3\n      add\n      0x40\n      mstore\n      returndatasize\n      dup3\n      mstore\n      returndatasize\n      0x00\n      0x20\n      dup5\n      add\n      returndatacopy\n      jump(tag_134)\n    tag_135:\n      0x60\n      swap2\n      pop\n    tag_134:\n      pop\n        /* \"tipjar.sol\":902:963  (bool success, ) = payable(recipient).call{value: amount}(\"\") */\n      pop\n      swap1\n      pop\n        /* \"tipjar.sol\":982:989  success */\n      dup1\n        /* \"tipjar.sol\":974:1010  require(success, \"Transfer failed.\") */\n      tag_136\n      jumpi\n      mload(0x40)\n      0x08c379a000000000000000000000000000000000000000000000000000000000\n      dup2\n      mstore\n      0x04\n      add\n      tag_137\n      swap1\n      tag_138\n      jump\t// in\n    tag_137:\n      mload(0x40)\n      dup1\n      swap2\n      sub\n      swap1\n      revert\n    tag_136:\n        /* \"tipjar.sol\":891:1018  {... */\n      pop\n        /* \"tipjar.sol\":818:1018  function _transferFunds(address payable recipient, uint amount) internal {... */\n      pop\n      pop\n      jump\t// out\n    tag_74:\n      pop\n      dup1\n      sload\n      tag_139\n      swap1\n      tag_125\n      jump\t// in\n    tag_139:\n      0x00\n      dup3\n      sstore\n      dup1\n      0x1f\n      lt\n      tag_141\n      jumpi\n      pop\n      jump(tag_140)\n    tag_141:\n      0x1f\n      add\n      0x20\n      swap1\n      div\n      swap1\n      0x00\n      mstore\n      keccak256(0x00, 0x20)\n      swap1\n      dup2\n      add\n      swap1\n      tag_142\n      swap2\n      swap1\n      tag_143\n      jump\t// in\n    tag_142:\n    tag_140:\n      pop\n      jump\t// out\n    tag_143:\n    tag_144:\n      dup1\n      dup3\n      gt\n      iszero\n      tag_145\n      jumpi\n      0x00\n      dup2\n      0x00\n      swap1\n      sstore\n      pop\n      0x01\n      add\n      jump(tag_144)\n    tag_145:\n      pop\n      swap1\n      jump\t// out\n        /* \"#utility.yul\":7:84   */\n    tag_146:\n        /* \"#utility.yul\":44:51   */\n      0x00\n        /* \"#utility.yul\":73:78   */\n      dup2\n        /* \"#utility.yul\":62:78   */\n      swap1\n      pop\n        /* \"#utility.yul\":7:84   */\n      swap2\n      swap1\n      pop\n      jump\t// out\n        /* \"#utility.yul\":90:208   */\n    tag_147:\n        /* \"#utility.yul\":177:201   */\n      tag_219\n        /* \"#utility.yul\":195:200   */\n      dup2\n        /* \"#utility.yul\":177:201   */\n      tag_146\n      jump\t// in\n    tag_219:\n        /* \"#utility.yul\":172:175   */\n      dup3\n        /* \"#utility.yul\":165:202   */\n      mstore\n        /* \"#utility.yul\":90:208   */\n      pop\n      pop\n      jump\t// out\n        /* \"#utility.yul\":214:436   */\n    tag_14:\n        /* \"#utility.yul\":307:311   */\n      0x00\n        /* \"#utility.yul\":345:347   */\n      0x20\n        /* \"#utility.yul\":334:343   */\n      dup3\n        /* \"#utility.yul\":330:348   */\n      add\n        /* \"#utility.yul\":322:348   */\n      swap1\n      pop\n        /* \"#utility.yul\":358:429   */\n      tag_221\n        /* \"#utility.yul\":426:427   */\n      0x00\n        /* \"#utility.yul\":415:424   */\n      dup4\n        /* \"#utility.yul\":411:428   */\n      add\n        /* \"#utility.yul\":402:408   */\n      dup5\n        /* \"#utility.yul\":358:429   */\n      tag_147\n      jump\t// in\n    tag_221:\n        /* \"#utility.yul\":214:436   */\n      swap3\n      swap2\n      pop\n      pop\n      jump\t// out\n        /* \"#utility.yul\":442:517   */\n    tag_148:\n        /* \"#utility.yul\":475:481   */\n      0x00\n        /* \"#utility.yul\":508:510   */\n      0x40\n        /* \"#utility.yul\":502:511   */\n      mload\n        /* \"#utility.yul\":492:511   */\n      swap1\n      pop\n        /* \"#utility.yul\":442:517   */\n      swap1\n      jump\t// out\n        /* \"#utility.yul\":523:640   */\n    tag_149:\n        /* \"#utility.yul\":632:633   */\n      0x00\n        /* \"#utility.yul\":629:630   */\n      0x00\n        /* \"#utility.yul\":622:634   */\n      revert\n        /* \"#utility.yul\":646:763   */\n    tag_150:\n        /* \"#utility.yul\":755:756   */\n      0x00\n        /* \"#utility.yul\":752:753   */\n      0x00\n        /* \"#utility.yul\":745:757   */\n      revert\n        /* \"#utility.yul\":769:895   */\n    tag_151:\n        /* \"#utility.yul\":806:813   */\n      0x00\n        /* \"#utility.yul\":846:888   */\n      0xffffffffffffffffffffffffffffffffffffffff\n        /* \"#utility.yul\":839:844   */\n      dup3\n        /* \"#utility.yul\":835:889   */\n      and\n        /* \"#utility.yul\":824:889   */\n      swap1\n      pop\n        /* \"#utility.yul\":769:895   */\n      swap2\n      swap1\n      pop\n      jump\t// out\n        /* \"#utility.yul\":901:997   */\n    tag_152:\n        /* \"#utility.yul\":938:945   */\n      0x00\n        /* \"#utility.yul\":967:991   */\n      tag_227\n        /* \"#utility.yul\":985:990   */\n      dup3\n        /* \"#utility.yul\":967:991   */\n      tag_151\n      jump\t// in\n    tag_227:\n        /* \"#utility.yul\":956:991   */\n      swap1\n      pop\n        /* \"#utility.yul\":901:997   */\n      swap2\n      swap1\n      pop\n      jump\t// out\n        /* \"#utility.yul\":1003:1125   */\n    tag_153:\n        /* \"#utility.yul\":1076:1100   */\n      tag_229\n        /* \"#utility.yul\":1094:1099   */\n      dup2\n        /* \"#utility.yul\":1076:1100   */\n      tag_152\n      jump\t// in\n    tag_229:\n        /* \"#utility.yul\":1069:1074   */\n      dup2\n        /* \"#utility.yul\":1066:1101   */\n      eq\n        /* \"#utility.yul\":1056:1119   */\n      tag_230\n      jumpi\n        /* \"#utility.yul\":1115:1116   */\n      0x00\n        /* \"#utility.yul\":1112:1113   */\n      0x00\n        /* \"#utility.yul\":1105:1117   */\n      revert\n        /* \"#utility.yul\":1056:1119   */\n    tag_230:\n        /* \"#utility.yul\":1003:1125   */\n      pop\n      jump\t// out\n        /* \"#utility.yul\":1131:1270   */\n    tag_154:\n        /* \"#utility.yul\":1177:1182   */\n      0x00\n        /* \"#utility.yul\":1215:1221   */\n      dup2\n        /* \"#utility.yul\":1202:1222   */\n      calldataload\n        /* \"#utility.yul\":1193:1222   */\n      swap1\n      pop\n        /* \"#utility.yul\":1231:1264   */\n      tag_232\n        /* \"#utility.yul\":1258:1263   */\n      dup2\n        /* \"#utility.yul\":1231:1264   */\n      tag_153\n      jump\t// in\n    tag_232:\n        /* \"#utility.yul\":1131:1270   */\n      swap3\n      swap2\n      pop\n      pop\n      jump\t// out\n        /* \"#utility.yul\":1276:1605   */\n    tag_18:\n        /* \"#utility.yul\":1335:1341   */\n      0x00\n        /* \"#utility.yul\":1384:1386   */\n      0x20\n        /* \"#utility.yul\":1372:1381   */\n      dup3\n        /* \"#utility.yul\":1363:1370   */\n      dup5\n        /* \"#utility.yul\":1359:1382   */\n      sub\n        /* \"#utility.yul\":1355:1387   */\n      slt\n        /* \"#utility.yul\":1352:1471   */\n      iszero\n      tag_234\n      jumpi\n        /* \"#utility.yul\":1390:1469   */\n      tag_235\n      tag_149\n      jump\t// in\n    tag_235:\n        /* \"#utility.yul\":1352:1471   */\n    tag_234:\n        /* \"#utility.yul\":1510:1511   */\n      0x00\n        /* \"#utility.yul\":1535:1588   */\n      tag_236\n        /* \"#utility.yul\":1580:1587   */\n      dup5\n        /* \"#utility.yul\":1571:1577   */\n      dup3\n        /* \"#utility.yul\":1560:1569   */\n      dup6\n        /* \"#utility.yul\":1556:1578   */\n      add\n        /* \"#utility.yul\":1535:1588   */\n      tag_154\n      jump\t// in\n    tag_236:\n        /* \"#utility.yul\":1525:1588   */\n      swap2\n      pop\n        /* \"#utility.yul\":1481:1598   */\n      pop\n        /* \"#utility.yul\":1276:1605   */\n      swap3\n      swap2\n      pop\n      pop\n      jump\t// out\n        /* \"#utility.yul\":1611:1715   */\n    tag_155:\n        /* \"#utility.yul\":1656:1663   */\n      0x00\n        /* \"#utility.yul\":1685:1709   */\n      tag_238\n        /* \"#utility.yul\":1703:1708   */\n      dup3\n        /* \"#utility.yul\":1685:1709   */\n      tag_151\n      jump\t// in\n    tag_238:\n        /* \"#utility.yul\":1674:1709   */\n      swap1\n      pop\n        /* \"#utility.yul\":1611:1715   */\n      swap2\n      swap1\n      pop\n      jump\t// out\n        /* \"#utility.yul\":1721:1859   */\n    tag_156:\n        /* \"#utility.yul\":1802:1834   */\n      tag_240\n        /* \"#utility.yul\":1828:1833   */\n      dup2\n        /* \"#utility.yul\":1802:1834   */\n      tag_155\n      jump\t// in\n    tag_240:\n        /* \"#utility.yul\":1795:1800   */\n      dup2\n        /* \"#utility.yul\":1792:1835   */\n      eq\n        /* \"#utility.yul\":1782:1853   */\n      tag_241\n      jumpi\n        /* \"#utility.yul\":1849:1850   */\n      0x00\n        /* \"#utility.yul\":1846:1847   */\n      0x00\n        /* \"#utility.yul\":1839:1851   */\n      revert\n        /* \"#utility.yul\":1782:1853   */\n    tag_241:\n        /* \"#utility.yul\":1721:1859   */\n      pop\n      jump\t// out\n        /* \"#utility.yul\":1865:2020   */\n    tag_157:\n        /* \"#utility.yul\":1919:1924   */\n      0x00\n        /* \"#utility.yul\":1957:1963   */\n      dup2\n        /* \"#utility.yul\":1944:1964   */\n      calldataload\n        /* \"#utility.yul\":1935:1964   */\n      swap1\n      pop\n        /* \"#utility.yul\":1973:2014   */\n      tag_243\n        /* \"#utility.yul\":2008:2013   */\n      dup2\n        /* \"#utility.yul\":1973:2014   */\n      tag_156\n      jump\t// in\n    tag_243:\n        /* \"#utility.yul\":1865:2020   */\n      swap3\n      swap2\n      pop\n      pop\n      jump\t// out\n        /* \"#utility.yul\":2026:2143   */\n    tag_158:\n        /* \"#utility.yul\":2135:2136   */\n      0x00\n        /* \"#utility.yul\":2132:2133   */\n      0x00\n        /* \"#utility.yul\":2125:2137   */\n      revert\n        /* \"#utility.yul\":2149:2266   */\n    tag_159:\n        /* \"#utility.yul\":2258:2259   */\n      0x00\n        /* \"#utility.yul\":2255:2256   */\n      0x00\n        /* \"#utility.yul\":2248:2260   */\n      revert\n        /* \"#utility.yul\":2272:2374   */\n    tag_160:\n        /* \"#utility.yul\":2313:2319   */\n      0x00\n        /* \"#utility.yul\":2364:2366   */\n      0x1f\n        /* \"#utility.yul\":2360:2367   */\n      not\n        /* \"#utility.yul\":2355:2357   */\n      0x1f\n        /* \"#utility.yul\":2348:2353   */\n      dup4\n        /* \"#utility.yul\":2344:2358   */\n      add\n        /* \"#utility.yul\":2340:2368   */\n      and\n        /* \"#utility.yul\":2330:2368   */\n      swap1\n      pop\n        /* \"#utility.yul\":2272:2374   */\n      swap2\n      swap1\n      pop\n      jump\t// out\n        /* \"#utility.yul\":2380:2560   */\n    tag_161:\n        /* \"#utility.yul\":2428:2505   */\n      0x4e487b7100000000000000000000000000000000000000000000000000000000\n        /* \"#utility.yul\":2425:2426   */\n      0x00\n        /* \"#utility.yul\":2418:2506   */\n      mstore\n        /* \"#utility.yul\":2525:2529   */\n      0x41\n        /* \"#utility.yul\":2522:2523   */\n      0x04\n        /* \"#utility.yul\":2515:2530   */\n      mstore\n        /* \"#utility.yul\":2549:2553   */\n      0x24\n        /* \"#utility.yul\":2546:2547   */\n      0x00\n        /* \"#utility.yul\":2539:2554   */\n      revert\n        /* \"#utility.yul\":2566:2847   */\n    tag_162:\n        /* \"#utility.yul\":2649:2676   */\n      tag_249\n        /* \"#utility.yul\":2671:2675   */\n      dup3\n        /* \"#utility.yul\":2649:2676   */\n      tag_160\n      jump\t// in\n    tag_249:\n        /* \"#utility.yul\":2641:2647   */\n      dup2\n        /* \"#utility.yul\":2637:2677   */\n      add\n        /* \"#utility.yul\":2779:2785   */\n      dup2\n        /* \"#utility.yul\":2767:2777   */\n      dup2\n        /* \"#utility.yul\":2764:2786   */\n      lt\n        /* \"#utility.yul\":2743:2761   */\n      0xffffffffffffffff\n        /* \"#utility.yul\":2731:2741   */\n      dup3\n        /* \"#utility.yul\":2728:2762   */\n      gt\n        /* \"#utility.yul\":2725:2787   */\n      or\n        /* \"#utility.yul\":2722:2810   */\n      iszero\n      tag_250\n      jumpi\n        /* \"#utility.yul\":2790:2808   */\n      tag_251\n      tag_161\n      jump\t// in\n    tag_251:\n        /* \"#utility.yul\":2722:2810   */\n    tag_250:\n        /* \"#utility.yul\":2830:2840   */\n      dup1\n        /* \"#utility.yul\":2826:2828   */\n      0x40\n        /* \"#utility.yul\":2819:2841   */\n      mstore\n        /* \"#utility.yul\":2609:2847   */\n      pop\n        /* \"#utility.yul\":2566:2847   */\n      pop\n      pop\n      jump\t// out\n        /* \"#utility.yul\":2853:2982   */\n    tag_163:\n        /* \"#utility.yul\":2887:2893   */\n      0x00\n        /* \"#utility.yul\":2914:2934   */\n      tag_253\n      tag_148\n      jump\t// in\n    tag_253:\n        /* \"#utility.yul\":2904:2934   */\n      swap1\n      pop\n        /* \"#utility.yul\":2943:2976   */\n      tag_254\n        /* \"#utility.yul\":2971:2975   */\n      dup3\n        /* \"#utility.yul\":2963:2969   */\n      dup3\n        /* \"#utility.yul\":2943:2976   */\n      tag_162\n      jump\t// in\n    tag_254:\n        /* \"#utility.yul\":2853:2982   */\n      swap2\n      swap1\n      pop\n      jump\t// out\n        /* \"#utility.yul\":2988:3296   */\n    tag_164:\n        /* \"#utility.yul\":3050:3054   */\n      0x00\n        /* \"#utility.yul\":3140:3158   */\n      0xffffffffffffffff\n        /* \"#utility.yul\":3132:3138   */\n      dup3\n        /* \"#utility.yul\":3129:3159   */\n      gt\n        /* \"#utility.yul\":3126:3182   */\n      iszero\n      tag_256\n      jumpi\n        /* \"#utility.yul\":3162:3180   */\n      tag_257\n      tag_161\n      jump\t// in\n    tag_257:\n        /* \"#utility.yul\":3126:3182   */\n    tag_256:\n        /* \"#utility.yul\":3200:3229   */\n      tag_258\n        /* \"#utility.yul\":3222:3228   */\n      dup3\n        /* \"#utility.yul\":3200:3229   */\n      tag_160\n      jump\t// in\n    tag_258:\n        /* \"#utility.yul\":3192:3229   */\n      swap1\n      pop\n        /* \"#utility.yul\":3284:3288   */\n      0x20\n        /* \"#utility.yul\":3278:3282   */\n      dup2\n        /* \"#utility.yul\":3274:3289   */\n      add\n        /* \"#utility.yul\":3266:3289   */\n      swap1\n      pop\n        /* \"#utility.yul\":2988:3296   */\n      swap2\n      swap1\n      pop\n      jump\t// out\n        /* \"#utility.yul\":3302:3450   */\n    tag_165:\n        /* \"#utility.yul\":3400:3406   */\n      dup3\n        /* \"#utility.yul\":3395:3398   */\n      dup2\n        /* \"#utility.yul\":3390:3393   */\n      dup4\n        /* \"#utility.yul\":3377:3407   */\n      calldatacopy\n        /* \"#utility.yul\":3441:3442   */\n      0x00\n        /* \"#utility.yul\":3432:3438   */\n      dup4\n        /* \"#utility.yul\":3427:3430   */\n      dup4\n        /* \"#utility.yul\":3423:3439   */\n      add\n        /* \"#utility.yul\":3416:3443   */\n      mstore\n        /* \"#utility.yul\":3302:3450   */\n      pop\n      pop\n      pop\n      jump\t// out\n        /* \"#utility.yul\":3456:3881   */\n    tag_166:\n        /* \"#utility.yul\":3534:3539   */\n      0x00\n        /* \"#utility.yul\":3559:3625   */\n      tag_261\n        /* \"#utility.yul\":3575:3624   */\n      tag_262\n        /* \"#utility.yul\":3617:3623   */\n      dup5\n        /* \"#utility.yul\":3575:3624   */\n      tag_164\n      jump\t// in\n    tag_262:\n        /* \"#utility.yul\":3559:3625   */\n      tag_163\n      jump\t// in\n    tag_261:\n        /* \"#utility.yul\":3550:3625   */\n      swap1\n      pop\n        /* \"#utility.yul\":3648:3654   */\n      dup3\n        /* \"#utility.yul\":3641:3646   */\n      dup2\n        /* \"#utility.yul\":3634:3655   */\n      mstore\n        /* \"#utility.yul\":3686:3690   */\n      0x20\n        /* \"#utility.yul\":3679:3684   */\n      dup2\n        /* \"#utility.yul\":3675:3691   */\n      add\n        /* \"#utility.yul\":3724:3727   */\n      dup5\n        /* \"#utility.yul\":3715:3721   */\n      dup5\n        /* \"#utility.yul\":3710:3713   */\n      dup5\n        /* \"#utility.yul\":3706:3722   */\n      add\n        /* \"#utility.yul\":3703:3728   */\n      gt\n        /* \"#utility.yul\":3700:3812   */\n      iszero\n      tag_263\n      jumpi\n        /* \"#utility.yul\":3731:3810   */\n      tag_264\n      tag_159\n      jump\t// in\n    tag_264:\n        /* \"#utility.yul\":3700:3812   */\n    tag_263:\n        /* \"#utility.yul\":3821:3875   */\n      tag_265\n        /* \"#utility.yul\":3868:3874   */\n      dup5\n        /* \"#utility.yul\":3863:3866   */\n      dup3\n        /* \"#utility.yul\":3858:3861   */\n      dup6\n        /* \"#utility.yul\":3821:3875   */\n      tag_165\n      jump\t// in\n    tag_265:\n        /* \"#utility.yul\":3540:3881   */\n      pop\n        /* \"#utility.yul\":3456:3881   */\n      swap4\n      swap3\n      pop\n      pop\n      pop\n      jump\t// out\n        /* \"#utility.yul\":3901:4241   */\n    tag_167:\n        /* \"#utility.yul\":3957:3962   */\n      0x00\n        /* \"#utility.yul\":4006:4009   */\n      dup3\n        /* \"#utility.yul\":3999:4003   */\n      0x1f\n        /* \"#utility.yul\":3991:3997   */\n      dup4\n        /* \"#utility.yul\":3987:4004   */\n      add\n        /* \"#utility.yul\":3983:4010   */\n      slt\n        /* \"#utility.yul\":3973:4095   */\n      tag_267\n      jumpi\n        /* \"#utility.yul\":4014:4093   */\n      tag_268\n      tag_158\n      jump\t// in\n    tag_268:\n        /* \"#utility.yul\":3973:4095   */\n    tag_267:\n        /* \"#utility.yul\":4131:4137   */\n      dup2\n        /* \"#utility.yul\":4118:4138   */\n      calldataload\n        /* \"#utility.yul\":4156:4235   */\n      tag_269\n        /* \"#utility.yul\":4231:4234   */\n      dup5\n        /* \"#utility.yul\":4223:4229   */\n      dup3\n        /* \"#utility.yul\":4216:4220   */\n      0x20\n        /* \"#utility.yul\":4208:4214   */\n      dup7\n        /* \"#utility.yul\":4204:4221   */\n      add\n        /* \"#utility.yul\":4156:4235   */\n      tag_166\n      jump\t// in\n    tag_269:\n        /* \"#utility.yul\":4147:4235   */\n      swap2\n      pop\n        /* \"#utility.yul\":3963:4241   */\n      pop\n        /* \"#utility.yul\":3901:4241   */\n      swap3\n      swap2\n      pop\n      pop\n      jump\t// out\n        /* \"#utility.yul\":4247:4369   */\n    tag_168:\n        /* \"#utility.yul\":4320:4344   */\n      tag_271\n        /* \"#utility.yul\":4338:4343   */\n      dup2\n        /* \"#utility.yul\":4320:4344   */\n      tag_146\n      jump\t// in\n    tag_271:\n        /* \"#utility.yul\":4313:4318   */\n      dup2\n        /* \"#utility.yul\":4310:4345   */\n      eq\n        /* \"#utility.yul\":4300:4363   */\n      tag_272\n      jumpi\n        /* \"#utility.yul\":4359:4360   */\n      0x00\n        /* \"#utility.yul\":4356:4357   */\n      0x00\n        /* \"#utility.yul\":4349:4361   */\n      revert\n        /* \"#utility.yul\":4300:4363   */\n    tag_272:\n        /* \"#utility.yul\":4247:4369   */\n      pop\n      jump\t// out\n        /* \"#utility.yul\":4375:4514   */\n    tag_169:\n        /* \"#utility.yul\":4421:4426   */\n      0x00\n        /* \"#utility.yul\":4459:4465   */\n      dup2\n        /* \"#utility.yul\":4446:4466   */\n      calldataload\n        /* \"#utility.yul\":4437:4466   */\n      swap1\n      pop\n        /* \"#utility.yul\":4475:4508   */\n      tag_274\n        /* \"#utility.yul\":4502:4507   */\n      dup2\n        /* \"#utility.yul\":4475:4508   */\n      tag_168\n      jump\t// in\n    tag_274:\n        /* \"#utility.yul\":4375:4514   */\n      swap3\n      swap2\n      pop\n      pop\n      jump\t// out\n        /* \"#utility.yul\":4520:5335   */\n    tag_32:\n        /* \"#utility.yul\":4615:4621   */\n      0x00\n        /* \"#utility.yul\":4623:4629   */\n      0x00\n        /* \"#utility.yul\":4631:4637   */\n      0x00\n        /* \"#utility.yul\":4680:4682   */\n      0x60\n        /* \"#utility.yul\":4668:4677   */\n      dup5\n        /* \"#utility.yul\":4659:4666   */\n      dup7\n        /* \"#utility.yul\":4655:4678   */\n      sub\n        /* \"#utility.yul\":4651:4683   */\n      slt\n        /* \"#utility.yul\":4648:4767   */\n      iszero\n      tag_276\n      jumpi\n        /* \"#utility.yul\":4686:4765   */\n      tag_277\n      tag_149\n      jump\t// in\n    tag_277:\n        /* \"#utility.yul\":4648:4767   */\n    tag_276:\n        /* \"#utility.yul\":4806:4807   */\n      0x00\n        /* \"#utility.yul\":4831:4892   */\n      tag_278\n        /* \"#utility.yul\":4884:4891   */\n      dup7\n        /* \"#utility.yul\":4875:4881   */\n      dup3\n        /* \"#utility.yul\":4864:4873   */\n      dup8\n        /* \"#utility.yul\":4860:4882   */\n      add\n        /* \"#utility.yul\":4831:4892   */\n      tag_157\n      jump\t// in\n    tag_278:\n        /* \"#utility.yul\":4821:4892   */\n      swap4\n      pop\n        /* \"#utility.yul\":4777:4902   */\n      pop\n        /* \"#utility.yul\":4969:4971   */\n      0x20\n        /* \"#utility.yul\":4958:4967   */\n      dup5\n        /* \"#utility.yul\":4954:4972   */\n      add\n        /* \"#utility.yul\":4941:4973   */\n      calldataload\n        /* \"#utility.yul\":5000:5018   */\n      0xffffffffffffffff\n        /* \"#utility.yul\":4992:4998   */\n      dup2\n        /* \"#utility.yul\":4989:5019   */\n      gt\n        /* \"#utility.yul\":4986:5103   */\n      iszero\n      tag_279\n      jumpi\n        /* \"#utility.yul\":5022:5101   */\n      tag_280\n      tag_150\n      jump\t// in\n    tag_280:\n        /* \"#utility.yul\":4986:5103   */\n    tag_279:\n        /* \"#utility.yul\":5127:5190   */\n      tag_281\n        /* \"#utility.yul\":5182:5189   */\n      dup7\n        /* \"#utility.yul\":5173:5179   */\n      dup3\n        /* \"#utility.yul\":5162:5171   */\n      dup8\n        /* \"#utility.yul\":5158:5180   */\n      add\n        /* \"#utility.yul\":5127:5190   */\n      tag_167\n      jump\t// in\n    tag_281:\n        /* \"#utility.yul\":5117:5190   */\n      swap3\n      pop\n        /* \"#utility.yul\":4912:5200   */\n      pop\n        /* \"#utility.yul\":5239:5241   */\n      0x40\n        /* \"#utility.yul\":5265:5318   */\n      tag_282\n        /* \"#utility.yul\":5310:5317   */\n      dup7\n        /* \"#utility.yul\":5301:5307   */\n      dup3\n        /* \"#utility.yul\":5290:5299   */\n      dup8\n        /* \"#utility.yul\":5286:5308   */\n      add\n        /* \"#utility.yul\":5265:5318   */\n      tag_169\n      jump\t// in\n    tag_282:\n        /* \"#utility.yul\":5255:5318   */\n      swap2\n      pop\n        /* \"#utility.yul\":5210:5328   */\n      pop\n        /* \"#utility.yul\":4520:5335   */\n      swap3\n      pop\n      swap3\n      pop\n      swap3\n      jump\t// out\n        /* \"#utility.yul\":5341:5479   */\n    tag_170:\n        /* \"#utility.yul\":5432:5438   */\n      0x00\n        /* \"#utility.yul\":5466:5471   */\n      dup2\n        /* \"#utility.yul\":5460:5472   */\n      mload\n        /* \"#utility.yul\":5450:5472   */\n      swap1\n      pop\n        /* \"#utility.yul\":5341:5479   */\n      swap2\n      swap1\n      pop\n      jump\t// out\n        /* \"#utility.yul\":5485:5693   */\n    tag_171:\n        /* \"#utility.yul\":5608:5619   */\n      0x00\n        /* \"#utility.yul\":5642:5648   */\n      dup3\n        /* \"#utility.yul\":5637:5640   */\n      dup3\n        /* \"#utility.yul\":5630:5649   */\n      mstore\n        /* \"#utility.yul\":5682:5686   */\n      0x20\n        /* \"#utility.yul\":5677:5680   */\n      dup3\n        /* \"#utility.yul\":5673:5687   */\n      add\n        /* \"#utility.yul\":5658:5687   */\n      swap1\n      pop\n        /* \"#utility.yul\":5485:5693   */\n      swap3\n      swap2\n      pop\n      pop\n      jump\t// out\n        /* \"#utility.yul\":5699:5855   */\n    tag_172:\n        /* \"#utility.yul\":5790:5794   */\n      0x00\n        /* \"#utility.yul\":5813:5816   */\n      dup2\n        /* \"#utility.yul\":5805:5816   */\n      swap1\n      pop\n        /* \"#utility.yul\":5843:5847   */\n      0x20\n        /* \"#utility.yul\":5838:5841   */\n      dup3\n        /* \"#utility.yul\":5834:5848   */\n      add\n        /* \"#utility.yul\":5826:5848   */\n      swap1\n      pop\n        /* \"#utility.yul\":5699:5855   */\n      swap2\n      swap1\n      pop\n      jump\t// out\n        /* \"#utility.yul\":5861:5993   */\n    tag_173:\n        /* \"#utility.yul\":5954:5986   */\n      tag_287\n        /* \"#utility.yul\":5980:5985   */\n      dup2\n        /* \"#utility.yul\":5954:5986   */\n      tag_155\n      jump\t// in\n    tag_287:\n        /* \"#utility.yul\":5949:5952   */\n      dup3\n        /* \"#utility.yul\":5942:5987   */\n      mstore\n        /* \"#utility.yul\":5861:5993   */\n      pop\n      pop\n      jump\t// out\n        /* \"#utility.yul\":5999:6098   */\n    tag_174:\n        /* \"#utility.yul\":6051:6057   */\n      0x00\n        /* \"#utility.yul\":6085:6090   */\n      dup2\n        /* \"#utility.yul\":6079:6091   */\n      mload\n        /* \"#utility.yul\":6069:6091   */\n      swap1\n      pop\n        /* \"#utility.yul\":5999:6098   */\n      swap2\n      swap1\n      pop\n      jump\t// out\n        /* \"#utility.yul\":6104:6263   */\n    tag_175:\n        /* \"#utility.yul\":6178:6189   */\n      0x00\n        /* \"#utility.yul\":6212:6218   */\n      dup3\n        /* \"#utility.yul\":6207:6210   */\n      dup3\n        /* \"#utility.yul\":6200:6219   */\n      mstore\n        /* \"#utility.yul\":6252:6256   */\n      0x20\n        /* \"#utility.yul\":6247:6250   */\n      dup3\n        /* \"#utility.yul\":6243:6257   */\n      add\n        /* \"#utility.yul\":6228:6257   */\n      swap1\n      pop\n        /* \"#utility.yul\":6104:6263   */\n      swap3\n      swap2\n      pop\n      pop\n      jump\t// out\n        /* \"#utility.yul\":6269:6408   */\n    tag_176:\n        /* \"#utility.yul\":6358:6364   */\n      dup3\n        /* \"#utility.yul\":6353:6356   */\n      dup2\n        /* \"#utility.yul\":6348:6351   */\n      dup4\n        /* \"#utility.yul\":6342:6365   */\n      mcopy\n        /* \"#utility.yul\":6399:6400   */\n      0x00\n        /* \"#utility.yul\":6390:6396   */\n      dup4\n        /* \"#utility.yul\":6385:6388   */\n      dup4\n        /* \"#utility.yul\":6381:6397   */\n      add\n        /* \"#utility.yul\":6374:6401   */\n      mstore\n        /* \"#utility.yul\":6269:6408   */\n      pop\n      pop\n      pop\n      jump\t// out\n        /* \"#utility.yul\":6414:6771   */\n    tag_177:\n        /* \"#utility.yul\":6492:6495   */\n      0x00\n        /* \"#utility.yul\":6520:6559   */\n      tag_292\n        /* \"#utility.yul\":6553:6558   */\n      dup3\n        /* \"#utility.yul\":6520:6559   */\n      tag_174\n      jump\t// in\n    tag_292:\n        /* \"#utility.yul\":6575:6636   */\n      tag_293\n        /* \"#utility.yul\":6629:6635   */\n      dup2\n        /* \"#utility.yul\":6624:6627   */\n      dup6\n        /* \"#utility.yul\":6575:6636   */\n      tag_175\n      jump\t// in\n    tag_293:\n        /* \"#utility.yul\":6568:6636   */\n      swap4\n      pop\n        /* \"#utility.yul\":6645:6710   */\n      tag_294\n        /* \"#utility.yul\":6703:6709   */\n      dup2\n        /* \"#utility.yul\":6698:6701   */\n      dup6\n        /* \"#utility.yul\":6691:6695   */\n      0x20\n        /* \"#utility.yul\":6684:6689   */\n      dup7\n        /* \"#utility.yul\":6680:6696   */\n      add\n        /* \"#utility.yul\":6645:6710   */\n      tag_176\n      jump\t// in\n    tag_294:\n        /* \"#utility.yul\":6735:6764   */\n      tag_295\n        /* \"#utility.yul\":6757:6763   */\n      dup2\n        /* \"#utility.yul\":6735:6764   */\n      tag_160\n      jump\t// in\n    tag_295:\n        /* \"#utility.yul\":6730:6733   */\n      dup5\n        /* \"#utility.yul\":6726:6765   */\n      add\n        /* \"#utility.yul\":6719:6765   */\n      swap2\n      pop\n        /* \"#utility.yul\":6496:6771   */\n      pop\n        /* \"#utility.yul\":6414:6771   */\n      swap3\n      swap2\n      pop\n      pop\n      jump\t// out\n        /* \"#utility.yul\":6777:6885   */\n    tag_178:\n        /* \"#utility.yul\":6854:6878   */\n      tag_297\n        /* \"#utility.yul\":6872:6877   */\n      dup2\n        /* \"#utility.yul\":6854:6878   */\n      tag_146\n      jump\t// in\n    tag_297:\n        /* \"#utility.yul\":6849:6852   */\n      dup3\n        /* \"#utility.yul\":6842:6879   */\n      mstore\n        /* \"#utility.yul\":6777:6885   */\n      pop\n      pop\n      jump\t// out\n        /* \"#utility.yul\":6943:7739   */\n    tag_179:\n        /* \"#utility.yul\":7050:7053   */\n      0x00\n        /* \"#utility.yul\":7086:7090   */\n      0x60\n        /* \"#utility.yul\":7081:7084   */\n      dup4\n        /* \"#utility.yul\":7077:7091   */\n      add\n        /* \"#utility.yul\":7182:7186   */\n      0x00\n        /* \"#utility.yul\":7175:7180   */\n      dup4\n        /* \"#utility.yul\":7171:7187   */\n      add\n        /* \"#utility.yul\":7165:7188   */\n      mload\n        /* \"#utility.yul\":7201:7280   */\n      tag_299\n        /* \"#utility.yul\":7274:7278   */\n      0x00\n        /* \"#utility.yul\":7269:7272   */\n      dup7\n        /* \"#utility.yul\":7265:7279   */\n      add\n        /* \"#utility.yul\":7251:7263   */\n      dup3\n        /* \"#utility.yul\":7201:7280   */\n      tag_173\n      jump\t// in\n    tag_299:\n        /* \"#utility.yul\":7101:7290   */\n      pop\n        /* \"#utility.yul\":7372:7376   */\n      0x20\n        /* \"#utility.yul\":7365:7370   */\n      dup4\n        /* \"#utility.yul\":7361:7377   */\n      add\n        /* \"#utility.yul\":7355:7378   */\n      mload\n        /* \"#utility.yul\":7425:7428   */\n      dup5\n        /* \"#utility.yul\":7419:7423   */\n      dup3\n        /* \"#utility.yul\":7415:7429   */\n      sub\n        /* \"#utility.yul\":7408:7412   */\n      0x20\n        /* \"#utility.yul\":7403:7406   */\n      dup7\n        /* \"#utility.yul\":7399:7413   */\n      add\n        /* \"#utility.yul\":7392:7430   */\n      mstore\n        /* \"#utility.yul\":7451:7524   */\n      tag_300\n        /* \"#utility.yul\":7519:7523   */\n      dup3\n        /* \"#utility.yul\":7505:7517   */\n      dup3\n        /* \"#utility.yul\":7451:7524   */\n      tag_177\n      jump\t// in\n    tag_300:\n        /* \"#utility.yul\":7443:7524   */\n      swap2\n      pop\n        /* \"#utility.yul\":7300:7535   */\n      pop\n        /* \"#utility.yul\":7620:7624   */\n      0x40\n        /* \"#utility.yul\":7613:7618   */\n      dup4\n        /* \"#utility.yul\":7609:7625   */\n      add\n        /* \"#utility.yul\":7603:7626   */\n      mload\n        /* \"#utility.yul\":7639:7702   */\n      tag_301\n        /* \"#utility.yul\":7696:7700   */\n      0x40\n        /* \"#utility.yul\":7691:7694   */\n      dup7\n        /* \"#utility.yul\":7687:7701   */\n      add\n        /* \"#utility.yul\":7673:7685   */\n      dup3\n        /* \"#utility.yul\":7639:7702   */\n      tag_178\n      jump\t// in\n    tag_301:\n        /* \"#utility.yul\":7545:7712   */\n      pop\n        /* \"#utility.yul\":7729:7733   */\n      dup1\n        /* \"#utility.yul\":7722:7733   */\n      swap2\n      pop\n        /* \"#utility.yul\":7055:7739   */\n      pop\n        /* \"#utility.yul\":6943:7739   */\n      swap3\n      swap2\n      pop\n      pop\n      jump\t// out\n        /* \"#utility.yul\":7745:7997   */\n    tag_180:\n        /* \"#utility.yul\":7862:7872   */\n      0x00\n        /* \"#utility.yul\":7897:7991   */\n      tag_303\n        /* \"#utility.yul\":7987:7990   */\n      dup4\n        /* \"#utility.yul\":7979:7985   */\n      dup4\n        /* \"#utility.yul\":7897:7991   */\n      tag_179\n      jump\t// in\n    tag_303:\n        /* \"#utility.yul\":7883:7991   */\n      swap1\n      pop\n        /* \"#utility.yul\":7745:7997   */\n      swap3\n      swap2\n      pop\n      pop\n      jump\t// out\n        /* \"#utility.yul\":8003:8140   */\n    tag_181:\n        /* \"#utility.yul\":8097:8101   */\n      0x00\n        /* \"#utility.yul\":8129:8133   */\n      0x20\n        /* \"#utility.yul\":8124:8127   */\n      dup3\n        /* \"#utility.yul\":8120:8134   */\n      add\n        /* \"#utility.yul\":8112:8134   */\n      swap1\n      pop\n        /* \"#utility.yul\":8003:8140   */\n      swap2\n      swap1\n      pop\n      jump\t// out\n        /* \"#utility.yul\":8202:9305   */\n    tag_182:\n        /* \"#utility.yul\":8369:8372   */\n      0x00\n        /* \"#utility.yul\":8398:8476   */\n      tag_306\n        /* \"#utility.yul\":8470:8475   */\n      dup3\n        /* \"#utility.yul\":8398:8476   */\n      tag_170\n      jump\t// in\n    tag_306:\n        /* \"#utility.yul\":8492:8602   */\n      tag_307\n        /* \"#utility.yul\":8595:8601   */\n      dup2\n        /* \"#utility.yul\":8590:8593   */\n      dup6\n        /* \"#utility.yul\":8492:8602   */\n      tag_171\n      jump\t// in\n    tag_307:\n        /* \"#utility.yul\":8485:8602   */\n      swap4\n      pop\n        /* \"#utility.yul\":8628:8631   */\n      dup4\n        /* \"#utility.yul\":8673:8677   */\n      0x20\n        /* \"#utility.yul\":8665:8671   */\n      dup3\n        /* \"#utility.yul\":8661:8678   */\n      mul\n        /* \"#utility.yul\":8656:8659   */\n      dup6\n        /* \"#utility.yul\":8652:8679   */\n      add\n        /* \"#utility.yul\":8703:8783   */\n      tag_308\n        /* \"#utility.yul\":8777:8782   */\n      dup6\n        /* \"#utility.yul\":8703:8783   */\n      tag_172\n      jump\t// in\n    tag_308:\n        /* \"#utility.yul\":8806:8813   */\n      dup1\n        /* \"#utility.yul\":8837:8838   */\n      0x00\n        /* \"#utility.yul\":8822:9260   */\n    tag_309:\n        /* \"#utility.yul\":8847:8853   */\n      dup6\n        /* \"#utility.yul\":8844:8845   */\n      dup2\n        /* \"#utility.yul\":8841:8854   */\n      lt\n        /* \"#utility.yul\":8822:9260   */\n      iszero\n      tag_311\n      jumpi\n        /* \"#utility.yul\":8918:8927   */\n      dup5\n        /* \"#utility.yul\":8912:8916   */\n      dup5\n        /* \"#utility.yul\":8908:8928   */\n      sub\n        /* \"#utility.yul\":8903:8906   */\n      dup10\n        /* \"#utility.yul\":8896:8929   */\n      mstore\n        /* \"#utility.yul\":8969:8975   */\n      dup2\n        /* \"#utility.yul\":8963:8976   */\n      mload\n        /* \"#utility.yul\":8997:9109   */\n      tag_312\n        /* \"#utility.yul\":9104:9108   */\n      dup6\n        /* \"#utility.yul\":9089:9102   */\n      dup3\n        /* \"#utility.yul\":8997:9109   */\n      tag_180\n      jump\t// in\n    tag_312:\n        /* \"#utility.yul\":8989:9109   */\n      swap5\n      pop\n        /* \"#utility.yul\":9132:9216   */\n      tag_313\n        /* \"#utility.yul\":9209:9215   */\n      dup4\n        /* \"#utility.yul\":9132:9216   */\n      tag_181\n      jump\t// in\n    tag_313:\n        /* \"#utility.yul\":9122:9216   */\n      swap3\n      pop\n        /* \"#utility.yul\":9245:9249   */\n      0x20\n        /* \"#utility.yul\":9240:9243   */\n      dup11\n        /* \"#utility.yul\":9236:9250   */\n      add\n        /* \"#utility.yul\":9229:9250   */\n      swap10\n      pop\n        /* \"#utility.yul\":8882:9260   */\n      pop\n        /* \"#utility.yul\":8869:8870   */\n      0x01\n        /* \"#utility.yul\":8866:8867   */\n      dup2\n        /* \"#utility.yul\":8862:8871   */\n      add\n        /* \"#utility.yul\":8857:8871   */\n      swap1\n      pop\n        /* \"#utility.yul\":8822:9260   */\n      jump(tag_309)\n    tag_311:\n        /* \"#utility.yul\":8826:8840   */\n      pop\n        /* \"#utility.yul\":9276:9280   */\n      dup3\n        /* \"#utility.yul\":9269:9280   */\n      swap8\n      pop\n        /* \"#utility.yul\":9296:9299   */\n      dup8\n        /* \"#utility.yul\":9289:9299   */\n      swap6\n      pop\n        /* \"#utility.yul\":8374:9305   */\n      pop\n      pop\n      pop\n      pop\n      pop\n        /* \"#utility.yul\":8202:9305   */\n      swap3\n      swap2\n      pop\n      pop\n      jump\t// out\n        /* \"#utility.yul\":9311:9780   */\n    tag_38:\n        /* \"#utility.yul\":9502:9506   */\n      0x00\n        /* \"#utility.yul\":9540:9542   */\n      0x20\n        /* \"#utility.yul\":9529:9538   */\n      dup3\n        /* \"#utility.yul\":9525:9543   */\n      add\n        /* \"#utility.yul\":9517:9543   */\n      swap1\n      pop\n        /* \"#utility.yul\":9589:9598   */\n      dup2\n        /* \"#utility.yul\":9583:9587   */\n      dup2\n        /* \"#utility.yul\":9579:9599   */\n      sub\n        /* \"#utility.yul\":9575:9576   */\n      0x00\n        /* \"#utility.yul\":9564:9573   */\n      dup4\n        /* \"#utility.yul\":9560:9577   */\n      add\n        /* \"#utility.yul\":9553:9600   */\n      mstore\n        /* \"#utility.yul\":9617:9773   */\n      tag_315\n        /* \"#utility.yul\":9768:9772   */\n      dup2\n        /* \"#utility.yul\":9759:9765   */\n      dup5\n        /* \"#utility.yul\":9617:9773   */\n      tag_182\n      jump\t// in\n    tag_315:\n        /* \"#utility.yul\":9609:9773   */\n      swap1\n      pop\n        /* \"#utility.yul\":9311:9780   */\n      swap3\n      swap2\n      pop\n      pop\n      jump\t// out\n        /* \"#utility.yul\":9786:9955   */\n    tag_183:\n        /* \"#utility.yul\":9870:9881   */\n      0x00\n        /* \"#utility.yul\":9904:9910   */\n      dup3\n        /* \"#utility.yul\":9899:9902   */\n      dup3\n        /* \"#utility.yul\":9892:9911   */\n      mstore\n        /* \"#utility.yul\":9944:9948   */\n      0x20\n        /* \"#utility.yul\":9939:9942   */\n      dup3\n        /* \"#utility.yul\":9935:9949   */\n      add\n        /* \"#utility.yul\":9920:9949   */\n      swap1\n      pop\n        /* \"#utility.yul\":9786:9955   */\n      swap3\n      swap2\n      pop\n      pop\n      jump\t// out\n        /* \"#utility.yul\":9961:10130   */\n    tag_184:\n        /* \"#utility.yul\":10101:10122   */\n      0x4f6e6c79206f776e65722063616e2063616c6c00000000000000000000000000\n        /* \"#utility.yul\":10097:10098   */\n      0x00\n        /* \"#utility.yul\":10089:10095   */\n      dup3\n        /* \"#utility.yul\":10085:10099   */\n      add\n        /* \"#utility.yul\":10078:10123   */\n      mstore\n        /* \"#utility.yul\":9961:10130   */\n      pop\n      jump\t// out\n        /* \"#utility.yul\":10136:10502   */\n    tag_185:\n        /* \"#utility.yul\":10278:10281   */\n      0x00\n        /* \"#utility.yul\":10299:10366   */\n      tag_319\n        /* \"#utility.yul\":10363:10365   */\n      0x13\n        /* \"#utility.yul\":10358:10361   */\n      dup4\n        /* \"#utility.yul\":10299:10366   */\n      tag_183\n      jump\t// in\n    tag_319:\n        /* \"#utility.yul\":10292:10366   */\n      swap2\n      pop\n        /* \"#utility.yul\":10375:10468   */\n      tag_320\n        /* \"#utility.yul\":10464:10467   */\n      dup3\n        /* \"#utility.yul\":10375:10468   */\n      tag_184\n      jump\t// in\n    tag_320:\n        /* \"#utility.yul\":10493:10495   */\n      0x20\n        /* \"#utility.yul\":10488:10491   */\n      dup3\n        /* \"#utility.yul\":10484:10496   */\n      add\n        /* \"#utility.yul\":10477:10496   */\n      swap1\n      pop\n        /* \"#utility.yul\":10136:10502   */\n      swap2\n      swap1\n      pop\n      jump\t// out\n        /* \"#utility.yul\":10508:10927   */\n    tag_43:\n        /* \"#utility.yul\":10674:10678   */\n      0x00\n        /* \"#utility.yul\":10712:10714   */\n      0x20\n        /* \"#utility.yul\":10701:10710   */\n      dup3\n        /* \"#utility.yul\":10697:10715   */\n      add\n        /* \"#utility.yul\":10689:10715   */\n      swap1\n      pop\n        /* \"#utility.yul\":10761:10770   */\n      dup2\n        /* \"#utility.yul\":10755:10759   */\n      dup2\n        /* \"#utility.yul\":10751:10771   */\n      sub\n        /* \"#utility.yul\":10747:10748   */\n      0x00\n        /* \"#utility.yul\":10736:10745   */\n      dup4\n        /* \"#utility.yul\":10732:10749   */\n      add\n        /* \"#utility.yul\":10725:10772   */\n      mstore\n        /* \"#utility.yul\":10789:10920   */\n      tag_322\n        /* \"#utility.yul\":10915:10919   */\n      dup2\n        /* \"#utility.yul\":10789:10920   */\n      tag_185\n      jump\t// in\n    tag_322:\n        /* \"#utility.yul\":10781:10920   */\n      swap1\n      pop\n        /* \"#utility.yul\":10508:10927   */\n      swap2\n      swap1\n      pop\n      jump\t// out\n        /* \"#utility.yul\":10933:11113   */\n    tag_51:\n        /* \"#utility.yul\":10981:11058   */\n      0x4e487b7100000000000000000000000000000000000000000000000000000000\n        /* \"#utility.yul\":10978:10979   */\n      0x00\n        /* \"#utility.yul\":10971:11059   */\n      mstore\n        /* \"#utility.yul\":11078:11082   */\n      0x32\n        /* \"#utility.yul\":11075:11076   */\n      0x04\n        /* \"#utility.yul\":11068:11083   */\n      mstore\n        /* \"#utility.yul\":11102:11106   */\n      0x24\n        /* \"#utility.yul\":11099:11100   */\n      0x00\n        /* \"#utility.yul\":11092:11107   */\n      revert\n        /* \"#utility.yul\":11119:11299   */\n    tag_186:\n        /* \"#utility.yul\":11167:11244   */\n      0x4e487b7100000000000000000000000000000000000000000000000000000000\n        /* \"#utility.yul\":11164:11165   */\n      0x00\n        /* \"#utility.yul\":11157:11245   */\n      mstore\n        /* \"#utility.yul\":11264:11268   */\n      0x11\n        /* \"#utility.yul\":11261:11262   */\n      0x04\n        /* \"#utility.yul\":11254:11269   */\n      mstore\n        /* \"#utility.yul\":11288:11292   */\n      0x24\n        /* \"#utility.yul\":11285:11286   */\n      0x00\n        /* \"#utility.yul\":11278:11293   */\n      revert\n        /* \"#utility.yul\":11305:11499   */\n    tag_58:\n        /* \"#utility.yul\":11345:11349   */\n      0x00\n        /* \"#utility.yul\":11365:11385   */\n      tag_326\n        /* \"#utility.yul\":11383:11384   */\n      dup3\n        /* \"#utility.yul\":11365:11385   */\n      tag_146\n      jump\t// in\n    tag_326:\n        /* \"#utility.yul\":11360:11385   */\n      swap2\n      pop\n        /* \"#utility.yul\":11399:11419   */\n      tag_327\n        /* \"#utility.yul\":11417:11418   */\n      dup4\n        /* \"#utility.yul\":11399:11419   */\n      tag_146\n      jump\t// in\n    tag_327:\n        /* \"#utility.yul\":11394:11419   */\n      swap3\n      pop\n        /* \"#utility.yul\":11443:11444   */\n      dup3\n        /* \"#utility.yul\":11440:11441   */\n      dup3\n        /* \"#utility.yul\":11436:11445   */\n      sub\n        /* \"#utility.yul\":11428:11445   */\n      swap1\n      pop\n        /* \"#utility.yul\":11467:11468   */\n      dup2\n        /* \"#utility.yul\":11461:11465   */\n      dup2\n        /* \"#utility.yul\":11458:11469   */\n      gt\n        /* \"#utility.yul\":11455:11492   */\n      iszero\n      tag_328\n      jumpi\n        /* \"#utility.yul\":11472:11490   */\n      tag_329\n      tag_186\n      jump\t// in\n    tag_329:\n        /* \"#utility.yul\":11455:11492   */\n    tag_328:\n        /* \"#utility.yul\":11305:11499   */\n      swap3\n      swap2\n      pop\n      pop\n      jump\t// out\n        /* \"#utility.yul\":11505:11696   */\n    tag_60:\n        /* \"#utility.yul\":11545:11548   */\n      0x00\n        /* \"#utility.yul\":11564:11584   */\n      tag_331\n        /* \"#utility.yul\":11582:11583   */\n      dup3\n        /* \"#utility.yul\":11564:11584   */\n      tag_146\n      jump\t// in\n    tag_331:\n        /* \"#utility.yul\":11559:11584   */\n      swap2\n      pop\n        /* \"#utility.yul\":11598:11618   */\n      tag_332\n        /* \"#utility.yul\":11616:11617   */\n      dup4\n        /* \"#utility.yul\":11598:11618   */\n      tag_146\n      jump\t// in\n    tag_332:\n        /* \"#utility.yul\":11593:11618   */\n      swap3\n      pop\n        /* \"#utility.yul\":11641:11642   */\n      dup3\n        /* \"#utility.yul\":11638:11639   */\n      dup3\n        /* \"#utility.yul\":11634:11643   */\n      add\n        /* \"#utility.yul\":11627:11643   */\n      swap1\n      pop\n        /* \"#utility.yul\":11662:11665   */\n      dup1\n        /* \"#utility.yul\":11659:11660   */\n      dup3\n        /* \"#utility.yul\":11656:11666   */\n      gt\n        /* \"#utility.yul\":11653:11689   */\n      iszero\n      tag_333\n      jumpi\n        /* \"#utility.yul\":11669:11687   */\n      tag_334\n      tag_186\n      jump\t// in\n    tag_334:\n        /* \"#utility.yul\":11653:11689   */\n    tag_333:\n        /* \"#utility.yul\":11505:11696   */\n      swap3\n      swap2\n      pop\n      pop\n      jump\t// out\n        /* \"#utility.yul\":11702:11882   */\n    tag_187:\n        /* \"#utility.yul\":11750:11827   */\n      0x4e487b7100000000000000000000000000000000000000000000000000000000\n        /* \"#utility.yul\":11747:11748   */\n      0x00\n        /* \"#utility.yul\":11740:11828   */\n      mstore\n        /* \"#utility.yul\":11847:11851   */\n      0x22\n        /* \"#utility.yul\":11844:11845   */\n      0x04\n        /* \"#utility.yul\":11837:11852   */\n      mstore\n        /* \"#utility.yul\":11871:11875   */\n      0x24\n        /* \"#utility.yul\":11868:11869   */\n      0x00\n        /* \"#utility.yul\":11861:11876   */\n      revert\n        /* \"#utility.yul\":11888:12208   */\n    tag_125:\n        /* \"#utility.yul\":11932:11938   */\n      0x00\n        /* \"#utility.yul\":11969:11970   */\n      0x02\n        /* \"#utility.yul\":11963:11967   */\n      dup3\n        /* \"#utility.yul\":11959:11971   */\n      div\n        /* \"#utility.yul\":11949:11971   */\n      swap1\n      pop\n        /* \"#utility.yul\":12016:12017   */\n      0x01\n        /* \"#utility.yul\":12010:12014   */\n      dup3\n        /* \"#utility.yul\":12006:12018   */\n      and\n        /* \"#utility.yul\":12037:12055   */\n      dup1\n        /* \"#utility.yul\":12027:12108   */\n      tag_337\n      jumpi\n        /* \"#utility.yul\":12093:12097   */\n      0x7f\n        /* \"#utility.yul\":12085:12091   */\n      dup3\n        /* \"#utility.yul\":12081:12098   */\n      and\n        /* \"#utility.yul\":12071:12098   */\n      swap2\n      pop\n        /* \"#utility.yul\":12027:12108   */\n    tag_337:\n        /* \"#utility.yul\":12155:12157   */\n      0x20\n        /* \"#utility.yul\":12147:12153   */\n      dup3\n        /* \"#utility.yul\":12144:12158   */\n      lt\n        /* \"#utility.yul\":12124:12142   */\n      dup2\n        /* \"#utility.yul\":12121:12159   */\n      sub\n        /* \"#utility.yul\":12118:12202   */\n      tag_338\n      jumpi\n        /* \"#utility.yul\":12174:12192   */\n      tag_339\n      tag_187\n      jump\t// in\n    tag_339:\n        /* \"#utility.yul\":12118:12202   */\n    tag_338:\n        /* \"#utility.yul\":11939:12208   */\n      pop\n        /* \"#utility.yul\":11888:12208   */\n      swap2\n      swap1\n      pop\n      jump\t// out\n        /* \"#utility.yul\":12214:12363   */\n    tag_188:\n        /* \"#utility.yul\":12263:12269   */\n      0x00\n        /* \"#utility.yul\":12297:12302   */\n      dup2\n        /* \"#utility.yul\":12291:12303   */\n      sload\n        /* \"#utility.yul\":12281:12303   */\n      swap1\n      pop\n        /* \"#utility.yul\":12323:12356   */\n      tag_341\n        /* \"#utility.yul\":12349:12355   */\n      dup2\n        /* \"#utility.yul\":12323:12356   */\n      tag_125\n      jump\t// in\n    tag_341:\n        /* \"#utility.yul\":12313:12356   */\n      swap1\n      pop\n        /* \"#utility.yul\":12214:12363   */\n      swap2\n      swap1\n      pop\n      jump\t// out\n        /* \"#utility.yul\":12369:12510   */\n    tag_189:\n        /* \"#utility.yul\":12418:12422   */\n      0x00\n        /* \"#utility.yul\":12441:12444   */\n      dup2\n        /* \"#utility.yul\":12433:12444   */\n      swap1\n      pop\n        /* \"#utility.yul\":12464:12467   */\n      dup2\n        /* \"#utility.yul\":12461:12462   */\n      0x00\n        /* \"#utility.yul\":12454:12468   */\n      mstore\n        /* \"#utility.yul\":12498:12502   */\n      0x20\n        /* \"#utility.yul\":12495:12496   */\n      0x00\n        /* \"#utility.yul\":12485:12503   */\n      keccak256\n        /* \"#utility.yul\":12477:12503   */\n      swap1\n      pop\n        /* \"#utility.yul\":12369:12510   */\n      swap2\n      swap1\n      pop\n      jump\t// out\n        /* \"#utility.yul\":12516:12609   */\n    tag_190:\n        /* \"#utility.yul\":12553:12559   */\n      0x00\n        /* \"#utility.yul\":12600:12602   */\n      0x20\n        /* \"#utility.yul\":12595:12597   */\n      0x1f\n        /* \"#utility.yul\":12588:12593   */\n      dup4\n        /* \"#utility.yul\":12584:12598   */\n      add\n        /* \"#utility.yul\":12580:12603   */\n      div\n        /* \"#utility.yul\":12570:12603   */\n      swap1\n      pop\n        /* \"#utility.yul\":12516:12609   */\n      swap2\n      swap1\n      pop\n      jump\t// out\n        /* \"#utility.yul\":12615:12722   */\n    tag_191:\n        /* \"#utility.yul\":12659:12667   */\n      0x00\n        /* \"#utility.yul\":12709:12714   */\n      dup3\n        /* \"#utility.yul\":12703:12707   */\n      dup3\n        /* \"#utility.yul\":12699:12715   */\n      shl\n        /* \"#utility.yul\":12678:12715   */\n      swap1\n      pop\n        /* \"#utility.yul\":12615:12722   */\n      swap3\n      swap2\n      pop\n      pop\n      jump\t// out\n        /* \"#utility.yul\":12728:13121   */\n    tag_192:\n        /* \"#utility.yul\":12797:12803   */\n      0x00\n        /* \"#utility.yul\":12847:12848   */\n      0x08\n        /* \"#utility.yul\":12835:12845   */\n      dup4\n        /* \"#utility.yul\":12831:12849   */\n      mul\n        /* \"#utility.yul\":12870:12967   */\n      tag_346\n        /* \"#utility.yul\":12900:12966   */\n      0xffffffffffffffffffffffffffffffffffffffffffffffffffffffffffffffff\n        /* \"#utility.yul\":12889:12898   */\n      dup3\n        /* \"#utility.yul\":12870:12967   */\n      tag_191\n      jump\t// in\n    tag_346:\n        /* \"#utility.yul\":12988:13027   */\n      tag_347\n        /* \"#utility.yul\":13018:13026   */\n      dup7\n        /* \"#utility.yul\":13007:13016   */\n      dup4\n        /* \"#utility.yul\":12988:13027   */\n      tag_191\n      jump\t// in\n    tag_347:\n        /* \"#utility.yul\":12976:13027   */\n      swap6\n      pop\n        /* \"#utility.yul\":13060:13064   */\n      dup1\n        /* \"#utility.yul\":13056:13065   */\n      not\n        /* \"#utility.yul\":13049:13054   */\n      dup5\n        /* \"#utility.yul\":13045:13066   */\n      and\n        /* \"#utility.yul\":13036:13066   */\n      swap4\n      pop\n        /* \"#utility.yul\":13109:13113   */\n      dup1\n        /* \"#utility.yul\":13099:13107   */\n      dup7\n        /* \"#utility.yul\":13095:13114   */\n      and\n        /* \"#utility.yul\":13088:13093   */\n      dup5\n        /* \"#utility.yul\":13085:13115   */\n      or\n        /* \"#utility.yul\":13075:13115   */\n      swap3\n      pop\n        /* \"#utility.yul\":12804:13121   */\n      pop\n      pop\n        /* \"#utility.yul\":12728:13121   */\n      swap4\n      swap3\n      pop\n      pop\n      pop\n      jump\t// out\n        /* \"#utility.yul\":13127:13187   */\n    tag_193:\n        /* \"#utility.yul\":13155:13158   */\n      0x00\n        /* \"#utility.yul\":13176:13181   */\n      dup2\n        /* \"#utility.yul\":13169:13181   */\n      swap1\n      pop\n        /* \"#utility.yul\":13127:13187   */\n      swap2\n      swap1\n      pop\n      jump\t// out\n        /* \"#utility.yul\":13193:13335   */\n    tag_194:\n        /* \"#utility.yul\":13243:13252   */\n      0x00\n        /* \"#utility.yul\":13276:13329   */\n      tag_350\n        /* \"#utility.yul\":13294:13328   */\n      tag_351\n        /* \"#utility.yul\":13303:13327   */\n      tag_352\n        /* \"#utility.yul\":13321:13326   */\n      dup5\n        /* \"#utility.yul\":13303:13327   */\n      tag_146\n      jump\t// in\n    tag_352:\n        /* \"#utility.yul\":13294:13328   */\n      tag_193\n      jump\t// in\n    tag_351:\n        /* \"#utility.yul\":13276:13329   */\n      tag_146\n      jump\t// in\n    tag_350:\n        /* \"#utility.yul\":13263:13329   */\n      swap1\n      pop\n        /* \"#utility.yul\":13193:13335   */\n      swap2\n      swap1\n      pop\n      jump\t// out\n        /* \"#utility.yul\":13341:13416   */\n    tag_195:\n        /* \"#utility.yul\":13384:13387   */\n      0x00\n        /* \"#utility.yul\":13405:13410   */\n      dup2\n        /* \"#utility.yul\":13398:13410   */\n      swap1\n      pop\n        /* \"#utility.yul\":13341:13416   */\n      swap2\n      swap1\n      pop\n      jump\t// out\n        /* \"#utility.yul\":13422:13691   */\n    tag_196:\n        /* \"#utility.yul\":13532:13571   */\n      tag_355\n        /* \"#utility.yul\":13563:13570   */\n      dup4\n        /* \"#utility.yul\":13532:13571   */\n      tag_194\n      jump\t// in\n    tag_355:\n        /* \"#utility.yul\":13593:13684   */\n      tag_356\n        /* \"#utility.yul\":13642:13683   */\n      tag_357\n        /* \"#utility.yul\":13666:13682   */\n      dup3\n        /* \"#utility.yul\":13642:13683   */\n      tag_195\n      jump\t// in\n    tag_357:\n        /* \"#utility.yul\":13634:13640   */\n      dup5\n        /* \"#utility.yul\":13627:13631   */\n      dup5\n        /* \"#utility.yul\":13621:13632   */\n      sload\n        /* \"#utility.yul\":13593:13684   */\n      tag_192\n      jump\t// in\n    tag_356:\n        /* \"#utility.yul\":13587:13591   */\n      dup3\n        /* \"#utility.yul\":13580:13685   */\n      sstore\n        /* \"#utility.yul\":13498:13691   */\n      pop\n        /* \"#utility.yul\":13422:13691   */\n      pop\n      pop\n      pop\n      jump\t// out\n        /* \"#utility.yul\":13697:13770   */\n    tag_197:\n        /* \"#utility.yul\":13742:13745   */\n      0x00\n        /* \"#utility.yul\":13763:13764   */\n      0x00\n        /* \"#utility.yul\":13756:13764   */\n      swap1\n      pop\n        /* \"#utility.yul\":13697:13770   */\n      swap1\n      jump\t// out\n        /* \"#utility.yul\":13776:13965   */\n    tag_198:\n        /* \"#utility.yul\":13853:13885   */\n      tag_360\n      tag_197\n      jump\t// in\n    tag_360:\n        /* \"#utility.yul\":13894:13959   */\n      tag_361\n        /* \"#utility.yul\":13952:13958   */\n      dup2\n        /* \"#utility.yul\":13944:13950   */\n      dup5\n        /* \"#utility.yul\":13938:13942   */\n      dup5\n        /* \"#utility.yul\":13894:13959   */\n      tag_196\n      jump\t// in\n    tag_361:\n        /* \"#utility.yul\":13829:13965   */\n      pop\n        /* \"#utility.yul\":13776:13965   */\n      pop\n      pop\n      jump\t// out\n        /* \"#utility.yul\":13971:14157   */\n    tag_199:\n        /* \"#utility.yul\":14031:14151   */\n    tag_363:\n        /* \"#utility.yul\":14048:14051   */\n      dup2\n        /* \"#utility.yul\":14041:14046   */\n      dup2\n        /* \"#utility.yul\":14038:14052   */\n      lt\n        /* \"#utility.yul\":14031:14151   */\n      iszero\n      tag_365\n      jumpi\n        /* \"#utility.yul\":14102:14141   */\n      tag_366\n        /* \"#utility.yul\":14139:14140   */\n      0x00\n        /* \"#utility.yul\":14132:14137   */\n      dup3\n        /* \"#utility.yul\":14102:14141   */\n      tag_198\n      jump\t// in\n    tag_366:\n        /* \"#utility.yul\":14075:14076   */\n      0x01\n        /* \"#utility.yul\":14068:14073   */\n      dup2\n        /* \"#utility.yul\":14064:14077   */\n      add\n        /* \"#utility.yul\":14055:14077   */\n      swap1\n      pop\n        /* \"#utility.yul\":14031:14151   */\n      jump(tag_363)\n    tag_365:\n        /* \"#utility.yul\":13971:14157   */\n      pop\n      pop\n      jump\t// out\n        /* \"#utility.yul\":14163:14706   */\n    tag_200:\n        /* \"#utility.yul\":14264:14266   */\n      0x1f\n        /* \"#utility.yul\":14259:14262   */\n      dup3\n        /* \"#utility.yul\":14256:14267   */\n      gt\n        /* \"#utility.yul\":14253:14699   */\n      iszero\n      tag_368\n      jumpi\n        /* \"#utility.yul\":14298:14336   */\n      tag_369\n        /* \"#utility.yul\":14330:14335   */\n      dup2\n        /* \"#utility.yul\":14298:14336   */\n      tag_189\n      jump\t// in\n    tag_369:\n        /* \"#utility.yul\":14382:14411   */\n      tag_370\n        /* \"#utility.yul\":14400:14410   */\n      dup5\n        /* \"#utility.yul\":14382:14411   */\n      tag_190\n      jump\t// in\n    tag_370:\n        /* \"#utility.yul\":14372:14380   */\n      dup2\n        /* \"#utility.yul\":14368:14412   */\n      add\n        /* \"#utility.yul\":14565:14567   */\n      0x20\n        /* \"#utility.yul\":14553:14563   */\n      dup6\n        /* \"#utility.yul\":14550:14568   */\n      lt\n        /* \"#utility.yul\":14547:14596   */\n      iszero\n      tag_371\n      jumpi\n        /* \"#utility.yul\":14586:14594   */\n      dup2\n        /* \"#utility.yul\":14571:14594   */\n      swap1\n      pop\n        /* \"#utility.yul\":14547:14596   */\n    tag_371:\n        /* \"#utility.yul\":14609:14689   */\n      tag_372\n        /* \"#utility.yul\":14665:14687   */\n      tag_373\n        /* \"#utility.yul\":14683:14686   */\n      dup6\n        /* \"#utility.yul\":14665:14687   */\n      tag_190\n      jump\t// in\n    tag_373:\n        /* \"#utility.yul\":14655:14663   */\n      dup4\n        /* \"#utility.yul\":14651:14688   */\n      add\n        /* \"#utility.yul\":14638:14649   */\n      dup3\n        /* \"#utility.yul\":14609:14689   */\n      tag_199\n      jump\t// in\n    tag_372:\n        /* \"#utility.yul\":14268:14699   */\n      pop\n      pop\n        /* \"#utility.yul\":14253:14699   */\n    tag_368:\n        /* \"#utility.yul\":14163:14706   */\n      pop\n      pop\n      pop\n      jump\t// out\n        /* \"#utility.yul\":14712:14829   */\n    tag_201:\n        /* \"#utility.yul\":14766:14774   */\n      0x00\n        /* \"#utility.yul\":14816:14821   */\n      dup3\n        /* \"#utility.yul\":14810:14814   */\n      dup3\n        /* \"#utility.yul\":14806:14822   */\n      shr\n        /* \"#utility.yul\":14785:14822   */\n      swap1\n      pop\n        /* \"#utility.yul\":14712:14829   */\n      swap3\n      swap2\n      pop\n      pop\n      jump\t// out\n        /* \"#utility.yul\":14835:15004   */\n    tag_202:\n        /* \"#utility.yul\":14879:14885   */\n      0x00\n        /* \"#utility.yul\":14912:14963   */\n      tag_376\n        /* \"#utility.yul\":14960:14961   */\n      0x00\n        /* \"#utility.yul\":14956:14962   */\n      not\n        /* \"#utility.yul\":14948:14953   */\n      dup5\n        /* \"#utility.yul\":14945:14946   */\n      0x08\n        /* \"#utility.yul\":14941:14954   */\n      mul\n        /* \"#utility.yul\":14912:14963   */\n      tag_201\n      jump\t// in\n    tag_376:\n        /* \"#utility.yul\":14908:14964   */\n      not\n        /* \"#utility.yul\":14993:14997   */\n      dup1\n        /* \"#utility.yul\":14987:14991   */\n      dup4\n        /* \"#utility.yul\":14983:14998   */\n      and\n        /* \"#utility.yul\":14973:14998   */\n      swap2\n      pop\n        /* \"#utility.yul\":14886:15004   */\n      pop\n        /* \"#utility.yul\":14835:15004   */\n      swap3\n      swap2\n      pop\n      pop\n      jump\t// out\n        /* \"#utility.yul\":15009:15304   */\n    tag_203:\n        /* \"#utility.yul\":15085:15089   */\n      0x00\n        /* \"#utility.yul\":15231:15260   */\n      tag_378\n        /* \"#utility.yul\":15256:15259   */\n      dup4\n        /* \"#utility.yul\":15250:15254   */\n      dup4\n        /* \"#utility.yul\":15231:15260   */\n      tag_202\n      jump\t// in\n    tag_378:\n        /* \"#utility.yul\":15223:15260   */\n      swap2\n      pop\n        /* \"#utility.yul\":15293:15296   */\n      dup3\n        /* \"#utility.yul\":15290:15291   */\n      0x02\n        /* \"#utility.yul\":15286:15297   */\n      mul\n        /* \"#utility.yul\":15280:15284   */\n      dup3\n        /* \"#utility.yul\":15277:15298   */\n      or\n        /* \"#utility.yul\":15269:15298   */\n      swap1\n      pop\n        /* \"#utility.yul\":15009:15304   */\n      swap3\n      swap2\n      pop\n      pop\n      jump\t// out\n        /* \"#utility.yul\":15309:16760   */\n    tag_68:\n        /* \"#utility.yul\":15420:15423   */\n      dup2\n        /* \"#utility.yul\":15414:15418   */\n      dup2\n        /* \"#utility.yul\":15411:15424   */\n      sub\n        /* \"#utility.yul\":15408:15434   */\n      tag_380\n      jumpi\n        /* \"#utility.yul\":15427:15432   */\n      pop\n      pop\n      jump(tag_379)\n        /* \"#utility.yul\":15408:15434   */\n    tag_380:\n        /* \"#utility.yul\":15458:15492   */\n      tag_381\n        /* \"#utility.yul\":15488:15491   */\n      dup3\n        /* \"#utility.yul\":15458:15492   */\n      tag_188\n      jump\t// in\n    tag_381:\n        /* \"#utility.yul\":15557:15575   */\n      0xffffffffffffffff\n        /* \"#utility.yul\":15549:15555   */\n      dup2\n        /* \"#utility.yul\":15546:15576   */\n      gt\n        /* \"#utility.yul\":15543:15599   */\n      iszero\n      tag_382\n      jumpi\n        /* \"#utility.yul\":15579:15597   */\n      tag_383\n      tag_161\n      jump\t// in\n    tag_383:\n        /* \"#utility.yul\":15543:15599   */\n    tag_382:\n        /* \"#utility.yul\":15623:15661   */\n      tag_384\n        /* \"#utility.yul\":15655:15659   */\n      dup3\n        /* \"#utility.yul\":15649:15660   */\n      sload\n        /* \"#utility.yul\":15623:15661   */\n      tag_125\n      jump\t// in\n    tag_384:\n        /* \"#utility.yul\":15708:15775   */\n      tag_385\n        /* \"#utility.yul\":15768:15774   */\n      dup3\n        /* \"#utility.yul\":15760:15766   */\n      dup3\n        /* \"#utility.yul\":15754:15758   */\n      dup6\n        /* \"#utility.yul\":15708:15775   */\n      tag_200\n      jump\t// in\n    tag_385:\n        /* \"#utility.yul\":15802:15803   */\n      0x00\n        /* \"#utility.yul\":15831:15833   */\n      0x1f\n        /* \"#utility.yul\":15823:15829   */\n      dup4\n        /* \"#utility.yul\":15820:15834   */\n      gt\n        /* \"#utility.yul\":15848:15849   */\n      0x01\n        /* \"#utility.yul\":15843:16515   */\n      dup2\n      eq\n      tag_387\n      jumpi\n        /* \"#utility.yul\":16559:16560   */\n      0x00\n        /* \"#utility.yul\":16576:16582   */\n      dup5\n        /* \"#utility.yul\":16573:16650   */\n      iszero\n      tag_388\n      jumpi\n        /* \"#utility.yul\":16625:16634   */\n      dup3\n        /* \"#utility.yul\":16620:16623   */\n      dup8\n        /* \"#utility.yul\":16616:16635   */\n      add\n        /* \"#utility.yul\":16610:16636   */\n      sload\n        /* \"#utility.yul\":16601:16636   */\n      swap1\n      pop\n        /* \"#utility.yul\":16573:16650   */\n    tag_388:\n        /* \"#utility.yul\":16676:16743   */\n      tag_389\n        /* \"#utility.yul\":16736:16742   */\n      dup6\n        /* \"#utility.yul\":16729:16734   */\n      dup3\n        /* \"#utility.yul\":16676:16743   */\n      tag_203\n      jump\t// in\n    tag_389:\n        /* \"#utility.yul\":16670:16674   */\n      dup7\n        /* \"#utility.yul\":16663:16744   */\n      sstore\n        /* \"#utility.yul\":16532:16754   */\n      pop\n        /* \"#utility.yul\":15813:16754   */\n      jump(tag_386)\n        /* \"#utility.yul\":15843:16515   */\n    tag_387:\n        /* \"#utility.yul\":15895:15899   */\n      0x1f\n        /* \"#utility.yul\":15891:15900   */\n      not\n        /* \"#utility.yul\":15883:15889   */\n      dup5\n        /* \"#utility.yul\":15879:15901   */\n      and\n        /* \"#utility.yul\":15921:15957   */\n      tag_390\n        /* \"#utility.yul\":15953:15956   */\n      dup8\n        /* \"#utility.yul\":15921:15957   */\n      tag_189\n      jump\t// in\n    tag_390:\n        /* \"#utility.yul\":15914:15957   */\n      swap7\n      pop\n        /* \"#utility.yul\":15984:16021   */\n      tag_391\n        /* \"#utility.yul\":16016:16020   */\n      dup7\n        /* \"#utility.yul\":15984:16021   */\n      tag_189\n      jump\t// in\n    tag_391:\n        /* \"#utility.yul\":16043:16044   */\n      0x00\n        /* \"#utility.yul\":16057:16264   */\n    tag_392:\n        /* \"#utility.yul\":16071:16078   */\n      dup3\n        /* \"#utility.yul\":16068:16069   */\n      dup2\n        /* \"#utility.yul\":16065:16079   */\n      lt\n        /* \"#utility.yul\":16057:16264   */\n      iszero\n      tag_394\n      jumpi\n        /* \"#utility.yul\":16150:16159   */\n      dup5\n        /* \"#utility.yul\":16145:16148   */\n      dup10\n        /* \"#utility.yul\":16141:16160   */\n      add\n        /* \"#utility.yul\":16135:16161   */\n      sload\n        /* \"#utility.yul\":16127:16133   */\n      dup3\n        /* \"#utility.yul\":16120:16162   */\n      sstore\n        /* \"#utility.yul\":16201:16202   */\n      0x01\n        /* \"#utility.yul\":16193:16199   */\n      dup3\n        /* \"#utility.yul\":16189:16203   */\n      add\n        /* \"#utility.yul\":16179:16203   */\n      swap2\n      pop\n        /* \"#utility.yul\":16248:16249   */\n      0x01\n        /* \"#utility.yul\":16237:16246   */\n      dup6\n        /* \"#utility.yul\":16233:16250   */\n      add\n        /* \"#utility.yul\":16220:16250   */\n      swap5\n      pop\n        /* \"#utility.yul\":16094:16098   */\n      0x20\n        /* \"#utility.yul\":16091:16092   */\n      dup2\n        /* \"#utility.yul\":16087:16099   */\n      add\n        /* \"#utility.yul\":16082:16099   */\n      swap1\n      pop\n        /* \"#utility.yul\":16057:16264   */\n      jump(tag_392)\n    tag_394:\n        /* \"#utility.yul\":16292:16298   */\n      dup7\n        /* \"#utility.yul\":16283:16290   */\n      dup4\n        /* \"#utility.yul\":16280:16299   */\n      lt\n        /* \"#utility.yul\":16277:16456   */\n      iszero\n      tag_395\n      jumpi\n        /* \"#utility.yul\":16350:16359   */\n      dup5\n        /* \"#utility.yul\":16345:16348   */\n      dup10\n        /* \"#utility.yul\":16341:16360   */\n      add\n        /* \"#utility.yul\":16335:16361   */\n      sload\n        /* \"#utility.yul\":16393:16441   */\n      tag_396\n        /* \"#utility.yul\":16435:16439   */\n      0x1f\n        /* \"#utility.yul\":16427:16433   */\n      dup10\n        /* \"#utility.yul\":16423:16440   */\n      and\n        /* \"#utility.yul\":16412:16421   */\n      dup3\n        /* \"#utility.yul\":16393:16441   */\n      tag_202\n      jump\t// in\n    tag_396:\n        /* \"#utility.yul\":16385:16391   */\n      dup4\n        /* \"#utility.yul\":16378:16442   */\n      sstore\n        /* \"#utility.yul\":16300:16456   */\n      pop\n        /* \"#utility.yul\":16277:16456   */\n    tag_395:\n        /* \"#utility.yul\":16502:16503   */\n      0x01\n        /* \"#utility.yul\":16498:16499   */\n      0x02\n        /* \"#utility.yul\":16490:16496   */\n      dup9\n        /* \"#utility.yul\":16486:16500   */\n      mul\n        /* \"#utility.yul\":16482:16504   */\n      add\n        /* \"#utility.yul\":16476:16480   */\n      dup9\n        /* \"#utility.yul\":16469:16505   */\n      sstore\n        /* \"#utility.yul\":15850:16515   */\n      pop\n      pop\n      pop\n        /* \"#utility.yul\":15813:16754   */\n    tag_386:\n      pop\n        /* \"#utility.yul\":15398:16760   */\n      pop\n      pop\n      pop\n        /* \"#utility.yul\":15309:16760   */\n      pop\n      pop\n    tag_379:\n      jump\t// out\n        /* \"#utility.yul\":16766:16946   */\n    tag_71:\n        /* \"#utility.yul\":16814:16891   */\n      0x4e487b7100000000000000000000000000000000000000000000000000000000\n        /* \"#utility.yul\":16811:16812   */\n      0x00\n        /* \"#utility.yul\":16804:16892   */\n      mstore\n        /* \"#utility.yul\":16911:16915   */\n      0x31\n        /* \"#utility.yul\":16908:16909   */\n      0x04\n        /* \"#utility.yul\":16901:16916   */\n      mstore\n        /* \"#utility.yul\":16935:16939   */\n      0x24\n        /* \"#utility.yul\":16932:16933   */\n      0x00\n        /* \"#utility.yul\":16925:16940   */\n      revert\n        /* \"#utility.yul\":16952:17110   */\n    tag_204:\n        /* \"#utility.yul\":17092:17102   */\n      0x4e6f204d6f6e6579000000000000000000000000000000000000000000000000\n        /* \"#utility.yul\":17088:17089   */\n      0x00\n        /* \"#utility.yul\":17080:17086   */\n      dup3\n        /* \"#utility.yul\":17076:17090   */\n      add\n        /* \"#utility.yul\":17069:17103   */\n      mstore\n        /* \"#utility.yul\":16952:17110   */\n      pop\n      jump\t// out\n        /* \"#utility.yul\":17116:17481   */\n    tag_205:\n        /* \"#utility.yul\":17258:17261   */\n      0x00\n        /* \"#utility.yul\":17279:17345   */\n      tag_400\n        /* \"#utility.yul\":17343:17344   */\n      0x08\n        /* \"#utility.yul\":17338:17341   */\n      dup4\n        /* \"#utility.yul\":17279:17345   */\n      tag_183\n      jump\t// in\n    tag_400:\n        /* \"#utility.yul\":17272:17345   */\n      swap2\n      pop\n        /* \"#utility.yul\":17354:17447   */\n      tag_401\n        /* \"#utility.yul\":17443:17446   */\n      dup3\n        /* \"#utility.yul\":17354:17447   */\n      tag_204\n      jump\t// in\n    tag_401:\n        /* \"#utility.yul\":17472:17474   */\n      0x20\n        /* \"#utility.yul\":17467:17470   */\n      dup3\n        /* \"#utility.yul\":17463:17475   */\n      add\n        /* \"#utility.yul\":17456:17475   */\n      swap1\n      pop\n        /* \"#utility.yul\":17116:17481   */\n      swap2\n      swap1\n      pop\n      jump\t// out\n        /* \"#utility.yul\":17487:17906   */\n    tag_87:\n        /* \"#utility.yul\":17653:17657   */\n      0x00\n        /* \"#utility.yul\":17691:17693   */\n      0x20\n        /* \"#utility.yul\":17680:17689   */\n      dup3\n        /* \"#utility.yul\":17676:17694   */\n      add\n        /* \"#utility.yul\":17668:17694   */\n      swap1\n      pop\n        /* \"#utility.yul\":17740:17749   */\n      dup2\n        /* \"#utility.yul\":17734:17738   */\n      dup2\n        /* \"#utility.yul\":17730:17750   */\n      sub\n        /* \"#utility.yul\":17726:17727   */\n      0x00\n        /* \"#utility.yul\":17715:17724   */\n      dup4\n        /* \"#utility.yul\":17711:17728   */\n      add\n        /* \"#utility.yul\":17704:17751   */\n      mstore\n        /* \"#utility.yul\":17768:17899   */\n      tag_403\n        /* \"#utility.yul\":17894:17898   */\n      dup2\n        /* \"#utility.yul\":17768:17899   */\n      tag_205\n      jump\t// in\n    tag_403:\n        /* \"#utility.yul\":17760:17899   */\n      swap1\n      pop\n        /* \"#utility.yul\":17487:17906   */\n      swap2\n      swap1\n      pop\n      jump\t// out\n        /* \"#utility.yul\":17912:18322   */\n    tag_96:\n        /* \"#utility.yul\":17952:17959   */\n      0x00\n        /* \"#utility.yul\":17975:17995   */\n      tag_405\n        /* \"#utility.yul\":17993:17994   */\n      dup3\n        /* \"#utility.yul\":17975:17995   */\n      tag_146\n      jump\t// in\n    tag_405:\n        /* \"#utility.yul\":17970:17995   */\n      swap2\n      pop\n        /* \"#utility.yul\":18009:18029   */\n      tag_406\n        /* \"#utility.yul\":18027:18028   */\n      dup4\n        /* \"#utility.yul\":18009:18029   */\n      tag_146\n      jump\t// in\n    tag_406:\n        /* \"#utility.yul\":18004:18029   */\n      swap3\n      pop\n        /* \"#utility.yul\":18064:18065   */\n      dup3\n        /* \"#utility.yul\":18061:18062   */\n      dup3\n        /* \"#utility.yul\":18057:18066   */\n      mul\n        /* \"#utility.yul\":18086:18116   */\n      tag_407\n        /* \"#utility.yul\":18104:18115   */\n      dup2\n        /* \"#utility.yul\":18086:18116   */\n      tag_146\n      jump\t// in\n    tag_407:\n        /* \"#utility.yul\":18075:18116   */\n      swap2\n      pop\n        /* \"#utility.yul\":18265:18266   */\n      dup3\n        /* \"#utility.yul\":18256:18263   */\n      dup3\n        /* \"#utility.yul\":18252:18267   */\n      div\n        /* \"#utility.yul\":18249:18250   */\n      dup5\n        /* \"#utility.yul\":18246:18268   */\n      eq\n        /* \"#utility.yul\":18226:18227   */\n      dup4\n        /* \"#utility.yul\":18219:18228   */\n      iszero\n        /* \"#utility.yul\":18199:18282   */\n      or\n        /* \"#utility.yul\":18176:18315   */\n      tag_408\n      jumpi\n        /* \"#utility.yul\":18295:18313   */\n      tag_409\n      tag_186\n      jump\t// in\n    tag_409:\n        /* \"#utility.yul\":18176:18315   */\n    tag_408:\n        /* \"#utility.yul\":17960:18322   */\n      pop\n        /* \"#utility.yul\":17912:18322   */\n      swap3\n      swap2\n      pop\n      pop\n      jump\t// out\n        /* \"#utility.yul\":18328:18508   */\n    tag_206:\n        /* \"#utility.yul\":18376:18453   */\n      0x4e487b7100000000000000000000000000000000000000000000000000000000\n        /* \"#utility.yul\":18373:18374   */\n      0x00\n        /* \"#utility.yul\":18366:18454   */\n      mstore\n        /* \"#utility.yul\":18473:18477   */\n      0x12\n        /* \"#utility.yul\":18470:18471   */\n      0x04\n        /* \"#utility.yul\":18463:18478   */\n      mstore\n        /* \"#utility.yul\":18497:18501   */\n      0x24\n        /* \"#utility.yul\":18494:18495   */\n      0x00\n        /* \"#utility.yul\":18487:18502   */\n      revert\n        /* \"#utility.yul\":18514:18699   */\n    tag_98:\n        /* \"#utility.yul\":18554:18555   */\n      0x00\n        /* \"#utility.yul\":18571:18591   */\n      tag_412\n        /* \"#utility.yul\":18589:18590   */\n      dup3\n        /* \"#utility.yul\":18571:18591   */\n      tag_146\n      jump\t// in\n    tag_412:\n        /* \"#utility.yul\":18566:18591   */\n      swap2\n      pop\n        /* \"#utility.yul\":18605:18625   */\n      tag_413\n        /* \"#utility.yul\":18623:18624   */\n      dup4\n        /* \"#utility.yul\":18605:18625   */\n      tag_146\n      jump\t// in\n    tag_413:\n        /* \"#utility.yul\":18600:18625   */\n      swap3\n      pop\n        /* \"#utility.yul\":18644:18645   */\n      dup3\n        /* \"#utility.yul\":18634:18669   */\n      tag_414\n      jumpi\n        /* \"#utility.yul\":18649:18667   */\n      tag_415\n      tag_206\n      jump\t// in\n    tag_415:\n        /* \"#utility.yul\":18634:18669   */\n    tag_414:\n        /* \"#utility.yul\":18691:18692   */\n      dup3\n        /* \"#utility.yul\":18688:18689   */\n      dup3\n        /* \"#utility.yul\":18684:18693   */\n      div\n        /* \"#utility.yul\":18679:18693   */\n      swap1\n      pop\n        /* \"#utility.yul\":18514:18699   */\n      swap3\n      swap2\n      pop\n      pop\n      jump\t// out\n        /* \"#utility.yul\":18705:18884   */\n    tag_207:\n        /* \"#utility.yul\":18845:18876   */\n      0x50657263656e74206d757374206265206265747765656e20312d313030000000\n        /* \"#utility.yul\":18841:18842   */\n      0x00\n        /* \"#utility.yul\":18833:18839   */\n      dup3\n        /* \"#utility.yul\":18829:18843   */\n      add\n        /* \"#utility.yul\":18822:18877   */\n      mstore\n        /* \"#utility.yul\":18705:18884   */\n      pop\n      jump\t// out\n        /* \"#utility.yul\":18890:19256   */\n    tag_208:\n        /* \"#utility.yul\":19032:19035   */\n      0x00\n        /* \"#utility.yul\":19053:19120   */\n      tag_418\n        /* \"#utility.yul\":19117:19119   */\n      0x1d\n        /* \"#utility.yul\":19112:19115   */\n      dup4\n        /* \"#utility.yul\":19053:19120   */\n      tag_183\n      jump\t// in\n    tag_418:\n        /* \"#utility.yul\":19046:19120   */\n      swap2\n      pop\n        /* \"#utility.yul\":19129:19222   */\n      tag_419\n        /* \"#utility.yul\":19218:19221   */\n      dup3\n        /* \"#utility.yul\":19129:19222   */\n      tag_207\n      jump\t// in\n    tag_419:\n        /* \"#utility.yul\":19247:19249   */\n      0x20\n        /* \"#utility.yul\":19242:19245   */\n      dup3\n        /* \"#utility.yul\":19238:19250   */\n      add\n        /* \"#utility.yul\":19231:19250   */\n      swap1\n      pop\n        /* \"#utility.yul\":18890:19256   */\n      swap2\n      swap1\n      pop\n      jump\t// out\n        /* \"#utility.yul\":19262:19681   */\n    tag_111:\n        /* \"#utility.yul\":19428:19432   */\n      0x00\n        /* \"#utility.yul\":19466:19468   */\n      0x20\n        /* \"#utility.yul\":19455:19464   */\n      dup3\n        /* \"#utility.yul\":19451:19469   */\n      add\n        /* \"#utility.yul\":19443:19469   */\n      swap1\n      pop\n        /* \"#utility.yul\":19515:19524   */\n      dup2\n        /* \"#utility.yul\":19509:19513   */\n      dup2\n        /* \"#utility.yul\":19505:19525   */\n      sub\n        /* \"#utility.yul\":19501:19502   */\n      0x00\n        /* \"#utility.yul\":19490:19499   */\n      dup4\n        /* \"#utility.yul\":19486:19503   */\n      add\n        /* \"#utility.yul\":19479:19526   */\n      mstore\n        /* \"#utility.yul\":19543:19674   */\n      tag_421\n        /* \"#utility.yul\":19669:19673   */\n      dup2\n        /* \"#utility.yul\":19543:19674   */\n      tag_208\n      jump\t// in\n    tag_421:\n        /* \"#utility.yul\":19535:19674   */\n      swap1\n      pop\n        /* \"#utility.yul\":19262:19681   */\n      swap2\n      swap1\n      pop\n      jump\t// out\n        /* \"#utility.yul\":19687:19868   */\n    tag_209:\n        /* \"#utility.yul\":19827:19860   */\n      0x546f74616c2070657263656e742063616e6e6f74206578636565642031303000\n        /* \"#utility.yul\":19823:19824   */\n      0x00\n        /* \"#utility.yul\":19815:19821   */\n      dup3\n        /* \"#utility.yul\":19811:19825   */\n      add\n        /* \"#utility.yul\":19804:19861   */\n      mstore\n        /* \"#utility.yul\":19687:19868   */\n      pop\n      jump\t// out\n        /* \"#utility.yul\":19874:20240   */\n    tag_210:\n        /* \"#utility.yul\":20016:20019   */\n      0x00\n        /* \"#utility.yul\":20037:20104   */\n      tag_424\n        /* \"#utility.yul\":20101:20103   */\n      0x1f\n        /* \"#utility.yul\":20096:20099   */\n      dup4\n        /* \"#utility.yul\":20037:20104   */\n      tag_183\n      jump\t// in\n    tag_424:\n        /* \"#utility.yul\":20030:20104   */\n      swap2\n      pop\n        /* \"#utility.yul\":20113:20206   */\n      tag_425\n        /* \"#utility.yul\":20202:20205   */\n      dup3\n        /* \"#utility.yul\":20113:20206   */\n      tag_209\n      jump\t// in\n    tag_425:\n        /* \"#utility.yul\":20231:20233   */\n      0x20\n        /* \"#utility.yul\":20226:20229   */\n      dup3\n        /* \"#utility.yul\":20222:20234   */\n      add\n        /* \"#utility.yul\":20215:20234   */\n      swap1\n      pop\n        /* \"#utility.yul\":19874:20240   */\n      swap2\n      swap1\n      pop\n      jump\t// out\n        /* \"#utility.yul\":20246:20665   */\n    tag_116:\n        /* \"#utility.yul\":20412:20416   */\n      0x00\n        /* \"#utility.yul\":20450:20452   */\n      0x20\n        /* \"#utility.yul\":20439:20448   */\n      dup3\n        /* \"#utility.yul\":20435:20453   */\n      add\n        /* \"#utility.yul\":20427:20453   */\n      swap1\n      pop\n        /* \"#utility.yul\":20499:20508   */\n      dup2\n        /* \"#utility.yul\":20493:20497   */\n      dup2\n        /* \"#utility.yul\":20489:20509   */\n      sub\n        /* \"#utility.yul\":20485:20486   */\n      0x00\n        /* \"#utility.yul\":20474:20483   */\n      dup4\n        /* \"#utility.yul\":20470:20487   */\n      add\n        /* \"#utility.yul\":20463:20510   */\n      mstore\n        /* \"#utility.yul\":20527:20658   */\n      tag_427\n        /* \"#utility.yul\":20653:20657   */\n      dup2\n        /* \"#utility.yul\":20527:20658   */\n      tag_210\n      jump\t// in\n    tag_427:\n        /* \"#utility.yul\":20519:20658   */\n      swap1\n      pop\n        /* \"#utility.yul\":20246:20665   */\n      swap2\n      swap1\n      pop\n      jump\t// out\n        /* \"#utility.yul\":20671:22066   */\n    tag_119:\n        /* \"#utility.yul\":20788:20825   */\n      tag_429\n        /* \"#utility.yul\":20821:20824   */\n      dup3\n        /* \"#utility.yul\":20788:20825   */\n      tag_174\n      jump\t// in\n    tag_429:\n        /* \"#utility.yul\":20890:20908   */\n      0xffffffffffffffff\n        /* \"#utility.yul\":20882:20888   */\n      dup2\n        /* \"#utility.yul\":20879:20909   */\n      gt\n        /* \"#utility.yul\":20876:20932   */\n      iszero\n      tag_430\n      jumpi\n        /* \"#utility.yul\":20912:20930   */\n      tag_431\n      tag_161\n      jump\t// in\n    tag_431:\n        /* \"#utility.yul\":20876:20932   */\n    tag_430:\n        /* \"#utility.yul\":20956:20994   */\n      tag_432\n        /* \"#utility.yul\":20988:20992   */\n      dup3\n        /* \"#utility.yul\":20982:20993   */\n      sload\n        /* \"#utility.yul\":20956:20994   */\n      tag_125\n      jump\t// in\n    tag_432:\n        /* \"#utility.yul\":21041:21108   */\n      tag_433\n        /* \"#utility.yul\":21101:21107   */\n      dup3\n        /* \"#utility.yul\":21093:21099   */\n      dup3\n        /* \"#utility.yul\":21087:21091   */\n      dup6\n        /* \"#utility.yul\":21041:21108   */\n      tag_200\n      jump\t// in\n    tag_433:\n        /* \"#utility.yul\":21135:21136   */\n      0x00\n        /* \"#utility.yul\":21159:21163   */\n      0x20\n        /* \"#utility.yul\":21146:21163   */\n      swap1\n      pop\n        /* \"#utility.yul\":21191:21193   */\n      0x1f\n        /* \"#utility.yul\":21183:21189   */\n      dup4\n        /* \"#utility.yul\":21180:21194   */\n      gt\n        /* \"#utility.yul\":21208:21209   */\n      0x01\n        /* \"#utility.yul\":21203:21821   */\n      dup2\n      eq\n      tag_435\n      jumpi\n        /* \"#utility.yul\":21865:21866   */\n      0x00\n        /* \"#utility.yul\":21882:21888   */\n      dup5\n        /* \"#utility.yul\":21879:21956   */\n      iszero\n      tag_436\n      jumpi\n        /* \"#utility.yul\":21931:21940   */\n      dup3\n        /* \"#utility.yul\":21926:21929   */\n      dup8\n        /* \"#utility.yul\":21922:21941   */\n      add\n        /* \"#utility.yul\":21916:21942   */\n      mload\n        /* \"#utility.yul\":21907:21942   */\n      swap1\n      pop\n        /* \"#utility.yul\":21879:21956   */\n    tag_436:\n        /* \"#utility.yul\":21982:22049   */\n      tag_437\n        /* \"#utility.yul\":22042:22048   */\n      dup6\n        /* \"#utility.yul\":22035:22040   */\n      dup3\n        /* \"#utility.yul\":21982:22049   */\n      tag_203\n      jump\t// in\n    tag_437:\n        /* \"#utility.yul\":21976:21980   */\n      dup7\n        /* \"#utility.yul\":21969:22050   */\n      sstore\n        /* \"#utility.yul\":21838:22060   */\n      pop\n        /* \"#utility.yul\":21173:22060   */\n      jump(tag_434)\n        /* \"#utility.yul\":21203:21821   */\n    tag_435:\n        /* \"#utility.yul\":21255:21259   */\n      0x1f\n        /* \"#utility.yul\":21251:21260   */\n      not\n        /* \"#utility.yul\":21243:21249   */\n      dup5\n        /* \"#utility.yul\":21239:21261   */\n      and\n        /* \"#utility.yul\":21289:21326   */\n      tag_438\n        /* \"#utility.yul\":21321:21325   */\n      dup7\n        /* \"#utility.yul\":21289:21326   */\n      tag_189\n      jump\t// in\n    tag_438:\n        /* \"#utility.yul\":21348:21349   */\n      0x00\n        /* \"#utility.yul\":21362:21570   */\n    tag_439:\n        /* \"#utility.yul\":21376:21383   */\n      dup3\n        /* \"#utility.yul\":21373:21374   */\n      dup2\n        /* \"#utility.yul\":21370:21384   */\n      lt\n        /* \"#utility.yul\":21362:21570   */\n      iszero\n      tag_441\n      jumpi\n        /* \"#utility.yul\":21455:21464   */\n      dup5\n        /* \"#utility.yul\":21450:21453   */\n      dup10\n        /* \"#utility.yul\":21446:21465   */\n      add\n        /* \"#utility.yul\":21440:21466   */\n      mload\n        /* \"#utility.yul\":21432:21438   */\n      dup3\n        /* \"#utility.yul\":21425:21467   */\n      sstore\n        /* \"#utility.yul\":21506:21507   */\n      0x01\n        /* \"#utility.yul\":21498:21504   */\n      dup3\n        /* \"#utility.yul\":21494:21508   */\n      add\n        /* \"#utility.yul\":21484:21508   */\n      swap2\n      pop\n        /* \"#utility.yul\":21553:21555   */\n      0x20\n        /* \"#utility.yul\":21542:21551   */\n      dup6\n        /* \"#utility.yul\":21538:21556   */\n      add\n        /* \"#utility.yul\":21525:21556   */\n      swap5\n      pop\n        /* \"#utility.yul\":21399:21403   */\n      0x20\n        /* \"#utility.yul\":21396:21397   */\n      dup2\n        /* \"#utility.yul\":21392:21404   */\n      add\n        /* \"#utility.yul\":21387:21404   */\n      swap1\n      pop\n        /* \"#utility.yul\":21362:21570   */\n      jump(tag_439)\n    tag_441:\n        /* \"#utility.yul\":21598:21604   */\n      dup7\n        /* \"#utility.yul\":21589:21596   */\n      dup4\n        /* \"#utility.yul\":21586:21605   */\n      lt\n        /* \"#utility.yul\":21583:21762   */\n      iszero\n      tag_442\n      jumpi\n        /* \"#utility.yul\":21656:21665   */\n      dup5\n        /* \"#utility.yul\":21651:21654   */\n      dup10\n        /* \"#utility.yul\":21647:21666   */\n      add\n        /* \"#utility.yul\":21641:21667   */\n      mload\n        /* \"#utility.yul\":21699:21747   */\n      tag_443\n        /* \"#utility.yul\":21741:21745   */\n      0x1f\n        /* \"#utility.yul\":21733:21739   */\n      dup10\n        /* \"#utility.yul\":21729:21746   */\n      and\n        /* \"#utility.yul\":21718:21727   */\n      dup3\n        /* \"#utility.yul\":21699:21747   */\n      tag_202\n      jump\t// in\n    tag_443:\n        /* \"#utility.yul\":21691:21697   */\n      dup4\n        /* \"#utility.yul\":21684:21748   */\n      sstore\n        /* \"#utility.yul\":21606:21762   */\n      pop\n        /* \"#utility.yul\":21583:21762   */\n    tag_442:\n        /* \"#utility.yul\":21808:21809   */\n      0x01\n        /* \"#utility.yul\":21804:21805   */\n      0x02\n        /* \"#utility.yul\":21796:21802   */\n      dup9\n        /* \"#utility.yul\":21792:21806   */\n      mul\n        /* \"#utility.yul\":21788:21810   */\n      add\n        /* \"#utility.yul\":21782:21786   */\n      dup9\n        /* \"#utility.yul\":21775:21811   */\n      sstore\n        /* \"#utility.yul\":21210:21821   */\n      pop\n      pop\n      pop\n        /* \"#utility.yul\":21173:22060   */\n    tag_434:\n      pop\n        /* \"#utility.yul\":20763:22066   */\n      pop\n      pop\n      pop\n        /* \"#utility.yul\":20671:22066   */\n      pop\n      pop\n      jump\t// out\n        /* \"#utility.yul\":22072:22219   */\n    tag_211:\n        /* \"#utility.yul\":22173:22184   */\n      0x00\n        /* \"#utility.yul\":22210:22213   */\n      dup2\n        /* \"#utility.yul\":22195:22213   */\n      swap1\n      pop\n        /* \"#utility.yul\":22072:22219   */\n      swap3\n      swap2\n      pop\n      pop\n      jump\t// out\n        /* \"#utility.yul\":22225:22339   */\n    tag_212:\n      pop\n      jump\t// out\n        /* \"#utility.yul\":22345:22743   */\n    tag_213:\n        /* \"#utility.yul\":22504:22507   */\n      0x00\n        /* \"#utility.yul\":22525:22608   */\n      tag_447\n        /* \"#utility.yul\":22606:22607   */\n      0x00\n        /* \"#utility.yul\":22601:22604   */\n      dup4\n        /* \"#utility.yul\":22525:22608   */\n      tag_211\n      jump\t// in\n    tag_447:\n        /* \"#utility.yul\":22518:22608   */\n      swap2\n      pop\n        /* \"#utility.yul\":22617:22710   */\n      tag_448\n        /* \"#utility.yul\":22706:22709   */\n      dup3\n        /* \"#utility.yul\":22617:22710   */\n      tag_212\n      jump\t// in\n    tag_448:\n        /* \"#utility.yul\":22735:22736   */\n      0x00\n        /* \"#utility.yul\":22730:22733   */\n      dup3\n        /* \"#utility.yul\":22726:22737   */\n      add\n        /* \"#utility.yul\":22719:22737   */\n      swap1\n      pop\n        /* \"#utility.yul\":22345:22743   */\n      swap2\n      swap1\n      pop\n      jump\t// out\n        /* \"#utility.yul\":22749:23128   */\n    tag_132:\n        /* \"#utility.yul\":22933:22936   */\n      0x00\n        /* \"#utility.yul\":22955:23102   */\n      tag_450\n        /* \"#utility.yul\":23098:23101   */\n      dup3\n        /* \"#utility.yul\":22955:23102   */\n      tag_213\n      jump\t// in\n    tag_450:\n        /* \"#utility.yul\":22948:23102   */\n      swap2\n      pop\n        /* \"#utility.yul\":23119:23122   */\n      dup2\n        /* \"#utility.yul\":23112:23122   */\n      swap1\n      pop\n        /* \"#utility.yul\":22749:23128   */\n      swap2\n      swap1\n      pop\n      jump\t// out\n        /* \"#utility.yul\":23134:23300   */\n    tag_214:\n        /* \"#utility.yul\":23274:23292   */\n      0x5472616e73666572206661696c65642e00000000000000000000000000000000\n        /* \"#utility.yul\":23270:23271   */\n      0x00\n        /* \"#utility.yul\":23262:23268   */\n      dup3\n        /* \"#utility.yul\":23258:23272   */\n      add\n        /* \"#utility.yul\":23251:23293   */\n      mstore\n        /* \"#utility.yul\":23134:23300   */\n      pop\n      jump\t// out\n        /* \"#utility.yul\":23306:23672   */\n    tag_215:\n        /* \"#utility.yul\":23448:23451   */\n      0x00\n        /* \"#utility.yul\":23469:23536   */\n      tag_453\n        /* \"#utility.yul\":23533:23535   */\n      0x10\n        /* \"#utility.yul\":23528:23531   */\n      dup4\n        /* \"#utility.yul\":23469:23536   */\n      tag_183\n      jump\t// in\n    tag_453:\n        /* \"#utility.yul\":23462:23536   */\n      swap2\n      pop\n        /* \"#utility.yul\":23545:23638   */\n      tag_454\n        /* \"#utility.yul\":23634:23637   */\n      dup3\n        /* \"#utility.yul\":23545:23638   */\n      tag_214\n      jump\t// in\n    tag_454:\n        /* \"#utility.yul\":23663:23665   */\n      0x20\n        /* \"#utility.yul\":23658:23661   */\n      dup3\n        /* \"#utility.yul\":23654:23666   */\n      add\n        /* \"#utility.yul\":23647:23666   */\n      swap1\n      pop\n        /* \"#utility.yul\":23306:23672   */\n      swap2\n      swap1\n      pop\n      jump\t// out\n        /* \"#utility.yul\":23678:24097   */\n    tag_138:\n        /* \"#utility.yul\":23844:23848   */\n      0x00\n        /* \"#utility.yul\":23882:23884   */\n      0x20\n        /* \"#utility.yul\":23871:23880   */\n      dup3\n        /* \"#utility.yul\":23867:23885   */\n      add\n        /* \"#utility.yul\":23859:23885   */\n      swap1\n      pop\n        /* \"#utility.yul\":23931:23940   */\n      dup2\n        /* \"#utility.yul\":23925:23929   */\n      dup2\n        /* \"#utility.yul\":23921:23941   */\n      sub\n        /* \"#utility.yul\":23917:23918   */\n      0x00\n        /* \"#utility.yul\":23906:23915   */\n      dup4\n        /* \"#utility.yul\":23902:23919   */\n      add\n        /* \"#utility.yul\":23895:23942   */\n      mstore\n        /* \"#utility.yul\":23959:24090   */\n      tag_456\n        /* \"#utility.yul\":24085:24089   */\n      dup2\n        /* \"#utility.yul\":23959:24090   */\n      tag_215\n      jump\t// in\n    tag_456:\n        /* \"#utility.yul\":23951:24090   */\n      swap1\n      pop\n        /* \"#utility.yul\":23678:24097   */\n      swap2\n      swap1\n      pop\n      jump\t// out\n\n    auxdata: 0xa2646970667358221220c5c49d3e8ae1a330952a0bfe3a88f1e585007628e8a98581bb32593ea7e56d8164736f6c634300081f0033\n}\n",
				"bytecode": {
					"linkReferences": {},
					"object": "6080604052348015600e575f5ffd5b50335f5f6101000a81548173ffffffffffffffffffffffffffffffffffffffff021916908373ffffffffffffffffffffffffffffffffffffffff1602179055506115fd8061005b5f395ff3fe60806040526004361061006f575f3560e01c80636e7301fd1161004d5780636e7301fd146100ef5780637943da69146100f9578063b499b79a1461010f578063e83a1b00146101375761006f565b80632a08deda14610073578063369a489d1461009d5780633c8e3b52146100c5575b5f5ffd5b34801561007e575f5ffd5b50610087610161565b60405161009491906109bb565b60405180910390f35b3480156100a8575f5ffd5b506100c360048036038101906100be9190610a3f565b610168565b005b3480156100d0575f5ffd5b506100d96103fe565b6040516100e691906109bb565b60405180910390f35b6100f761045b565b005b348015610104575f5ffd5b5061010d61045d565b005b34801561011a575f5ffd5b5061013560048036038101906101309190610c0b565b61055d565b005b348015610142575f5ffd5b5061014b610754565b6040516101589190610dfd565b60405180910390f35b5f47905090565b5f5f9054906101000a900473ffffffffffffffffffffffffffffffffffffffff1673ffffffffffffffffffffffffffffffffffffffff163373ffffffffffffffffffffffffffffffffffffffff16146101f6576040517f08c379a00000000000000000000000000000000000000000000000000000000081526004016101ed90610e77565b60405180910390fd5b60018080549050106103fb575f5f90505b6001805490508110156103f9578173ffffffffffffffffffffffffffffffffffffffff166001828154811061023f5761023e610e95565b5b905f5260205f2090600302015f015f9054906101000a900473ffffffffffffffffffffffffffffffffffffffff1673ffffffffffffffffffffffffffffffffffffffff16036103ec575f8190505b6001808054905061029e9190610eef565b81101561038257600180826102b39190610f22565b815481106102c4576102c3610e95565b5b905f5260205f209060030201600182815481106102e4576102e3610e95565b5b905f5260205f2090600302015f82015f9054906101000a900473ffffffffffffffffffffffffffffffffffffffff16815f015f6101000a81548173ffffffffffffffffffffffffffffffffffffffff021916908373ffffffffffffffffffffffffffffffffffffffff160217905550600182018160010190816103679190611167565b5060028201548160020155905050808060010191505061028d565b5060018054806103955761039461124c565b5b600190038181905f5260205f2090600302015f5f82015f6101000a81549073ffffffffffffffffffffffffffffffffffffffff0219169055600182015f6103dc919061094b565b600282015f9055505090556103f9565b8080600101915050610207565b505b50565b5f5f5f90505f5f90505b600180549050811015610453576001818154811061042957610428610e95565b5b905f5260205f20906003020160020154826104449190610f22565b91508080600101915050610408565b508091505090565b565b5f471161049f576040517f08c379a0000000000000000000000000000000000000000000000000000000008152600401610496906112c3565b60405180910390fd5b600180805490501061055b575f4790505f5f90505b600180549050811015610558575f6064600183815481106104d8576104d7610e95565b5b905f5260205f20906003020160020154846104f391906112e1565b6104fd919061134f565b905061054a6001838154811061051657610515610e95565b5b905f5260205f2090600302015f015f9054906101000a900473ffffffffffffffffffffffffffffffffffffffff168261089e565b5080806001019150506104b4565b50505b565b5f5f9054906101000a900473ffffffffffffffffffffffffffffffffffffffff1673ffffffffffffffffffffffffffffffffffffffff163373ffffffffffffffffffffffffffffffffffffffff16146105eb576040517f08c379a00000000000000000000000000000000000000000000000000000000081526004016105e290610e77565b60405180910390fd5b5f811180156105fb575060648111155b61063a576040517f08c379a0000000000000000000000000000000000000000000000000000000008152600401610631906113c9565b60405180910390fd5b6064816106456103fe565b61064f9190610f22565b1115610690576040517f08c379a000000000000000000000000000000000000000000000000000000000815260040161068790611431565b60405180910390fd5b600160405180606001604052808573ffffffffffffffffffffffffffffffffffffffff16815260200184815260200183815250908060018154018082558091505060019003905f5260205f2090600302015f909190919091505f820151815f015f6101000a81548173ffffffffffffffffffffffffffffffffffffffff021916908373ffffffffffffffffffffffffffffffffffffffff1602179055506020820151816001019081610742919061144f565b50604082015181600201555050505050565b60606001805480602002602001604051908101604052809291908181526020015f905b82821015610895578382905f5260205f2090600302016040518060600160405290815f82015f9054906101000a900473ffffffffffffffffffffffffffffffffffffffff1673ffffffffffffffffffffffffffffffffffffffff1673ffffffffffffffffffffffffffffffffffffffff1681526020016001820180546107fc90610f82565b80601f016020809104026020016040519081016040528092919081815260200182805461082890610f82565b80156108735780601f1061084a57610100808354040283529160200191610873565b820191905f5260205f20905b81548152906001019060200180831161085657829003601f168201915b5050505050815260200160028201548152505081526020019060010190610777565b50505050905090565b5f8273ffffffffffffffffffffffffffffffffffffffff16826040516108c39061154b565b5f6040518083038185875af1925050503d805f81146108fd576040519150601f19603f3d011682016040523d82523d5f602084013e610902565b606091505b5050905080610946576040517f08c379a000000000000000000000000000000000000000000000000000000000815260040161093d906115a9565b60405180910390fd5b505050565b50805461095790610f82565b5f825580601f106109685750610985565b601f0160209004905f5260205f20908101906109849190610988565b5b50565b5b8082111561099f575f815f905550600101610989565b5090565b5f819050919050565b6109b5816109a3565b82525050565b5f6020820190506109ce5f8301846109ac565b92915050565b5f604051905090565b5f5ffd5b5f5ffd5b5f73ffffffffffffffffffffffffffffffffffffffff82169050919050565b5f610a0e826109e5565b9050919050565b610a1e81610a04565b8114610a28575f5ffd5b50565b5f81359050610a3981610a15565b92915050565b5f60208284031215610a5457610a536109dd565b5b5f610a6184828501610a2b565b91505092915050565b5f610a74826109e5565b9050919050565b610a8481610a6a565b8114610a8e575f5ffd5b50565b5f81359050610a9f81610a7b565b92915050565b5f5ffd5b5f5ffd5b5f601f19601f8301169050919050565b7f4e487b71000000000000000000000000000000000000000000000000000000005f52604160045260245ffd5b610af382610aad565b810181811067ffffffffffffffff82111715610b1257610b11610abd565b5b80604052505050565b5f610b246109d4565b9050610b308282610aea565b919050565b5f67ffffffffffffffff821115610b4f57610b4e610abd565b5b610b5882610aad565b9050602081019050919050565b828183375f83830152505050565b5f610b85610b8084610b35565b610b1b565b905082815260208101848484011115610ba157610ba0610aa9565b5b610bac848285610b65565b509392505050565b5f82601f830112610bc857610bc7610aa5565b5b8135610bd8848260208601610b73565b91505092915050565b610bea816109a3565b8114610bf4575f5ffd5b50565b5f81359050610c0581610be1565b92915050565b5f5f5f60608486031215610c2257610c216109dd565b5b5f610c2f86828701610a91565b935050602084013567ffffffffffffffff811115610c5057610c4f6109e1565b5b610c5c86828701610bb4565b9250506040610c6d86828701610bf7565b9150509250925092565b5f81519050919050565b5f82825260208201905092915050565b5f819050602082019050919050565b610ca981610a6a565b82525050565b5f81519050919050565b5f82825260208201905092915050565b8281835e5f83830152505050565b5f610ce182610caf565b610ceb8185610cb9565b9350610cfb818560208601610cc9565b610d0481610aad565b840191505092915050565b610d18816109a3565b82525050565b5f606083015f830151610d335f860182610ca0565b5060208301518482036020860152610d4b8282610cd7565b9150506040830151610d606040860182610d0f565b508091505092915050565b5f610d768383610d1e565b905092915050565b5f602082019050919050565b5f610d9482610c77565b610d9e8185610c81565b935083602082028501610db085610c91565b805f5b85811015610deb5784840389528151610dcc8582610d6b565b9450610dd783610d7e565b925060208a01995050600181019050610db3565b50829750879550505050505092915050565b5f6020820190508181035f830152610e158184610d8a565b905092915050565b5f82825260208201905092915050565b7f4f6e6c79206f776e65722063616e2063616c6c000000000000000000000000005f82015250565b5f610e61601383610e1d565b9150610e6c82610e2d565b602082019050919050565b5f6020820190508181035f830152610e8e81610e55565b9050919050565b7f4e487b71000000000000000000000000000000000000000000000000000000005f52603260045260245ffd5b7f4e487b71000000000000000000000000000000000000000000000000000000005f52601160045260245ffd5b5f610ef9826109a3565b9150610f04836109a3565b9250828203905081811115610f1c57610f1b610ec2565b5b92915050565b5f610f2c826109a3565b9150610f37836109a3565b9250828201905080821115610f4f57610f4e610ec2565b5b92915050565b7f4e487b71000000000000000000000000000000000000000000000000000000005f52602260045260245ffd5b5f6002820490506001821680610f9957607f821691505b602082108103610fac57610fab610f55565b5b50919050565b5f81549050610fc081610f82565b9050919050565b5f819050815f5260205f209050919050565b5f6020601f8301049050919050565b5f82821b905092915050565b5f600883026110237fffffffffffffffffffffffffffffffffffffffffffffffffffffffffffffffff82610fe8565b61102d8683610fe8565b95508019841693508086168417925050509392505050565b5f819050919050565b5f61106861106361105e846109a3565b611045565b6109a3565b9050919050565b5f819050919050565b6110818361104e565b61109561108d8261106f565b848454610ff4565b825550505050565b5f5f905090565b6110ac61109d565b6110b7818484611078565b505050565b5b818110156110da576110cf5f826110a4565b6001810190506110bd565b5050565b601f82111561111f576110f081610fc7565b6110f984610fd9565b81016020851015611108578190505b61111c61111485610fd9565b8301826110bc565b50505b505050565b5f82821c905092915050565b5f61113f5f1984600802611124565b1980831691505092915050565b5f6111578383611130565b9150826002028217905092915050565b81810361117557505061124a565b61117e82610fb2565b67ffffffffffffffff81111561119757611196610abd565b5b6111a18254610f82565b6111ac8282856110de565b5f601f8311600181146111d9575f84156111c7578287015490505b6111d1858261114c565b865550611243565b601f1984166111e787610fc7565b96506111f286610fc7565b5f5b82811015611219578489015482556001820191506001850194506020810190506111f4565b868310156112365784890154611232601f891682611130565b8355505b6001600288020188555050505b5050505050505b565b7f4e487b71000000000000000000000000000000000000000000000000000000005f52603160045260245ffd5b7f4e6f204d6f6e65790000000000000000000000000000000000000000000000005f82015250565b5f6112ad600883610e1d565b91506112b882611279565b602082019050919050565b5f6020820190508181035f8301526112da816112a1565b9050919050565b5f6112eb826109a3565b91506112f6836109a3565b9250828202611304816109a3565b9150828204841483151761131b5761131a610ec2565b5b5092915050565b7f4e487b71000000000000000000000000000000000000000000000000000000005f52601260045260245ffd5b5f611359826109a3565b9150611364836109a3565b92508261137457611373611322565b5b828204905092915050565b7f50657263656e74206d757374206265206265747765656e20312d3130300000005f82015250565b5f6113b3601d83610e1d565b91506113be8261137f565b602082019050919050565b5f6020820190508181035f8301526113e0816113a7565b9050919050565b7f546f74616c2070657263656e742063616e6e6f742065786365656420313030005f82015250565b5f61141b601f83610e1d565b9150611426826113e7565b602082019050919050565b5f6020820190508181035f8301526114488161140f565b9050919050565b61145882610caf565b67ffffffffffffffff81111561147157611470610abd565b5b61147b8254610f82565b6114868282856110de565b5f60209050601f8311600181146114b7575f84156114a5578287015190505b6114af858261114c565b865550611516565b601f1984166114c586610fc7565b5f5b828110156114ec578489015182556001820191506020850194506020810190506114c7565b868310156115095784890151611505601f891682611130565b8355505b6001600288020188555050505b505050505050565b5f81905092915050565b50565b5f6115365f8361151e565b915061154182611528565b5f82019050919050565b5f6115558261152b565b9150819050919050565b7f5472616e73666572206661696c65642e000000000000000000000000000000005f82015250565b5f611593601083610e1d565b915061159e8261155f565b602082019050919050565b5f6020820190508181035f8301526115c081611587565b905091905056fea2646970667358221220c5c49d3e8ae1a330952a0bfe3a88f1e585007628e8a98581bb32593ea7e56d8164736f6c634300081f0033",
					"opcodes": "PUSH1 0x80 PUSH1 0x40 MSTORE CALLVALUE DUP1 ISZERO PUSH1 0xE JUMPI PUSH0 PUSH0 REVERT JUMPDEST POP CALLER PUSH0 PUSH0 PUSH2 0x100 EXP DUP2 SLOAD DUP2 PUSH20 0xFFFFFFFFFFFFFFFFFFFFFFFFFFFFFFFFFFFFFFFF MUL NOT AND SWAP1 DUP4 PUSH20 0xFFFFFFFFFFFFFFFFFFFFFFFFFFFFFFFFFFFFFFFF AND MUL OR SWAP1 SSTORE POP PUSH2 0x15FD DUP1 PUSH2 0x5B PUSH0 CODECOPY PUSH0 RETURN INVALID PUSH1 0x80 PUSH1 0x40 MSTORE PUSH1 0x4 CALLDATASIZE LT PUSH2 0x6F JUMPI PUSH0 CALLDATALOAD PUSH1 0xE0 SHR DUP1 PUSH4 0x6E7301FD GT PUSH2 0x4D JUMPI DUP1 PUSH4 0x6E7301FD EQ PUSH2 0xEF JUMPI DUP1 PUSH4 0x7943DA69 EQ PUSH2 0xF9 JUMPI DUP1 PUSH4 0xB499B79A EQ PUSH2 0x10F JUMPI DUP1 PUSH4 0xE83A1B00 EQ PUSH2 0x137 JUMPI PUSH2 0x6F JUMP JUMPDEST DUP1 PUSH4 0x2A08DEDA EQ PUSH2 0x73 JUMPI DUP1 PUSH4 0x369A489D EQ PUSH2 0x9D JUMPI DUP1 PUSH4 0x3C8E3B52 EQ PUSH2 0xC5 JUMPI JUMPDEST PUSH0 PUSH0 REVERT JUMPDEST CALLVALUE DUP1 ISZERO PUSH2 0x7E JUMPI PUSH0 PUSH0 REVERT JUMPDEST POP PUSH2 0x87 PUSH2 0x161 JUMP JUMPDEST PUSH1 0x40 MLOAD PUSH2 0x94 SWAP2 SWAP1 PUSH2 0x9BB JUMP JUMPDEST PUSH1 0x40 MLOAD DUP1 SWAP2 SUB SWAP1 RETURN JUMPDEST CALLVALUE DUP1 ISZERO PUSH2 0xA8 JUMPI PUSH0 PUSH0 REVERT JUMPDEST POP PUSH2 0xC3 PUSH1 0x4 DUP1 CALLDATASIZE SUB DUP2 ADD SWAP1 PUSH2 0xBE SWAP2 SWAP1 PUSH2 0xA3F JUMP JUMPDEST PUSH2 0x168 JUMP JUMPDEST STOP JUMPDEST CALLVALUE DUP1 ISZERO PUSH2 0xD0 JUMPI PUSH0 PUSH0 REVERT JUMPDEST POP PUSH2 0xD9 PUSH2 0x3FE JUMP JUMPDEST PUSH1 0x40 MLOAD PUSH2 0xE6 SWAP2 SWAP1 PUSH2 0x9BB JUMP JUMPDEST PUSH1 0x40 MLOAD DUP1 SWAP2 SUB SWAP1 RETURN JUMPDEST PUSH2 0xF7 PUSH2 0x45B JUMP JUMPDEST STOP JUMPDEST CALLVALUE DUP1 ISZERO PUSH2 0x104 JUMPI PUSH0 PUSH0 REVERT JUMPDEST POP PUSH2 0x10D PUSH2 0x45D JUMP JUMPDEST STOP JUMPDEST CALLVALUE DUP1 ISZERO PUSH2 0x11A JUMPI PUSH0 PUSH0 REVERT JUMPDEST POP PUSH2 0x135 PUSH1 0x4 DUP1 CALLDATASIZE SUB DUP2 ADD SWAP1 PUSH2 0x130 SWAP2 SWAP1 PUSH2 0xC0B JUMP JUMPDEST PUSH2 0x55D JUMP JUMPDEST STOP JUMPDEST CALLVALUE DUP1 ISZERO PUSH2 0x142 JUMPI PUSH0 PUSH0 REVERT JUMPDEST POP PUSH2 0x14B PUSH2 0x754 JUMP JUMPDEST PUSH1 0x40 MLOAD PUSH2 0x158 SWAP2 SWAP1 PUSH2 0xDFD JUMP JUMPDEST PUSH1 0x40 MLOAD DUP1 SWAP2 SUB SWAP1 RETURN JUMPDEST PUSH0 SELFBALANCE SWAP1 POP SWAP1 JUMP JUMPDEST PUSH0 PUSH0 SWAP1 SLOAD SWAP1 PUSH2 0x100 EXP SWAP1 DIV PUSH20 0xFFFFFFFFFFFFFFFFFFFFFFFFFFFFFFFFFFFFFFFF AND PUSH20 0xFFFFFFFFFFFFFFFFFFFFFFFFFFFFFFFFFFFFFFFF AND CALLER PUSH20 0xFFFFFFFFFFFFFFFFFFFFFFFFFFFFFFFFFFFFFFFF AND EQ PUSH2 0x1F6 JUMPI PUSH1 0x40 MLOAD PUSH32 0x8C379A000000000000000000000000000000000000000000000000000000000 DUP2 MSTORE PUSH1 0x4 ADD PUSH2 0x1ED SWAP1 PUSH2 0xE77 JUMP JUMPDEST PUSH1 0x40 MLOAD DUP1 SWAP2 SUB SWAP1 REVERT JUMPDEST PUSH1 0x1 DUP1 DUP1 SLOAD SWAP1 POP LT PUSH2 0x3FB JUMPI PUSH0 PUSH0 SWAP1 POP JUMPDEST PUSH1 0x1 DUP1 SLOAD SWAP1 POP DUP2 LT ISZERO PUSH2 0x3F9 JUMPI DUP2 PUSH20 0xFFFFFFFFFFFFFFFFFFFFFFFFFFFFFFFFFFFFFFFF AND PUSH1 0x1 DUP3 DUP2 SLOAD DUP2 LT PUSH2 0x23F JUMPI PUSH2 0x23E PUSH2 0xE95 JUMP JUMPDEST JUMPDEST SWAP1 PUSH0 MSTORE PUSH1 0x20 PUSH0 KECCAK256 SWAP1 PUSH1 0x3 MUL ADD PUSH0 ADD PUSH0 SWAP1 SLOAD SWAP1 PUSH2 0x100 EXP SWAP1 DIV PUSH20 0xFFFFFFFFFFFFFFFFFFFFFFFFFFFFFFFFFFFFFFFF AND PUSH20 0xFFFFFFFFFFFFFFFFFFFFFFFFFFFFFFFFFFFFFFFF AND SUB PUSH2 0x3EC JUMPI PUSH0 DUP2 SWAP1 POP JUMPDEST PUSH1 0x1 DUP1 DUP1 SLOAD SWAP1 POP PUSH2 0x29E SWAP2 SWAP1 PUSH2 0xEEF JUMP JUMPDEST DUP2 LT ISZERO PUSH2 0x382 JUMPI PUSH1 0x1 DUP1 DUP3 PUSH2 0x2B3 SWAP2 SWAP1 PUSH2 0xF22 JUMP JUMPDEST DUP2 SLOAD DUP2 LT PUSH2 0x2C4 JUMPI PUSH2 0x2C3 PUSH2 0xE95 JUMP JUMPDEST JUMPDEST SWAP1 PUSH0 MSTORE PUSH1 0x20 PUSH0 KECCAK256 SWAP1 PUSH1 0x3 MUL ADD PUSH1 0x1 DUP3 DUP2 SLOAD DUP2 LT PUSH2 0x2E4 JUMPI PUSH2 0x2E3 PUSH2 0xE95 JUMP JUMPDEST JUMPDEST SWAP1 PUSH0 MSTORE PUSH1 0x20 PUSH0 KECCAK256 SWAP1 PUSH1 0x3 MUL ADD PUSH0 DUP3 ADD PUSH0 SWAP1 SLOAD SWAP1 PUSH2 0x100 EXP SWAP1 DIV PUSH20 0xFFFFFFFFFFFFFFFFFFFFFFFFFFFFFFFFFFFFFFFF AND DUP2 PUSH0 ADD PUSH0 PUSH2 0x100 EXP DUP2 SLOAD DUP2 PUSH20 0xFFFFFFFFFFFFFFFFFFFFFFFFFFFFFFFFFFFFFFFF MUL NOT AND SWAP1 DUP4 PUSH20 0xFFFFFFFFFFFFFFFFFFFFFFFFFFFFFFFFFFFFFFFF AND MUL OR SWAP1 SSTORE POP PUSH1 0x1 DUP3 ADD DUP2 PUSH1 0x1 ADD SWAP1 DUP2 PUSH2 0x367 SWAP2 SWAP1 PUSH2 0x1167 JUMP JUMPDEST POP PUSH1 0x2 DUP3 ADD SLOAD DUP2 PUSH1 0x2 ADD SSTORE SWAP1 POP POP DUP1 DUP1 PUSH1 0x1 ADD SWAP2 POP POP PUSH2 0x28D JUMP JUMPDEST POP PUSH1 0x1 DUP1 SLOAD DUP1 PUSH2 0x395 JUMPI PUSH2 0x394 PUSH2 0x124C JUMP JUMPDEST JUMPDEST PUSH1 0x1 SWAP1 SUB DUP2 DUP2 SWAP1 PUSH0 MSTORE PUSH1 0x20 PUSH0 KECCAK256 SWAP1 PUSH1 0x3 MUL ADD PUSH0 PUSH0 DUP3 ADD PUSH0 PUSH2 0x100 EXP DUP2 SLOAD SWAP1 PUSH20 0xFFFFFFFFFFFFFFFFFFFFFFFFFFFFFFFFFFFFFFFF MUL NOT AND SWAP1 SSTORE PUSH1 0x1 DUP3 ADD PUSH0 PUSH2 0x3DC SWAP2 SWAP1 PUSH2 0x94B JUMP JUMPDEST PUSH1 0x2 DUP3 ADD PUSH0 SWAP1 SSTORE POP POP SWAP1 SSTORE PUSH2 0x3F9 JUMP JUMPDEST DUP1 DUP1 PUSH1 0x1 ADD SWAP2 POP POP PUSH2 0x207 JUMP JUMPDEST POP JUMPDEST POP JUMP JUMPDEST PUSH0 PUSH0 PUSH0 SWAP1 POP PUSH0 PUSH0 SWAP1 POP JUMPDEST PUSH1 0x1 DUP1 SLOAD SWAP1 POP DUP2 LT ISZERO PUSH2 0x453 JUMPI PUSH1 0x1 DUP2 DUP2 SLOAD DUP2 LT PUSH2 0x429 JUMPI PUSH2 0x428 PUSH2 0xE95 JUMP JUMPDEST JUMPDEST SWAP1 PUSH0 MSTORE PUSH1 0x20 PUSH0 KECCAK256 SWAP1 PUSH1 0x3 MUL ADD PUSH1 0x2 ADD SLOAD DUP3 PUSH2 0x444 SWAP2 SWAP1 PUSH2 0xF22 JUMP JUMPDEST SWAP2 POP DUP1 DUP1 PUSH1 0x1 ADD SWAP2 POP POP PUSH2 0x408 JUMP JUMPDEST POP DUP1 SWAP2 POP POP SWAP1 JUMP JUMPDEST JUMP JUMPDEST PUSH0 SELFBALANCE GT PUSH2 0x49F JUMPI PUSH1 0x40 MLOAD PUSH32 0x8C379A000000000000000000000000000000000000000000000000000000000 DUP2 MSTORE PUSH1 0x4 ADD PUSH2 0x496 SWAP1 PUSH2 0x12C3 JUMP JUMPDEST PUSH1 0x40 MLOAD DUP1 SWAP2 SUB SWAP1 REVERT JUMPDEST PUSH1 0x1 DUP1 DUP1 SLOAD SWAP1 POP LT PUSH2 0x55B JUMPI PUSH0 SELFBALANCE SWAP1 POP PUSH0 PUSH0 SWAP1 POP JUMPDEST PUSH1 0x1 DUP1 SLOAD SWAP1 POP DUP2 LT ISZERO PUSH2 0x558 JUMPI PUSH0 PUSH1 0x64 PUSH1 0x1 DUP4 DUP2 SLOAD DUP2 LT PUSH2 0x4D8 JUMPI PUSH2 0x4D7 PUSH2 0xE95 JUMP JUMPDEST JUMPDEST SWAP1 PUSH0 MSTORE PUSH1 0x20 PUSH0 KECCAK256 SWAP1 PUSH1 0x3 MUL ADD PUSH1 0x2 ADD SLOAD DUP5 PUSH2 0x4F3 SWAP2 SWAP1 PUSH2 0x12E1 JUMP JUMPDEST PUSH2 0x4FD SWAP2 SWAP1 PUSH2 0x134F JUMP JUMPDEST SWAP1 POP PUSH2 0x54A PUSH1 0x1 DUP4 DUP2 SLOAD DUP2 LT PUSH2 0x516 JUMPI PUSH2 0x515 PUSH2 0xE95 JUMP JUMPDEST JUMPDEST SWAP1 PUSH0 MSTORE PUSH1 0x20 PUSH0 KECCAK256 SWAP1 PUSH1 0x3 MUL ADD PUSH0 ADD PUSH0 SWAP1 SLOAD SWAP1 PUSH2 0x100 EXP SWAP1 DIV PUSH20 0xFFFFFFFFFFFFFFFFFFFFFFFFFFFFFFFFFFFFFFFF AND DUP3 PUSH2 0x89E JUMP JUMPDEST POP DUP1 DUP1 PUSH1 0x1 ADD SWAP2 POP POP PUSH2 0x4B4 JUMP JUMPDEST POP POP JUMPDEST JUMP JUMPDEST PUSH0 PUSH0 SWAP1 SLOAD SWAP1 PUSH2 0x100 EXP SWAP1 DIV PUSH20 0xFFFFFFFFFFFFFFFFFFFFFFFFFFFFFFFFFFFFFFFF AND PUSH20 0xFFFFFFFFFFFFFFFFFFFFFFFFFFFFFFFFFFFFFFFF AND CALLER PUSH20 0xFFFFFFFFFFFFFFFFFFFFFFFFFFFFFFFFFFFFFFFF AND EQ PUSH2 0x5EB JUMPI PUSH1 0x40 MLOAD PUSH32 0x8C379A000000000000000000000000000000000000000000000000000000000 DUP2 MSTORE PUSH1 0x4 ADD PUSH2 0x5E2 SWAP1 PUSH2 0xE77 JUMP JUMPDEST PUSH1 0x40 MLOAD DUP1 SWAP2 SUB SWAP1 REVERT JUMPDEST PUSH0 DUP2 GT DUP1 ISZERO PUSH2 0x5FB JUMPI POP PUSH1 0x64 DUP2 GT ISZERO JUMPDEST PUSH2 0x63A JUMPI PUSH1 0x40 MLOAD PUSH32 0x8C379A000000000000000000000000000000000000000000000000000000000 DUP2 MSTORE PUSH1 0x4 ADD PUSH2 0x631 SWAP1 PUSH2 0x13C9 JUMP JUMPDEST PUSH1 0x40 MLOAD DUP1 SWAP2 SUB SWAP1 REVERT JUMPDEST PUSH1 0x64 DUP2 PUSH2 0x645 PUSH2 0x3FE JUMP JUMPDEST PUSH2 0x64F SWAP2 SWAP1 PUSH2 0xF22 JUMP JUMPDEST GT ISZERO PUSH2 0x690 JUMPI PUSH1 0x40 MLOAD PUSH32 0x8C379A000000000000000000000000000000000000000000000000000000000 DUP2 MSTORE PUSH1 0x4 ADD PUSH2 0x687 SWAP1 PUSH2 0x1431 JUMP JUMPDEST PUSH1 0x40 MLOAD DUP1 SWAP2 SUB SWAP1 REVERT JUMPDEST PUSH1 0x1 PUSH1 0x40 MLOAD DUP1 PUSH1 0x60 ADD PUSH1 0x40 MSTORE DUP1 DUP6 PUSH20 0xFFFFFFFFFFFFFFFFFFFFFFFFFFFFFFFFFFFFFFFF AND DUP2 MSTORE PUSH1 0x20 ADD DUP5 DUP2 MSTORE PUSH1 0x20 ADD DUP4 DUP2 MSTORE POP SWAP1 DUP1 PUSH1 0x1 DUP2 SLOAD ADD DUP1 DUP3 SSTORE DUP1 SWAP2 POP POP PUSH1 0x1 SWAP1 SUB SWAP1 PUSH0 MSTORE PUSH1 0x20 PUSH0 KECCAK256 SWAP1 PUSH1 0x3 MUL ADD PUSH0 SWAP1 SWAP2 SWAP1 SWAP2 SWAP1 SWAP2 POP PUSH0 DUP3 ADD MLOAD DUP2 PUSH0 ADD PUSH0 PUSH2 0x100 EXP DUP2 SLOAD DUP2 PUSH20 0xFFFFFFFFFFFFFFFFFFFFFFFFFFFFFFFFFFFFFFFF MUL NOT AND SWAP1 DUP4 PUSH20 0xFFFFFFFFFFFFFFFFFFFFFFFFFFFFFFFFFFFFFFFF AND MUL OR SWAP1 SSTORE POP PUSH1 0x20 DUP3 ADD MLOAD DUP2 PUSH1 0x1 ADD SWAP1 DUP2 PUSH2 0x742 SWAP2 SWAP1 PUSH2 0x144F JUMP JUMPDEST POP PUSH1 0x40 DUP3 ADD MLOAD DUP2 PUSH1 0x2 ADD SSTORE POP POP POP POP POP JUMP JUMPDEST PUSH1 0x60 PUSH1 0x1 DUP1 SLOAD DUP1 PUSH1 0x20 MUL PUSH1 0x20 ADD PUSH1 0x40 MLOAD SWAP1 DUP2 ADD PUSH1 0x40 MSTORE DUP1 SWAP3 SWAP2 SWAP1 DUP2 DUP2 MSTORE PUSH1 0x20 ADD PUSH0 SWAP1 JUMPDEST DUP3 DUP3 LT ISZERO PUSH2 0x895 JUMPI DUP4 DUP3 SWAP1 PUSH0 MSTORE PUSH1 0x20 PUSH0 KECCAK256 SWAP1 PUSH1 0x3 MUL ADD PUSH1 0x40 MLOAD DUP1 PUSH1 0x60 ADD PUSH1 0x40 MSTORE SWAP1 DUP2 PUSH0 DUP3 ADD PUSH0 SWAP1 SLOAD SWAP1 PUSH2 0x100 EXP SWAP1 DIV PUSH20 0xFFFFFFFFFFFFFFFFFFFFFFFFFFFFFFFFFFFFFFFF AND PUSH20 0xFFFFFFFFFFFFFFFFFFFFFFFFFFFFFFFFFFFFFFFF AND PUSH20 0xFFFFFFFFFFFFFFFFFFFFFFFFFFFFFFFFFFFFFFFF AND DUP2 MSTORE PUSH1 0x20 ADD PUSH1 0x1 DUP3 ADD DUP1 SLOAD PUSH2 0x7FC SWAP1 PUSH2 0xF82 JUMP JUMPDEST DUP1 PUSH1 0x1F ADD PUSH1 0x20 DUP1 SWAP2 DIV MUL PUSH1 0x20 ADD PUSH1 0x40 MLOAD SWAP1 DUP2 ADD PUSH1 0x40 MSTORE DUP1 SWAP3 SWAP2 SWAP1 DUP2 DUP2 MSTORE PUSH1 0x20 ADD DUP3 DUP1 SLOAD PUSH2 0x828 SWAP1 PUSH2 0xF82 JUMP JUMPDEST DUP1 ISZERO PUSH2 0x873 JUMPI DUP1 PUSH1 0x1F LT PUSH2 0x84A JUMPI PUSH2 0x100 DUP1 DUP4 SLOAD DIV MUL DUP4 MSTORE SWAP2 PUSH1 0x20 ADD SWAP2 PUSH2 0x873 JUMP JUMPDEST DUP3 ADD SWAP2 SWAP1 PUSH0 MSTORE PUSH1 0x20 PUSH0 KECCAK256 SWAP1 JUMPDEST DUP2 SLOAD DUP2 MSTORE SWAP1 PUSH1 0x1 ADD SWAP1 PUSH1 0x20 ADD DUP1 DUP4 GT PUSH2 0x856 JUMPI DUP3 SWAP1 SUB PUSH1 0x1F AND DUP3 ADD SWAP2 JUMPDEST POP POP POP POP POP DUP2 MSTORE PUSH1 0x20 ADD PUSH1 0x2 DUP3 ADD SLOAD DUP2 MSTORE POP POP DUP2 MSTORE PUSH1 0x20 ADD SWAP1 PUSH1 0x1 ADD SWAP1 PUSH2 0x777 JUMP JUMPDEST POP POP POP POP SWAP1 POP SWAP1 JUMP JUMPDEST PUSH0 DUP3 PUSH20 0xFFFFFFFFFFFFFFFFFFFFFFFFFFFFFFFFFFFFFFFF AND DUP3 PUSH1 0x40 MLOAD PUSH2 0x8C3 SWAP1 PUSH2 0x154B JUMP JUMPDEST PUSH0 PUSH1 0x40 MLOAD DUP1 DUP4 SUB DUP2 DUP6 DUP8 GAS CALL SWAP3 POP POP POP RETURNDATASIZE DUP1 PUSH0 DUP2 EQ PUSH2 0x8FD JUMPI PUSH1 0x40 MLOAD SWAP2 POP PUSH1 0x1F NOT PUSH1 0x3F RETURNDATASIZE ADD AND DUP3 ADD PUSH1 0x40 MSTORE RETURNDATASIZE DUP3 MSTORE RETURNDATASIZE PUSH0 PUSH1 0x20 DUP5 ADD RETURNDATACOPY PUSH2 0x902 JUMP JUMPDEST PUSH1 0x60 SWAP2 POP JUMPDEST POP POP SWAP1 POP DUP1 PUSH2 0x946 JUMPI PUSH1 0x40 MLOAD PUSH32 0x8C379A000000000000000000000000000000000000000000000000000000000 DUP2 MSTORE PUSH1 0x4 ADD PUSH2 0x93D SWAP1 PUSH2 0x15A9 JUMP JUMPDEST PUSH1 0x40 MLOAD DUP1 SWAP2 SUB SWAP1 REVERT JUMPDEST POP POP POP JUMP JUMPDEST POP DUP1 SLOAD PUSH2 0x957 SWAP1 PUSH2 0xF82 JUMP JUMPDEST PUSH0 DUP3 SSTORE DUP1 PUSH1 0x1F LT PUSH2 0x968 JUMPI POP PUSH2 0x985 JUMP JUMPDEST PUSH1 0x1F ADD PUSH1 0x20 SWAP1 DIV SWAP1 PUSH0 MSTORE PUSH1 0x20 PUSH0 KECCAK256 SWAP1 DUP2 ADD SWAP1 PUSH2 0x984 SWAP2 SWAP1 PUSH2 0x988 JUMP JUMPDEST JUMPDEST POP JUMP JUMPDEST JUMPDEST DUP1 DUP3 GT ISZERO PUSH2 0x99F JUMPI PUSH0 DUP2 PUSH0 SWAP1 SSTORE POP PUSH1 0x1 ADD PUSH2 0x989 JUMP JUMPDEST POP SWAP1 JUMP JUMPDEST PUSH0 DUP2 SWAP1 POP SWAP2 SWAP1 POP JUMP JUMPDEST PUSH2 0x9B5 DUP2 PUSH2 0x9A3 JUMP JUMPDEST DUP3 MSTORE POP POP JUMP JUMPDEST PUSH0 PUSH1 0x20 DUP3 ADD SWAP1 POP PUSH2 0x9CE PUSH0 DUP4 ADD DUP5 PUSH2 0x9AC JUMP JUMPDEST SWAP3 SWAP2 POP POP JUMP JUMPDEST PUSH0 PUSH1 0x40 MLOAD SWAP1 POP SWAP1 JUMP JUMPDEST PUSH0 PUSH0 REVERT JUMPDEST PUSH0 PUSH0 REVERT JUMPDEST PUSH0 PUSH20 0xFFFFFFFFFFFFFFFFFFFFFFFFFFFFFFFFFFFFFFFF DUP3 AND SWAP1 POP SWAP2 SWAP1 POP JUMP JUMPDEST PUSH0 PUSH2 0xA0E DUP3 PUSH2 0x9E5 JUMP JUMPDEST SWAP1 POP SWAP2 SWAP1 POP JUMP JUMPDEST PUSH2 0xA1E DUP2 PUSH2 0xA04 JUMP JUMPDEST DUP2 EQ PUSH2 0xA28 JUMPI PUSH0 PUSH0 REVERT JUMPDEST POP JUMP JUMPDEST PUSH0 DUP2 CALLDATALOAD SWAP1 POP PUSH2 0xA39 DUP2 PUSH2 0xA15 JUMP JUMPDEST SWAP3 SWAP2 POP POP JUMP JUMPDEST PUSH0 PUSH1 0x20 DUP3 DUP5 SUB SLT ISZERO PUSH2 0xA54 JUMPI PUSH2 0xA53 PUSH2 0x9DD JUMP JUMPDEST JUMPDEST PUSH0 PUSH2 0xA61 DUP5 DUP3 DUP6 ADD PUSH2 0xA2B JUMP JUMPDEST SWAP2 POP POP SWAP3 SWAP2 POP POP JUMP JUMPDEST PUSH0 PUSH2 0xA74 DUP3 PUSH2 0x9E5 JUMP JUMPDEST SWAP1 POP SWAP2 SWAP1 POP JUMP JUMPDEST PUSH2 0xA84 DUP2 PUSH2 0xA6A JUMP JUMPDEST DUP2 EQ PUSH2 0xA8E JUMPI PUSH0 PUSH0 REVERT JUMPDEST POP JUMP JUMPDEST PUSH0 DUP2 CALLDATALOAD SWAP1 POP PUSH2 0xA9F DUP2 PUSH2 0xA7B JUMP JUMPDEST SWAP3 SWAP2 POP POP JUMP JUMPDEST PUSH0 PUSH0 REVERT JUMPDEST PUSH0 PUSH0 REVERT JUMPDEST PUSH0 PUSH1 0x1F NOT PUSH1 0x1F DUP4 ADD AND SWAP1 POP SWAP2 SWAP1 POP JUMP JUMPDEST PUSH32 0x4E487B7100000000000000000000000000000000000000000000000000000000 PUSH0 MSTORE PUSH1 0x41 PUSH1 0x4 MSTORE PUSH1 0x24 PUSH0 REVERT JUMPDEST PUSH2 0xAF3 DUP3 PUSH2 0xAAD JUMP JUMPDEST DUP2 ADD DUP2 DUP2 LT PUSH8 0xFFFFFFFFFFFFFFFF DUP3 GT OR ISZERO PUSH2 0xB12 JUMPI PUSH2 0xB11 PUSH2 0xABD JUMP JUMPDEST JUMPDEST DUP1 PUSH1 0x40 MSTORE POP POP POP JUMP JUMPDEST PUSH0 PUSH2 0xB24 PUSH2 0x9D4 JUMP JUMPDEST SWAP1 POP PUSH2 0xB30 DUP3 DUP3 PUSH2 0xAEA JUMP JUMPDEST SWAP2 SWAP1 POP JUMP JUMPDEST PUSH0 PUSH8 0xFFFFFFFFFFFFFFFF DUP3 GT ISZERO PUSH2 0xB4F JUMPI PUSH2 0xB4E PUSH2 0xABD JUMP JUMPDEST JUMPDEST PUSH2 0xB58 DUP3 PUSH2 0xAAD JUMP JUMPDEST SWAP1 POP PUSH1 0x20 DUP2 ADD SWAP1 POP SWAP2 SWAP1 POP JUMP JUMPDEST DUP3 DUP2 DUP4 CALLDATACOPY PUSH0 DUP4 DUP4 ADD MSTORE POP POP POP JUMP JUMPDEST PUSH0 PUSH2 0xB85 PUSH2 0xB80 DUP5 PUSH2 0xB35 JUMP JUMPDEST PUSH2 0xB1B JUMP JUMPDEST SWAP1 POP DUP3 DUP2 MSTORE PUSH1 0x20 DUP2 ADD DUP5 DUP5 DUP5 ADD GT ISZERO PUSH2 0xBA1 JUMPI PUSH2 0xBA0 PUSH2 0xAA9 JUMP JUMPDEST JUMPDEST PUSH2 0xBAC DUP5 DUP3 DUP6 PUSH2 0xB65 JUMP JUMPDEST POP SWAP4 SWAP3 POP POP POP JUMP JUMPDEST PUSH0 DUP3 PUSH1 0x1F DUP4 ADD SLT PUSH2 0xBC8 JUMPI PUSH2 0xBC7 PUSH2 0xAA5 JUMP JUMPDEST JUMPDEST DUP2 CALLDATALOAD PUSH2 0xBD8 DUP5 DUP3 PUSH1 0x20 DUP7 ADD PUSH2 0xB73 JUMP JUMPDEST SWAP2 POP POP SWAP3 SWAP2 POP POP JUMP JUMPDEST PUSH2 0xBEA DUP2 PUSH2 0x9A3 JUMP JUMPDEST DUP2 EQ PUSH2 0xBF4 JUMPI PUSH0 PUSH0 REVERT JUMPDEST POP JUMP JUMPDEST PUSH0 DUP2 CALLDATALOAD SWAP1 POP PUSH2 0xC05 DUP2 PUSH2 0xBE1 JUMP JUMPDEST SWAP3 SWAP2 POP POP JUMP JUMPDEST PUSH0 PUSH0 PUSH0 PUSH1 0x60 DUP5 DUP7 SUB SLT ISZERO PUSH2 0xC22 JUMPI PUSH2 0xC21 PUSH2 0x9DD JUMP JUMPDEST JUMPDEST PUSH0 PUSH2 0xC2F DUP7 DUP3 DUP8 ADD PUSH2 0xA91 JUMP JUMPDEST SWAP4 POP POP PUSH1 0x20 DUP5 ADD CALLDATALOAD PUSH8 0xFFFFFFFFFFFFFFFF DUP2 GT ISZERO PUSH2 0xC50 JUMPI PUSH2 0xC4F PUSH2 0x9E1 JUMP JUMPDEST JUMPDEST PUSH2 0xC5C DUP7 DUP3 DUP8 ADD PUSH2 0xBB4 JUMP JUMPDEST SWAP3 POP POP PUSH1 0x40 PUSH2 0xC6D DUP7 DUP3 DUP8 ADD PUSH2 0xBF7 JUMP JUMPDEST SWAP2 POP POP SWAP3 POP SWAP3 POP SWAP3 JUMP JUMPDEST PUSH0 DUP2 MLOAD SWAP1 POP SWAP2 SWAP1 POP JUMP JUMPDEST PUSH0 DUP3 DUP3 MSTORE PUSH1 0x20 DUP3 ADD SWAP1 POP SWAP3 SWAP2 POP POP JUMP JUMPDEST PUSH0 DUP2 SWAP1 POP PUSH1 0x20 DUP3 ADD SWAP1 POP SWAP2 SWAP1 POP JUMP JUMPDEST PUSH2 0xCA9 DUP2 PUSH2 0xA6A JUMP JUMPDEST DUP3 MSTORE POP POP JUMP JUMPDEST PUSH0 DUP2 MLOAD SWAP1 POP SWAP2 SWAP1 POP JUMP JUMPDEST PUSH0 DUP3 DUP3 MSTORE PUSH1 0x20 DUP3 ADD SWAP1 POP SWAP3 SWAP2 POP POP JUMP JUMPDEST DUP3 DUP2 DUP4 MCOPY PUSH0 DUP4 DUP4 ADD MSTORE POP POP POP JUMP JUMPDEST PUSH0 PUSH2 0xCE1 DUP3 PUSH2 0xCAF JUMP JUMPDEST PUSH2 0xCEB DUP2 DUP6 PUSH2 0xCB9 JUMP JUMPDEST SWAP4 POP PUSH2 0xCFB DUP2 DUP6 PUSH1 0x20 DUP7 ADD PUSH2 0xCC9 JUMP JUMPDEST PUSH2 0xD04 DUP2 PUSH2 0xAAD JUMP JUMPDEST DUP5 ADD SWAP2 POP POP SWAP3 SWAP2 POP POP JUMP JUMPDEST PUSH2 0xD18 DUP2 PUSH2 0x9A3 JUMP JUMPDEST DUP3 MSTORE POP POP JUMP JUMPDEST PUSH0 PUSH1 0x60 DUP4 ADD PUSH0 DUP4 ADD MLOAD PUSH2 0xD33 PUSH0 DUP7 ADD DUP3 PUSH2 0xCA0 JUMP JUMPDEST POP PUSH1 0x20 DUP4 ADD MLOAD DUP5 DUP3 SUB PUSH1 0x20 DUP7 ADD MSTORE PUSH2 0xD4B DUP3 DUP3 PUSH2 0xCD7 JUMP JUMPDEST SWAP2 POP POP PUSH1 0x40 DUP4 ADD MLOAD PUSH2 0xD60 PUSH1 0x40 DUP7 ADD DUP3 PUSH2 0xD0F JUMP JUMPDEST POP DUP1 SWAP2 POP POP SWAP3 SWAP2 POP POP JUMP JUMPDEST PUSH0 PUSH2 0xD76 DUP4 DUP4 PUSH2 0xD1E JUMP JUMPDEST SWAP1 POP SWAP3 SWAP2 POP POP JUMP JUMPDEST PUSH0 PUSH1 0x20 DUP3 ADD SWAP1 POP SWAP2 SWAP1 POP JUMP JUMPDEST PUSH0 PUSH2 0xD94 DUP3 PUSH2 0xC77 JUMP JUMPDEST PUSH2 0xD9E DUP2 DUP6 PUSH2 0xC81 JUMP JUMPDEST SWAP4 POP DUP4 PUSH1 0x20 DUP3 MUL DUP6 ADD PUSH2 0xDB0 DUP6 PUSH2 0xC91 JUMP JUMPDEST DUP1 PUSH0 JUMPDEST DUP6 DUP2 LT ISZERO PUSH2 0xDEB JUMPI DUP5 DUP5 SUB DUP10 MSTORE DUP2 MLOAD PUSH2 0xDCC DUP6 DUP3 PUSH2 0xD6B JUMP JUMPDEST SWAP5 POP PUSH2 0xDD7 DUP4 PUSH2 0xD7E JUMP JUMPDEST SWAP3 POP PUSH1 0x20 DUP11 ADD SWAP10 POP POP PUSH1 0x1 DUP2 ADD SWAP1 POP PUSH2 0xDB3 JUMP JUMPDEST POP DUP3 SWAP8 POP DUP8 SWAP6 POP POP POP POP POP POP SWAP3 SWAP2 POP POP JUMP JUMPDEST PUSH0 PUSH1 0x20 DUP3 ADD SWAP1 POP DUP2 DUP2 SUB PUSH0 DUP4 ADD MSTORE PUSH2 0xE15 DUP2 DUP5 PUSH2 0xD8A JUMP JUMPDEST SWAP1 POP SWAP3 SWAP2 POP POP JUMP JUMPDEST PUSH0 DUP3 DUP3 MSTORE PUSH1 0x20 DUP3 ADD SWAP1 POP SWAP3 SWAP2 POP POP JUMP JUMPDEST PUSH32 0x4F6E6C79206F776E65722063616E2063616C6C00000000000000000000000000 PUSH0 DUP3 ADD MSTORE POP JUMP JUMPDEST PUSH0 PUSH2 0xE61 PUSH1 0x13 DUP4 PUSH2 0xE1D JUMP JUMPDEST SWAP2 POP PUSH2 0xE6C DUP3 PUSH2 0xE2D JUMP JUMPDEST PUSH1 0x20 DUP3 ADD SWAP1 POP SWAP2 SWAP1 POP JUMP JUMPDEST PUSH0 PUSH1 0x20 DUP3 ADD SWAP1 POP DUP2 DUP2 SUB PUSH0 DUP4 ADD MSTORE PUSH2 0xE8E DUP2 PUSH2 0xE55 JUMP JUMPDEST SWAP1 POP SWAP2 SWAP1 POP JUMP JUMPDEST PUSH32 0x4E487B7100000000000000000000000000000000000000000000000000000000 PUSH0 MSTORE PUSH1 0x32 PUSH1 0x4 MSTORE PUSH1 0x24 PUSH0 REVERT JUMPDEST PUSH32 0x4E487B7100000000000000000000000000000000000000000000000000000000 PUSH0 MSTORE PUSH1 0x11 PUSH1 0x4 MSTORE PUSH1 0x24 PUSH0 REVERT JUMPDEST PUSH0 PUSH2 0xEF9 DUP3 PUSH2 0x9A3 JUMP JUMPDEST SWAP2 POP PUSH2 0xF04 DUP4 PUSH2 0x9A3 JUMP JUMPDEST SWAP3 POP DUP3 DUP3 SUB SWAP1 POP DUP2 DUP2 GT ISZERO PUSH2 0xF1C JUMPI PUSH2 0xF1B PUSH2 0xEC2 JUMP JUMPDEST JUMPDEST SWAP3 SWAP2 POP POP JUMP JUMPDEST PUSH0 PUSH2 0xF2C DUP3 PUSH2 0x9A3 JUMP JUMPDEST SWAP2 POP PUSH2 0xF37 DUP4 PUSH2 0x9A3 JUMP JUMPDEST SWAP3 POP DUP3 DUP3 ADD SWAP1 POP DUP1 DUP3 GT ISZERO PUSH2 0xF4F JUMPI PUSH2 0xF4E PUSH2 0xEC2 JUMP JUMPDEST JUMPDEST SWAP3 SWAP2 POP POP JUMP JUMPDEST PUSH32 0x4E487B7100000000000000000000000000000000000000000000000000000000 PUSH0 MSTORE PUSH1 0x22 PUSH1 0x4 MSTORE PUSH1 0x24 PUSH0 REVERT JUMPDEST PUSH0 PUSH1 0x2 DUP3 DIV SWAP1 POP PUSH1 0x1 DUP3 AND DUP1 PUSH2 0xF99 JUMPI PUSH1 0x7F DUP3 AND SWAP2 POP JUMPDEST PUSH1 0x20 DUP3 LT DUP2 SUB PUSH2 0xFAC JUMPI PUSH2 0xFAB PUSH2 0xF55 JUMP JUMPDEST JUMPDEST POP SWAP2 SWAP1 POP JUMP JUMPDEST PUSH0 DUP2 SLOAD SWAP1 POP PUSH2 0xFC0 DUP2 PUSH2 0xF82 JUMP JUMPDEST SWAP1 POP SWAP2 SWAP1 POP JUMP JUMPDEST PUSH0 DUP2 SWAP1 POP DUP2 PUSH0 MSTORE PUSH1 0x20 PUSH0 KECCAK256 SWAP1 POP SWAP2 SWAP1 POP JUMP JUMPDEST PUSH0 PUSH1 0x20 PUSH1 0x1F DUP4 ADD DIV SWAP1 POP SWAP2 SWAP1 POP JUMP JUMPDEST PUSH0 DUP3 DUP3 SHL SWAP1 POP SWAP3 SWAP2 POP POP JUMP JUMPDEST PUSH0 PUSH1 0x8 DUP4 MUL PUSH2 0x1023 PUSH32 0xFFFFFFFFFFFFFFFFFFFFFFFFFFFFFFFFFFFFFFFFFFFFFFFFFFFFFFFFFFFFFFFF DUP3 PUSH2 0xFE8 JUMP JUMPDEST PUSH2 0x102D DUP7 DUP4 PUSH2 0xFE8 JUMP JUMPDEST SWAP6 POP DUP1 NOT DUP5 AND SWAP4 POP DUP1 DUP7 AND DUP5 OR SWAP3 POP POP POP SWAP4 SWAP3 POP POP POP JUMP JUMPDEST PUSH0 DUP2 SWAP1 POP SWAP2 SWAP1 POP JUMP JUMPDEST PUSH0 PUSH2 0x1068 PUSH2 0x1063 PUSH2 0x105E DUP5 PUSH2 0x9A3 JUMP JUMPDEST PUSH2 0x1045 JUMP JUMPDEST PUSH2 0x9A3 JUMP JUMPDEST SWAP1 POP SWAP2 SWAP1 POP JUMP JUMPDEST PUSH0 DUP2 SWAP1 POP SWAP2 SWAP1 POP JUMP JUMPDEST PUSH2 0x1081 DUP4 PUSH2 0x104E JUMP JUMPDEST PUSH2 0x1095 PUSH2 0x108D DUP3 PUSH2 0x106F JUMP JUMPDEST DUP5 DUP5 SLOAD PUSH2 0xFF4 JUMP JUMPDEST DUP3 SSTORE POP POP POP POP JUMP JUMPDEST PUSH0 PUSH0 SWAP1 POP SWAP1 JUMP JUMPDEST PUSH2 0x10AC PUSH2 0x109D JUMP JUMPDEST PUSH2 0x10B7 DUP2 DUP5 DUP5 PUSH2 0x1078 JUMP JUMPDEST POP POP POP JUMP JUMPDEST JUMPDEST DUP2 DUP2 LT ISZERO PUSH2 0x10DA JUMPI PUSH2 0x10CF PUSH0 DUP3 PUSH2 0x10A4 JUMP JUMPDEST PUSH1 0x1 DUP2 ADD SWAP1 POP PUSH2 0x10BD JUMP JUMPDEST POP POP JUMP JUMPDEST PUSH1 0x1F DUP3 GT ISZERO PUSH2 0x111F JUMPI PUSH2 0x10F0 DUP2 PUSH2 0xFC7 JUMP JUMPDEST PUSH2 0x10F9 DUP5 PUSH2 0xFD9 JUMP JUMPDEST DUP2 ADD PUSH1 0x20 DUP6 LT ISZERO PUSH2 0x1108 JUMPI DUP2 SWAP1 POP JUMPDEST PUSH2 0x111C PUSH2 0x1114 DUP6 PUSH2 0xFD9 JUMP JUMPDEST DUP4 ADD DUP3 PUSH2 0x10BC JUMP JUMPDEST POP POP JUMPDEST POP POP POP JUMP JUMPDEST PUSH0 DUP3 DUP3 SHR SWAP1 POP SWAP3 SWAP2 POP POP JUMP JUMPDEST PUSH0 PUSH2 0x113F PUSH0 NOT DUP5 PUSH1 0x8 MUL PUSH2 0x1124 JUMP JUMPDEST NOT DUP1 DUP4 AND SWAP2 POP POP SWAP3 SWAP2 POP POP JUMP JUMPDEST PUSH0 PUSH2 0x1157 DUP4 DUP4 PUSH2 0x1130 JUMP JUMPDEST SWAP2 POP DUP3 PUSH1 0x2 MUL DUP3 OR SWAP1 POP SWAP3 SWAP2 POP POP JUMP JUMPDEST DUP2 DUP2 SUB PUSH2 0x1175 JUMPI POP POP PUSH2 0x124A JUMP JUMPDEST PUSH2 0x117E DUP3 PUSH2 0xFB2 JUMP JUMPDEST PUSH8 0xFFFFFFFFFFFFFFFF DUP2 GT ISZERO PUSH2 0x1197 JUMPI PUSH2 0x1196 PUSH2 0xABD JUMP JUMPDEST JUMPDEST PUSH2 0x11A1 DUP3 SLOAD PUSH2 0xF82 JUMP JUMPDEST PUSH2 0x11AC DUP3 DUP3 DUP6 PUSH2 0x10DE JUMP JUMPDEST PUSH0 PUSH1 0x1F DUP4 GT PUSH1 0x1 DUP2 EQ PUSH2 0x11D9 JUMPI PUSH0 DUP5 ISZERO PUSH2 0x11C7 JUMPI DUP3 DUP8 ADD SLOAD SWAP1 POP JUMPDEST PUSH2 0x11D1 DUP6 DUP3 PUSH2 0x114C JUMP JUMPDEST DUP7 SSTORE POP PUSH2 0x1243 JUMP JUMPDEST PUSH1 0x1F NOT DUP5 AND PUSH2 0x11E7 DUP8 PUSH2 0xFC7 JUMP JUMPDEST SWAP7 POP PUSH2 0x11F2 DUP7 PUSH2 0xFC7 JUMP JUMPDEST PUSH0 JUMPDEST DUP3 DUP2 LT ISZERO PUSH2 0x1219 JUMPI DUP5 DUP10 ADD SLOAD DUP3 SSTORE PUSH1 0x1 DUP3 ADD SWAP2 POP PUSH1 0x1 DUP6 ADD SWAP5 POP PUSH1 0x20 DUP2 ADD SWAP1 POP PUSH2 0x11F4 JUMP JUMPDEST DUP7 DUP4 LT ISZERO PUSH2 0x1236 JUMPI DUP5 DUP10 ADD SLOAD PUSH2 0x1232 PUSH1 0x1F DUP10 AND DUP3 PUSH2 0x1130 JUMP JUMPDEST DUP4 SSTORE POP JUMPDEST PUSH1 0x1 PUSH1 0x2 DUP9 MUL ADD DUP9 SSTORE POP POP POP JUMPDEST POP POP POP POP POP POP JUMPDEST JUMP JUMPDEST PUSH32 0x4E487B7100000000000000000000000000000000000000000000000000000000 PUSH0 MSTORE PUSH1 0x31 PUSH1 0x4 MSTORE PUSH1 0x24 PUSH0 REVERT JUMPDEST PUSH32 0x4E6F204D6F6E6579000000000000000000000000000000000000000000000000 PUSH0 DUP3 ADD MSTORE POP JUMP JUMPDEST PUSH0 PUSH2 0x12AD PUSH1 0x8 DUP4 PUSH2 0xE1D JUMP JUMPDEST SWAP2 POP PUSH2 0x12B8 DUP3 PUSH2 0x1279 JUMP JUMPDEST PUSH1 0x20 DUP3 ADD SWAP1 POP SWAP2 SWAP1 POP JUMP JUMPDEST PUSH0 PUSH1 0x20 DUP3 ADD SWAP1 POP DUP2 DUP2 SUB PUSH0 DUP4 ADD MSTORE PUSH2 0x12DA DUP2 PUSH2 0x12A1 JUMP JUMPDEST SWAP1 POP SWAP2 SWAP1 POP JUMP JUMPDEST PUSH0 PUSH2 0x12EB DUP3 PUSH2 0x9A3 JUMP JUMPDEST SWAP2 POP PUSH2 0x12F6 DUP4 PUSH2 0x9A3 JUMP JUMPDEST SWAP3 POP DUP3 DUP3 MUL PUSH2 0x1304 DUP2 PUSH2 0x9A3 JUMP JUMPDEST SWAP2 POP DUP3 DUP3 DIV DUP5 EQ DUP4 ISZERO OR PUSH2 0x131B JUMPI PUSH2 0x131A PUSH2 0xEC2 JUMP JUMPDEST JUMPDEST POP SWAP3 SWAP2 POP POP JUMP JUMPDEST PUSH32 0x4E487B7100000000000000000000000000000000000000000000000000000000 PUSH0 MSTORE PUSH1 0x12 PUSH1 0x4 MSTORE PUSH1 0x24 PUSH0 REVERT JUMPDEST PUSH0 PUSH2 0x1359 DUP3 PUSH2 0x9A3 JUMP JUMPDEST SWAP2 POP PUSH2 0x1364 DUP4 PUSH2 0x9A3 JUMP JUMPDEST SWAP3 POP DUP3 PUSH2 0x1374 JUMPI PUSH2 0x1373 PUSH2 0x1322 JUMP JUMPDEST JUMPDEST DUP3 DUP3 DIV SWAP1 POP SWAP3 SWAP2 POP POP JUMP JUMPDEST PUSH32 0x50657263656E74206D757374206265206265747765656E20312D313030000000 PUSH0 DUP3 ADD MSTORE POP JUMP JUMPDEST PUSH0 PUSH2 0x13B3 PUSH1 0x1D DUP4 PUSH2 0xE1D JUMP JUMPDEST SWAP2 POP PUSH2 0x13BE DUP3 PUSH2 0x137F JUMP JUMPDEST PUSH1 0x20 DUP3 ADD SWAP1 POP SWAP2 SWAP1 POP JUMP JUMPDEST PUSH0 PUSH1 0x20 DUP3 ADD SWAP1 POP DUP2 DUP2 SUB PUSH0 DUP4 ADD MSTORE PUSH2 0x13E0 DUP2 PUSH2 0x13A7 JUMP JUMPDEST SWAP1 POP SWAP2 SWAP1 POP JUMP JUMPDEST PUSH32 0x546F74616C2070657263656E742063616E6E6F74206578636565642031303000 PUSH0 DUP3 ADD MSTORE POP JUMP JUMPDEST PUSH0 PUSH2 0x141B PUSH1 0x1F DUP4 PUSH2 0xE1D JUMP JUMPDEST SWAP2 POP PUSH2 0x1426 DUP3 PUSH2 0x13E7 JUMP JUMPDEST PUSH1 0x20 DUP3 ADD SWAP1 POP SWAP2 SWAP1 POP JUMP JUMPDEST PUSH0 PUSH1 0x20 DUP3 ADD SWAP1 POP DUP2 DUP2 SUB PUSH0 DUP4 ADD MSTORE PUSH2 0x1448 DUP2 PUSH2 0x140F JUMP JUMPDEST SWAP1 POP SWAP2 SWAP1 POP JUMP JUMPDEST PUSH2 0x1458 DUP3 PUSH2 0xCAF JUMP JUMPDEST PUSH8 0xFFFFFFFFFFFFFFFF DUP2 GT ISZERO PUSH2 0x1471 JUMPI PUSH2 0x1470 PUSH2 0xABD JUMP JUMPDEST JUMPDEST PUSH2 0x147B DUP3 SLOAD PUSH2 0xF82 JUMP JUMPDEST PUSH2 0x1486 DUP3 DUP3 DUP6 PUSH2 0x10DE JUMP JUMPDEST PUSH0 PUSH1 0x20 SWAP1 POP PUSH1 0x1F DUP4 GT PUSH1 0x1 DUP2 EQ PUSH2 0x14B7 JUMPI PUSH0 DUP5 ISZERO PUSH2 0x14A5 JUMPI DUP3 DUP8 ADD MLOAD SWAP1 POP JUMPDEST PUSH2 0x14AF DUP6 DUP3 PUSH2 0x114C JUMP JUMPDEST DUP7 SSTORE POP PUSH2 0x1516 JUMP JUMPDEST PUSH1 0x1F NOT DUP5 AND PUSH2 0x14C5 DUP7 PUSH2 0xFC7 JUMP JUMPDEST PUSH0 JUMPDEST DUP3 DUP2 LT ISZERO PUSH2 0x14EC JUMPI DUP5 DUP10 ADD MLOAD DUP3 SSTORE PUSH1 0x1 DUP3 ADD SWAP2 POP PUSH1 0x20 DUP6 ADD SWAP5 POP PUSH1 0x20 DUP2 ADD SWAP1 POP PUSH2 0x14C7 JUMP JUMPDEST DUP7 DUP4 LT ISZERO PUSH2 0x1509 JUMPI DUP5 DUP10 ADD MLOAD PUSH2 0x1505 PUSH1 0x1F DUP10 AND DUP3 PUSH2 0x1130 JUMP JUMPDEST DUP4 SSTORE POP JUMPDEST PUSH1 0x1 PUSH1 0x2 DUP9 MUL ADD DUP9 SSTORE POP POP POP JUMPDEST POP POP POP POP POP POP JUMP JUMPDEST PUSH0 DUP2 SWAP1 POP SWAP3 SWAP2 POP POP JUMP JUMPDEST POP JUMP JUMPDEST PUSH0 PUSH2 0x1536 PUSH0 DUP4 PUSH2 0x151E JUMP JUMPDEST SWAP2 POP PUSH2 0x1541 DUP3 PUSH2 0x1528 JUMP JUMPDEST PUSH0 DUP3 ADD SWAP1 POP SWAP2 SWAP1 POP JUMP JUMPDEST PUSH0 PUSH2 0x1555 DUP3 PUSH2 0x152B JUMP JUMPDEST SWAP2 POP DUP2 SWAP1 POP SWAP2 SWAP1 POP JUMP JUMPDEST PUSH32 0x5472616E73666572206661696C65642E00000000000000000000000000000000 PUSH0 DUP3 ADD MSTORE POP JUMP JUMPDEST PUSH0 PUSH2 0x1593 PUSH1 0x10 DUP4 PUSH2 0xE1D JUMP JUMPDEST SWAP2 POP PUSH2 0x159E DUP3 PUSH2 0x155F JUMP JUMPDEST PUSH1 0x20 DUP3 ADD SWAP1 POP SWAP2 SWAP1 POP JUMP JUMPDEST PUSH0 PUSH1 0x20 DUP3 ADD SWAP1 POP DUP2 DUP2 SUB PUSH0 DUP4 ADD MSTORE PUSH2 0x15C0 DUP2 PUSH2 0x1587 JUMP JUMPDEST SWAP1 POP SWAP2 SWAP1 POP JUMP INVALID LOG2 PUSH5 0x6970667358 0x22 SLT KECCAK256 0xC5 0xC4 SWAP14 RETURNDATACOPY DUP11 RJUMPI 0xA330 SWAP6 0x2A SIGNEXTEND INVALID GASPRICE DUP9 CALL JUMPF 0x8500 PUSH23 0x28E8A98581BB32593EA7E56D8164736F6C634300081F00 CALLER "
				},
				"gasEstimates": {
					"creation": {
						"codeDepositCost": "1125800",
						"executionCost": "25429",
						"totalCost": "1151229"
					},
					"external": {
						"addWaitress(address,string,uint256)": "infinite",
						"addtips()": "119",
						"distributeBalance()": "infinite",
						"getTotalPercent()": "infinite",
						"removeWaitress(address)": "infinite",
						"viewWaitress()": "infinite",
						"viewtips()": "335"
					},
					"internal": {
						"_transferFunds(address payable,uint256)": "infinite"
					}
				},
				"methodIdentifiers": {
					"addWaitress(address,string,uint256)": "b499b79a",
					"addtips()": "6e7301fd",
					"distributeBalance()": "7943da69",
					"getTotalPercent()": "3c8e3b52",
					"removeWaitress(address)": "369a489d",
					"viewWaitress()": "e83a1b00",
					"viewtips()": "2a08deda"
				}
			},
			"storageLayout": {
				"storage": [
					{
						"astId": 3,
						"contract": "tipjar.sol:tips",
						"label": "owner",
						"offset": 0,
						"slot": "0",
						"type": "t_address"
					},
					{
						"astId": 39,
						"contract": "tipjar.sol:tips",
						"label": "waitress",
						"offset": 0,
						"slot": "1",
						"type": "t_array(t_struct(Waitress)35_storage)dyn_storage"
					}
				],
				"types": {
					"t_address": {
						"encoding": "inplace",
						"label": "address",
						"numberOfBytes": "20"
					},
					"t_address_payable": {
						"encoding": "inplace",
						"label": "address payable",
						"numberOfBytes": "20"
					},
					"t_array(t_struct(Waitress)35_storage)dyn_storage": {
						"base": "t_struct(Waitress)35_storage",
						"encoding": "dynamic_array",
						"label": "struct tips.Waitress[]",
						"numberOfBytes": "32"
					},
					"t_string_storage": {
						"encoding": "bytes",
						"label": "string",
						"numberOfBytes": "32"
					},
					"t_struct(Waitress)35_storage": {
						"encoding": "inplace",
						"label": "struct tips.Waitress",
						"members": [
							{
								"astId": 30,
								"contract": "tipjar.sol:tips",
								"label": "walletAddress",
								"offset": 0,
								"slot": "0",
								"type": "t_address_payable"
							},
							{
								"astId": 32,
								"contract": "tipjar.sol:tips",
								"label": "name",
								"offset": 0,
								"slot": "1",
								"type": "t_string_storage"
							},
							{
								"astId": 34,
								"contract": "tipjar.sol:tips",
								"label": "percent",
								"offset": 0,
								"slot": "2",
								"type": "t_uint256"
							}
						],
						"numberOfBytes": "96"
					},
					"t_uint256": {
						"encoding": "inplace",
						"label": "uint256",
						"numberOfBytes": "32"
					}
				}
			},
			"userdoc": {
				"kind": "user",
				"methods": {},
				"version": 1
			}
		}
	}
}